:020000040800F2
:1000000000400120893C0008752E0008812E000860
:10001000872E00088D2E0008932E00080000000097
:100020000000000000000000000000008101010845
:10003000992E0008000000005103010899030108EF
:10004000D13C0008D13C0008D13C0008D13C00085C
:10005000D13C0008D13C0008D13C0008D13C00084C
:10006000D13C0008D13C0008D13C0008D13C00083C
:10007000D13C0008D13C0008D13C0008A52E000866
:10008000D13C0008D13C0008B92E0008D13C000842
:10009000CD2E0008D13C0008D13C0008D13C00081E
:1000A000D13C0008D13C0008D13C0008D13C0008FC
:1000B000D13C0008452F0008D13C0008D13C000885
:1000C000D13C0008D13C0008D13C0008D13C0008DC
:1000D000D13C0008E12E0008F52E0008092F000889
:1000E000D13C0008D13C0008D13C0008592F000841
:1000F0006D2F000800000000D13C0008D13C000832
:100100001D2F0008312F0008D13C0008D13C000809
:10011000D13C0008D13C0008D13C000800000000A0
:10012000D13C0008000000000000000000000000BA
:0C01300000000000000000005FF808F173
:1001400010B5054C237833B9044B13B10448AFF311
:1001500000800123237010BD100300200000000068
:10016000D855010808B5034B1BB103490348AFF349
:10017000008008BD0000000014030020D8550108CD
:10018000034613F8012B002AFBD1181A01387047D7
:1001900081F0004102E000BF83F0004330B54FEA38
:1001A00041044FEA430594EA050F08BF90EA020FA5
:1001B0001FBF54EA000C55EA020C7FEA645C7FEA38
:1001C000655C00F0E2804FEA5454D4EB5555B8BF5B
:1001D0006D420CDD2C4480EA020281EA030382EACC
:1001E000000083EA010180EA020281EA0303362D5E
:1001F00088BF30BD11F0004F4FEA01314FF4801C31
:100200004CEA113102D0404261EB410113F0004F42
:100210004FEA03334CEA133302D0524263EB4303F9
:1002200094EA050F00F0A780A4F10104D5F1200E97
:100230000DDB02FA0EFC22FA05F2801841F10001F2
:1002400003FA0EF2801843FA05F359410EE0A5F1C6
:1002500020050EF1200E012A03FA0EFC28BF4CF0F7
:10026000020C43FA05F3C01851EBE37101F00045AD
:1002700007D54FF0000EDCF1000C7EEB00006EEBBA
:100280000101B1F5801F1BD3B1F5001F0CD3490844
:100290005FEA30004FEA3C0C04F101044FEA44529B
:1002A00012F5800F80F09A80BCF1004F08BF5FEA22
:1002B000500C50F1000041EB045141EA050130BD02
:1002C0005FEA4C0C404141EB010111F4801FA4F1A5
:1002D0000104E9D191F0000F04BF01460020B1FAFA
:1002E00081F308BF2033A3F10B03B3F120020CDA32
:1002F0000C3208DD02F1140CC2F10C0201FA0CF010
:1003000021FA02F10CE002F11402D8BFC2F1200C74
:1003100001FA02F120FA0CFCDCBF41EA0C0190402A
:10032000E41AA2BF01EB0451294330BD6FEA040473
:100330001F3C1CDA0C340EDC04F11404C4F120025E
:1003400020FA04F001FA02F340EA030021FA04F370
:1003500045EA030130BDC4F10C04C4F1200220FAC7
:1003600002F001FA04F340EA0300294630BD21FA05
:1003700004F0294630BD94F0000F83F4801306BFCB
:1003800081F480110134013D4EE77FEA645C18BFBF
:100390007FEA655C29D094EA050F08BF90EA020F56
:1003A00005D054EA000C04BF1946104630BD91EA4E
:1003B000030F1EBF0021002030BD5FEA545C05D151
:1003C0004000494128BF41F0004130BD14F5800490
:1003D0003CBF01F5801130BD01F0004545F0FE4104
:1003E00041F470014FF0000030BD7FEA645C1ABF39
:1003F000194610467FEA655C1CBF0B46024650EA70
:10040000013406BF52EA033591EA030F41F400219B
:1004100030BD00BF90F0000F04BF0021704730B521
:100420004FF4806404F132044FF000054FF00001F6
:1004300050E700BF90F0000F04BF0021704730B5B7
:100440004FF4806404F1320410F0004548BF40428C
:100450004FF000013EE700BF42004FEAE2014FEAE1
:1004600031014FEA02701FBF12F07F4393F07F4FBC
:1004700081F06051704732F07F4208BF704793F0BF
:100480007F4F04BF41F40021704730B54FF46074D2
:1004900001F0004521F000411CE700BF50EA0102D5
:1004A00008BF704730B54FF000050AE050EA01027E
:1004B00008BF704730B511F0004502D5404261EBEE
:1004C00041014FF4806404F132045FEA915C3FF42F
:1004D000D8AE4FF003025FEADC0C18BF03325FEACC
:1004E000DC0C18BF033202EBDC02C2F1200300FA7D
:1004F00003FC20FA02F001FA03FE40EA0E0021FAA2
:1005000002F11444BDE600BF70B54FF0FF0C4CF48F
:10051000E06C1CEA11541DBF1CEA135594EA0C0F41
:1005200095EA0C0F00F0DEF82C4481EA030621EA7C
:100530004C5123EA4C5350EA013518BF52EA0335B7
:1005400041F4801143F4801338D0A0FB02CE4FF069
:100550000005E1FB02E506F00042E0FB03E54FF099
:100560000006E1FB03569CF0000F18BF4EF0010E91
:10057000A4F1FF04B6F5007F64F5407404D25FEA8D
:100580004E0E6D4146EB060642EAC62141EA555140
:100590004FEAC52040EA5E504FEACE2EB4F1FD0C82
:1005A00088BFBCF5E06F1ED8BEF1004F08BF5FEA00
:1005B000500E50F1000041EB045170BD06F00046B2
:1005C00046EA010140EA020081EA0301B4EB5C045F
:1005D000C2BFD4EB0C0541EA045170BD41F4801157
:1005E0004FF0000E013C00F3AB8014F1360FDEBF7C
:1005F000002001F0004170BDC4F10004203C35DA58
:100600000C341BDC04F11404C4F1200500FA05F3DA
:1006100020FA04F001FA05F240EA020001F000427B
:1006200021F0004110EBD37021FA04F642EB0601F1
:100630005EEA430E08BF20EAD37070BDC4F10C041B
:10064000C4F1200500FA04F320FA05F001FA04F2DF
:1006500040EA020001F0004110EBD37041F10001CB
:100660005EEA430E08BF20EAD37070BDC4F12005D6
:1006700000FA05F24EEA020E20FA04F301FA05F23E
:1006800043EA020321FA04F001F0004121FA04F2E6
:1006900020EA020000EBD3705EEA430E08BF20EAB6
:1006A000D37070BD94F0000F0FD101F000464000F0
:1006B00041EB010111F4801F08BF013CF7D041EA72
:1006C000060195F0000F18BF704703F00046520076
:1006D00043EB030313F4801F08BF013DF7D043EA47
:1006E0000603704794EA0C0F0CEA135518BF95EAFD
:1006F0000C0F0CD050EA410618BF52EA4306D1D184
:1007000081EA030101F000414FF0000070BD50EAA2
:10071000410606BF1046194652EA430619D094EA2C
:100720000C0F02D150EA013613D195EA0C0F05D116
:1007300052EA03361CBF104619460AD181EA03016A
:1007400001F0004141F0FE4141F470014FF0000022
:1007500070BD41F0FE4141F4780170BD70B54FF0BD
:10076000FF0C4CF4E06C1CEA11541DBF1CEA13553D
:1007700094EA0C0F95EA0C0F00F0A7F8A4EB05041F
:1007800081EA030E52EA03354FEA013100F0888016
:100790004FEA03334FF0805545EA131343EA1263DF
:1007A0004FEA022245EA111545EA10654FEA002694
:1007B0000EF000419D4208BF964244F1FD0404F54D
:1007C000407402D25B084FEA3202B61A65EB0305A9
:1007D0005B084FEA32024FF480104FF4002CB6EB66
:1007E000020E75EB030E22BFB61A754640EA0C00E6
:1007F0005B084FEA3202B6EB020E75EB030E22BF26
:10080000B61A754640EA5C005B084FEA3202B6EB66
:10081000020E75EB030E22BFB61A754640EA9C0025
:100820005B084FEA3202B6EB020E75EB030E22BFF5
:10083000B61A754640EADC0055EA060E18D04FEAB3
:10084000051545EA16754FEA06164FEAC30343EA53
:1008500052734FEAC2025FEA1C1CC0D111F4801F20
:100860000BD141EA00014FF000004FF0004CB6E719
:1008700011F4801F04BF01430020B4F1FD0C88BFB8
:10088000BCF5E06F3FF6AFAEB5EB030C04BFB6EBC3
:10089000020C5FEA500C50F1000041EB045170BDB6
:1008A0000EF0004E4EEA113114EB5C04C2BFD4EBE3
:1008B0000C0541EA045170BD41F480114FF0000E67
:1008C000013C90E645EA060E8DE60CEA135594EAE3
:1008D0000C0F08BF95EA0C0F3FF43BAF94EA0C0FE6
:1008E0000AD150EA01347FF434AF95EA0C0F7FF45B
:1008F00025AF104619462CE795EA0C0F06D152EAAF
:1009000003353FF4FDAE1046194622E750EA410692
:1009100018BF52EA43067FF4C5AE50EA41047FF4A3
:100920000DAF52EA43057FF4EBAE12E74FF0FF3C08
:1009300006E000BF4FF0010C02E000BF4FF0010CD9
:100940004DF804CD4FEA410C7FEA6C5C4FEA430C52
:1009500018BF7FEA6C5C1BD001B050EA410C0CBFA1
:1009600052EA430C91EA030F02BF90EA020F002003
:10097000704710F1000F91EA030F58BF994208BF6A
:1009800090422CBFD8176FEAE37040F00100704727
:100990004FEA410C7FEA6C5C02D150EA013C07D17E
:1009A0004FEA430C7FEA6C5CD6D152EA033CD3D0C9
:1009B0005DF8040B704700BF8446104662468C46C3
:1009C0001946634600E000BF01B5FFF7B7FF0028F6
:1009D00048BF10F1000F01BD4DF808EDFFF7F4FF1F
:1009E0000CBF012000205DF808FB00BF4DF808EDAA
:1009F000FFF7EAFF34BF012000205DF808FB00BFCD
:100A00004DF808EDFFF7E0FF94BF012000205DF8EE
:100A100008FB00BF4DF808EDFFF7CEFF94BF0120A3
:100A200000205DF808FB00BF4DF808EDFFF7C4FF9C
:100A300034BF012000205DF808FB00BF4FEA410CE5
:100A40007FEA6C5C02D150EA013C0AD14FEA430CC8
:100A50007FEA6C5C02D152EA033C02D14FF0000005
:100A600070474FF0010070474FEA410212F5001243
:100A700015D211D56FF47873B3EB625212D94FEAE5
:100A8000C12343F0004343EA505311F0004F23FACF
:100A900002F018BF404270474FF00000704750EA24
:100AA000013005D111F0004008BF6FF000407047E1
:100AB0004FF00000704700BF4A0011D212F500123B
:100AC00011D20DD56FF47873B3EB62520ED44FEAA6
:100AD000C12343F0004343EA505323FA02F0704726
:100AE0004FF00000704750EA013002D14FF0FF3064
:100AF00070474FF0000070474FEA4102B2F1E04307
:100B000024BFB3F5001CDCF1FE5C0DD901F0004CF4
:100B10004FEAC0024CEA5070B2F1004F40EB830044
:100B200008BF20F00100704711F0804F21D113F170
:100B30003872BCBF01F00040704741F480114FEAA9
:100B40005252C2F11802C2F1200C10FA0CF320FA32
:100B500002F018BF40F001004FEAC1234FEAD3234F
:100B600003FA0CFC40EA0C0023FA02F34FEA4303B9
:100B7000CCE77FEA625307D150EA01331EBF4FF042
:100B8000FE4040F44000704701F0004040F0FE405D
:100B900040F40000704700BF53B94AB9002908BFAC
:100BA00000281CBF4FF0FF314FF0FF3000F074B948
:100BB000ADF1080C6DE904CE00F006F8DDF804E0B4
:100BC000DDE9022304B070472DE9F0478C46044666
:100BD000089E002B4BD18A42154667D9B2FA82F2A1
:100BE0004AB1C2F1200701FA02F320FA07F7954053
:100BF00047EA030C94404FEA154EBCFBFEF71FFA80
:100C000085F80EFB17C307FB08F9210C41EA0343E3
:100C1000994509D9EB1807F1FF3180F01C819945FE
:100C200040F21981023F2B44A3EB0903B3FBFEF012
:100C30000EFB103300FB08F1A4B244EA0344A142C6
:100C400009D92C1900F1FF3380F00781A14240F24D
:100C5000048102382C4440EA07400027641A1EB180
:100C60000023D440C6E900433946BDE8F0878B42F3
:100C700009D9002E00F0EC800027C6E900013846B3
:100C80003946BDE8F087B3FA83F7002F48D18B428D
:100C900002D3824200F2FB80841A61EB030301203D
:100CA0009C46002EE0D0C6E9004CDDE702B9FFDE2D
:100CB000B2FA82F2002A40F08F800127491B4FEAE6
:100CC00015481FFA85F9B1FBF8FE08FB1E1109FB58
:100CD0000EF04FEA144C4CEA0143984207D9EB1846
:100CE0000EF1FF3102D2984200F2CD808E461B1ADF
:100CF000B3FBF8F008FB103309FB00F9A4B244EA97
:100D00000344A14507D92C1900F1FF3302D2A145B4
:100D100000F2B6801846A4EB090440EA0E409EE7B4
:100D2000C7F12005BB4022FA05FC4CEA030C21FA6E
:100D300005F44FEA1C4EB4FBFEF91FFA8CF80EFBCB
:100D4000194420FA05F3B94009FB08FA19430B0CC2
:100D500043EA0444A24502FA07F200FA07F30BD96A
:100D60001CEB040409F1FF3080F08880A24540F2BA
:100D70008580A9F102096444A4EB0A04B4FBFEF0E7
:100D80000EFB104400FB08FA89B241EA0444A24574
:100D900008D91CEB040400F1FF316BD2A24569D9DC
:100DA0000238644440EA0940A0FB0289A4EB0A042B
:100DB0004C454146CE4654D351D0002E69D05A1AE4
:100DC00064EB0E0404FA05F522FA07F3FC401D4318
:100DD000C6E90054002747E79540C2F1200321FAF5
:100DE00003F04FEA1548B0FBF8F71FFA85F908FB46
:100DF000170024FA03F3914007FB09FC0B43190C7D
:100E000041EA00418C4504FA02F407D9691807F158
:100E1000FF3031D28C452FD9023F2944A1EB0C0180
:100E2000B1FBF8F008FB101C00FB09FE99B241EA87
:100E30000C418E4507D9691800F1FF3318D28E4551
:100E400016D902382944A1EB0E0140EA07473AE7D8
:100E50003746304608E70F46E6E61846FBE64345C8
:100E6000ABD2B8EB020169EB0C0201389646A4E75D
:100E70001846E8E7084695E70746CFE781467BE74F
:100E800002382C4447E7AEF1020E2B442FE73846D8
:100E900007E73746E8E600BF704700BF80B584B07B
:100EA00000AF3B1D00221A605A609A60264B274A09
:100EB0001A60254B00225A60234B00229A60224B75
:100EC0000022DA60204B00221A611F4B00225A6177
:100ED0001D4B00229A611C4B0022DA611A4B002242
:100EE0001A62194B002283F82420174B01229A62C0
:100EF000154B002283F82C20134B10225A63124BFF
:100F000000229A63104B002283F83C200E4802F026
:100F100037FF0346002B02D0022001F043FE1023CE
:100F20007B600123BB600023FB603B1D1946064824
:100F300003F0A8FA0346002B02D0022001F032FE93
:100F400000BF1037BD4680BDEC39002000240140B1
:100F500080B58CB000AF786007F11C0300221A60E6
:100F60005A609A60DA601A617B681B68314A934262
:100F70005CD1314B1B6A304A43F4007313622E4B31
:100F80001B6A03F40073BB61BB692B4BDB692A4A04
:100F900043F00103D361284BDB6903F001037B615C
:100FA0007B69254BDB69244A43F00403D361224B60
:100FB000DB6903F004033B613B691F4BDB691E4A9D
:100FC00043F01003D3611C4BDB6903F01003FB609B
:100FD000FB680323FB6103233B6200237B6207F171
:100FE0001C031946154803F081FF2023FB610323EE
:100FF0003B6200237B6207F11C031946104803F093
:1010000075FF4FF44073FB6103233B6200237B6257
:1010100007F11C0319460B4803F068FF002200216A
:10102000122003F0EAFC122003F003FD00BF30376A
:10103000BD4680BD0024014000380240000002404F
:10104000000802400010024080B586B000AF786012
:1010500007F10C0300221A605A609A6001233B6179
:1010600002237B617B68FB6007F10C0319460F4884
:1010700003F008FA0346002B02D0022001F092FD93
:101080000A4802F0C3FF0A21084803F04BF807485A
:1010900003F0D1F80246064B5A60044803F016F8F4
:1010A000034B5B6818461837BD4680BDEC390020FD
:1010B000483A00200000000098B500AFA84B00227D
:1010C0001A701120FFF7C0FFA54B5B68B3F5805F76
:1010D00022D2A44B1B881A4640F6B83303FB02F217
:1010E0009F4B5968A04B9B68DB0D01FA03F3B2FBE1
:1010F000F3F31846FFF78EF94FF000029B4BFFF712
:101100002DFB03460C46964AC2E90234944B1B78E9
:101110000133DAB2924B1A701020FFF795FF904B13
:101120005B68B3F5805F29D28D4B5B6840F6E44283
:1011300002FB03F38E4AA2FB03239B091A468D4B45
:101140001B88D21A13469B0013441B011A468A4B74
:101150001B881946874B1B88CB1A92FBF3F31C3371
:101160001846FFF767F903460C467D4AC2E9043486
:101170007B4B1B780133DAB2794B1A700F20FFF7E3
:1011800063FF774B5B68B3F5805F35D2744B5B6868
:101190001846FFF73FF966A3D3E90023FFF7B4F938
:1011A00003460C466E4AC2E908346D4BD3E9080188
:1011B00061A3D3E90023FFF7D1FA03460C46184692
:1011C00021464FF000026D4BFFF79EF903460C4697
:1011D00018462146FFF770FC0346DAB2604B83F8ED
:1011E00028205F4B93F82820654B1A705C4B1B78C6
:1011F0000133DAB25A4B1A700120FFF725FF584B22
:101200005B68B3F5805F1DD2554B5B681846FFF7EE
:1012100001F947A3D3E90023FFF776F903460C460B
:101220001846214646A3D3E90023FFF76DF903468C
:101230000C464B4AC2E90C34494B1B780133DAB2F5
:10124000474B1A700020FFF7FFFE454B5B68B3F574
:10125000805F1DD2424B5B681846FFF7DBF834A372
:10126000D3E90023FFF750F903460C461846214600
:1012700035A3D3E90023FFF747F903460C46384A64
:10128000C2E90E34364B1B780133DAB2344B1A7094
:101290001720FFF7D9FE324B5B68B3F5805F1DD294
:1012A0002F4B5B681846FFF7B5F821A3D3E900235D
:1012B000FFF72AF903460C461846214624A3D3E932
:1012C0000023FFF721F903460C46254AC2E91034F2
:1012D000234B1B780133DAB2214B1A701820FFF729
:1012E000B3FE1F4B5B68B3F5805F1DD21C4B5B6880
:1012F0001846FFF78FF80EA3D3E90023FFF704F990
:1013000003460C461846214613A3D3E90023FFF7F2
:10131000FBF803460C46124AC2E91234104B1B7804
:101320000133DAB20E4B1A7000BF98BDAFF30080E4
:101330006666666666664A3F6666666666660A4012
:101340000AD7A3703D0A18401F85EB51B81E1840FC
:10135000CDCCCCCCCCCC10409A9999999999094094
:10136000483A0020F800F81FEC39002000408F4078
:10137000F1197605FA00F81FFE00F81F0000594029
:10138000D039002080B590B000AF0346FB714E4BC2
:10139000DB694D4A43F00103D3614B4BDB6903F03A
:1013A00001033B623B6A484BDB69474A43F0020357
:1013B000D361454BDB6903F00203FB61FB69424BE0
:1013C000DB69414A43F00403D3613F4BDB6903F01F
:1013D0000403BB61BB693C4BDB693B4A43F0080338
:1013E000D361394BDB6903F008037B617B69364BC2
:1013F000DB69354A43F01003D361334BDB6903F0FB
:1014000010033B613B69304BDB692F4A43F02003FB
:10141000D3612D4BDB6903F02003FB60FB680022E6
:1014200020212A4803F007FF274BDB69264A43F0B7
:101430000103D361244BDB6903F00103BB60BB688C
:101440002023FB6201233B6302237B630023BB63F6
:1014500007F12C0319461D4803F048FD1C4AFB798F
:1014600013701C4B1C4A1A601A4B20225A60194BED
:101470007922DA60174B00229A60164B00225A61DB
:10148000144806F007FC0346002B02D0042001F0AC
:1014900089FB00237B620023BB6207F1240319460A
:1014A0000C4807F061FB0346002B02D0042001F03A
:1014B00079FB084800F08CFF064800F0D5FF00BF1C
:1014C0004037BD4680BD00BF0038024000040240E6
:1014D000983A00205C3D00200010004080B582B0AA
:1014E00000AF0E4B1B78012B13D14623FB8006E087
:1014F00020210B4803F0B7FE012002F01FFCFB88FF
:101500005A1EFA80002BF3D100222021044803F058
:1015100092FE00BF0837BD4680BD00BF983A00204C
:101520000004024080B500AF094B1B78012B0DD1A0
:10153000084806F0EFFB46200CF04EFC054806F08C
:101540003BFC00222021044803F075FE00BF80BD53
:10155000983A00205C3D00200004024080B582B033
:1015600000AF3B4600221A605A60104B104A1A60C6
:101570000E4803F06CFA0346002B02D0032001F062
:1015800011FB00233B6000237B603B460022194691
:10159000064803F0F1FA0346002B02D0032001F0C5
:1015A00001FB00BF0837BD4680BD00BF9C3A00204C
:1015B0000074004080B58AB000AF786007F1140372
:1015C00000221A605A609A60DA601A617B681B68B0
:1015D000154A934223D1154B5B6A144A43F00053DA
:1015E0005362124B5B6A03F000533B613B690F4B44
:1015F000DB690E4A43F00103D3610C4BDB6903F056
:101600000103FB60FB6810237B610323BB610023A4
:10161000FB6107F114031946054803F067FC00BF9E
:101620002837BD4680BD00BF00740040003802402E
:101630000000024080B582B000AF0346FB71FB7929
:10164000082200210B4803F073FA0346002B02D056
:10165000152001F0A7FA0021064803F01AFA034604
:10166000002B02D0152001F09DFA00BF0837BD46BF
:1016700080BD00BF9C3A002080B582B000AF0C4B0B
:10168000DB690B4A43F08073D361094BDB6903F0DC
:1016900080737B607B68002200210F2003F0ADF98E
:1016A0000F2003F0C6F900BF0837BD4680BD00BF5C
:1016B0000038024080B586B004AF03460A46FB807E
:1016C0001346BB800C4B1B781A460C490C4810F093
:1016D000EFFB0023029347F6FF7301934FF4784327
:1016E0000093084B064AE621C82002F071FA00BFB9
:1016F0000837BD4680BD00BFD0390020F055010835
:10170000B03A0020CC8B010890B589B004AF0346F5
:101710000A46FB801346BB801E4BFB601E4B03F149
:101720000804D4E900341A4623461C491C4810F02A
:10173000BFFBB988F8880023029347F6FF73019333
:101740004FF478430093FB68154A02F041FA124BBC
:1017500003F11004D4E9003418462146FFF784F958
:1017600003461A460F490E4810F0A2FBBB880A3305
:1017700099B2F8880023029347F6FF7301934FF460
:1017800078430093FB68064A02F022FA00BF143740
:10179000BD4690BD24830108483A0020F855010851
:1017A000B03A00200856010880B588B004AF03465F
:1017B000FB800B46BB801346FB701D4BFB60FB7828
:1017C000012B13D0022B20D0002B00D02CE0B988A5
:1017D000F8880023029347F67C5301934FF4784333
:1017E0000093FB68134A02F0F3F91DE0B988F8880A
:1017F0000023029347F67C5301934FF47843009300
:10180000FB680D4A02F0E4F90EE0B988F88800237D
:10181000029347F67C5301934FF478430093FB689F
:10182000064A02F0D5F900BF00BF1037BD4680BDA3
:10183000BC580108145601081C560108245601081A
:1018400080B58CB000AF3D4BDB693C4A43F00103EF
:10185000D3613A4BDB6903F00103BB61BB69374BD2
:10186000DB69364A43F00203D361344BDB6903F092
:1018700002037B617B69314BDB69304A43F004032F
:10188000D3612E4BDB6903F004033B613B692B4BB7
:10189000DB692A4A43F00803D361284BDB6903F074
:1018A0000803FB60FB68254BDB69244A43F0100307
:1018B000D361224BDB6903F01003BB60BB681F4B95
:1018C000DB691E4A43F02003D3611C4BDB6903F044
:1018D00020037B607B684FF40053FB61184B3B6235
:1018E00000237B620123BB6207F11C0319461548E4
:1018F00003F0FCFA0823FB6102233B6200237B62B6
:101900000023BB620223FB6207F11C0319460E4849
:1019100003F0ECFA1023FB6102233B6200237B629D
:101920000023BB620223FB6207F11C031946064831
:1019300003F0DCFA00BF3037BD4680BD00380240FE
:1019400000002110000C02400010024080B500AFE2
:101950001F480CF06FFA02461E4B1A601E4A012106
:1019600020200CF001FB02461C4B1A601C4A00218F
:101970001C480CF087F902461B4B1A601B4A0021D9
:101980001B480CF07FF902461A4B1A601A4A0021D4
:101990001A480CF077F90246194B1A60194A0021CF
:1019A00019480CF06FF90246184B1A60184A0021CA
:1019B00018480CF067F90246174B1A60174A0021C5
:1019C00017480CF05FF90246164B1A6000BF80BD45
:1019D00088580108443B002070580108CC3A002088
:1019E00098570108291A0008C43A0020BC5701087A
:1019F000411A0008C83A0020E0570108511A0008AF
:101A0000503B002004580108911A0008483B002070
:101A100028580108A51A0008203B00204C5801084E
:101A2000E91A00084C3B002080B582B000AF786016
:101A30000EF004FFFFF776FD64200CF0CDF9FBE714
:101A400080B582B000AF786001200CF0C5F9FBE7EB
:101A500080B582B000AF786000210020FFF72AFE39
:101A6000094B1B781A463221FA20FFF79DFE05210B
:101A70006420FFF749FE1021044803F0F4FB6420C2
:101A80000CF0AAF9E8E700BF403A00200008024045
:101A900080B582B000AF7860FFF70EFB32200CF00B
:101AA0009BF9F9E780B582B000AF786001F0B2F839
:101AB00040210A4803F0A8FB0346002B05D1002271
:101AC0002021074803F0B7FB04E00122202104484D
:101AD00003F0B1FB0A200CF07FF9E7E700040240B5
:101AE000001002400000000090B583B000AF7860A5
:101AF000134B1B78184601F0DFF8124B1B78184681
:101B0000FEF788FC0CA3D3E90023FEF7FDFC034697
:101B10000C4618462146FEF7CFFF0346DBB21846B7
:101B2000FFF788FD074B1B78184601F00FF91420CA
:101B30000CF052F9DCE700BF48E17A14AE47F93FF8
:101B4000403A0020D039002080B58CB000AF07F1BA
:101B50001C0300221A605A609A60DA601A61524BC4
:101B6000DB69514A43F00103D3614F4BDB6903F05A
:101B70000103BB61BB694C4BDB694B4A43F0020379
:101B8000D361494BDB6903F002037B617B69464B00
:101B9000DB69454A43F00403D361434BDB6903F03F
:101BA00004033B613B69404BDB693F4A43F0080358
:101BB000D3613D4BDB6903F00803FB60FB683A4BE4
:101BC000DB69394A43F01003D361374BDB6903F01B
:101BD0001003BB60BB68344BDB69334A43F020031E
:101BE000D361314BDB6903F020037B607B6800220B
:101BF000E0212E4803F01FFB00221F212C4803F098
:101C00001AFB002241F207012A4803F014FBE023EB
:101C1000FB6101233B6200237B620023BB6207F16F
:101C20001C031946214803F061F91F23FB610123BE
:101C30003B6200237B620023BB6207F11C03194651
:101C40001B4803F053F941F20703FB6101233B6298
:101C500000237B620023BB6207F11C031946154871
:101C600003F044F90123FB61134B3B6200237B62C9
:101C700007F11C031946114803F038F94FF480733B
:101C8000FB6102233B6200237B620023BB620023D3
:101C9000FB6207F11C031946094803F027F900BF4E
:101CA0003037BD4680BD00BF003802400010024002
:101CB000000802400004024000001110000C024025
:101CC0000000024080B500AF134B144A1A60124B5B
:101CD000134A5A60104B00229A600F4B0022DA60C0
:101CE0000D4B4FF480421A610B4B00225A610A4B94
:101CF00000229A61084B0022DA61074B00221A6227
:101D0000054803F0C9FA0346002B02D0072000F073
:101D100049FF00BF80BD00BF543B0020005400407D
:101D2000801A060080B58AB000AF786007F114030E
:101D300000221A605A609A60DA601A617B681B6838
:101D4000174A934228D1174BDB69164A43F0020326
:101D5000D361144BDB6903F002033B613B694FF431
:101D600040737B611223BB610123FB6103233B6250
:101D700004237B6207F1140319460B4803F0B6F8FD
:101D8000084B5B6A074A43F400135362054B5B6AD6
:101D900003F40013FB60FB6800BF2837BD4680BD1D
:101DA00000540040003802400004024080B58CB06E
:101DB00000AF4B4BDB694A4A43F00103D361484B08
:101DC000DB6903F00103BB61BB69454BDB69444A36
:101DD00043F00203D361424BDB6903F002037B61F2
:101DE0007B693F4BDB693E4A43F00403D3613C4BC4
:101DF000DB6903F004033B613B69394BDB69384A1B
:101E000043F00803D361364BDB6903F00803FB6042
:101E1000FB68334BDB69324A43F01003D361304B2C
:101E2000DB6903F01003BB60BB682D4BDB692C4AF8
:101E300043F02003D3612A4BDB6903F020037B606E
:101E40007B684FF48073FB61264B3B6200237B620F
:101E50000123BB6207F11C031946234803F046F82F
:101E60004FF40073FB611F4B3B6200237B62012335
:101E7000BB6207F11C0319461B4803F037F84FF407
:101E80008053FB61174B3B6200237B620123BB62E3
:101E900007F11C031946144803F028F84FF4806337
:101EA000FB61104B3B6200237B620123BB6207F1A5
:101EB0001C0319460C4803F019F84FF40063FB614A
:101EC000084B3B6200237B620123BB6207F11C03CA
:101ED0001946054803F00AF800BF3037BD4680BDFB
:101EE0000038024000002110000C024080B500AF15
:101EF000184B194A1A60174B4FF482725A60154BEF
:101F000000229A60134B0022DA60124B00221A6101
:101F1000104B00225A610F4B4FF400729A610D4B27
:101F20000022DA610B4B00221A620A4B00225A622D
:101F3000084B00229A62074B0A22DA62054805F034
:101F400019FC0346002B02D0062000F02BFE00BF38
:101F500080BD00BF003C00200030014080B500AFD4
:101F6000184B194A1A60174B4FF482725A60154B7E
:101F700000229A60134B0022DA60124B00221A6191
:101F8000104B00225A610F4B4FF400729A610D4BB7
:101F90000022DA610B4B00221A620A4B00225A62BD
:101FA000084B00229A62074B0A22DA62054805F0C4
:101FB000E1FB0346002B02D0062000F0F3FD00BF3A
:101FC00080BD00BFA83B00200038004080B58CB029
:101FD00000AF786007F11C0300221A605A609A6013
:101FE000DA601A617B681B68424A934228D1424BEF
:101FF0001B6A414A43F4805313623F4B1B6A03F44C
:102000008053BB61BB693C4BDB693B4A43F0010336
:10201000D361394BDB6903F001037B617B69E0230A
:10202000FB6102233B6200237B620323BB62052327
:10203000FB6207F11C031946304802F057FF55E0D8
:102040007B681B682E4A934250D12B4B5B6A2A4A0D
:1020500043F480435362284B5B6A03F480433B6143
:102060003B69254BDB69244A43F00203D361224BD1
:10207000DB6903F00203FB60FB684FF46043FB6124
:1020800002233B6200237B620323BB620523FB62C6
:1020900007F11C0319461B4802F028FF1A4B1B4A84
:1020A0001A60194B10225A60174B00229A60164B87
:1020B0008022DA60144B00221A61134B00225A610D
:1020C000114B00229A61104B4FF48052DA610E4896
:1020D00002F0A8FD0346002B02D0062000F062FDAE
:1020E0007B68094A9A64084A7B68536200BF3037AC
:1020F000BD4680BD00300140003802400000024073
:102100000038004000040240583C00205860024063
:1021100080B58CB000AF07F10C03242200211846D3
:102120000FF00FF83B1D00221A605A60214B224A23
:102130001A60204B00225A601E4B00229A601D4BF1
:102140006422DA601B4B00221A611A4B00225A618A
:102150000123FB6000233B6101237B610023BB6102
:102160000023FB6100233B6201237B620023BB62EF
:102170000023FB6207F10C0319460E4805F068FFC7
:102180000346002B02D0042000F00CFD00237B60EE
:102190000023BB603B1D1946064806F0E5FC0346DC
:1021A000002B02D0042000F0FDFC00BF3037BD46FC
:1021B00080BD00BFDC3C00200004004080B58AB038
:1021C00000AF07F1180300221A605A609A60DA60C3
:1021D00007F1100300221A605A603B4600221A6081
:1021E0005A609A60DA60304B304A1A602E4B0022F7
:1021F0005A602D4B00229A602B4B4FF6FF72DA602B
:10220000294B4FF400721A61274B00225A6126486D
:1022100005F040FD0346002B02D0042000F0C2FC74
:102220004FF48053BB6107F1180319461E4806F0AE
:102230009FF90346002B02D0042000F0B3FC1A489B
:1022400005F0E0FD0346002B02D0042000F0AAFCBC
:1022500000233B6100237B6107F1100319461248FC
:1022600006F082FC0346002B02D0042000F09AFC0A
:1022700010233B6000237B600023BB600023FB60D6
:102280003B4600221946084806F05CF80346002B3E
:1022900002D0042000F086FC034800F0E5F800BFFF
:1022A0002837BD4680BD00BF9C3C00200008004090
:1022B00080B400AF00BFBD4680BC704780B588B019
:1022C00000AF07F1100300221A605A609A60DA60CA
:1022D0003B4600221A605A609A60DA60274B284A0F
:1022E0001A60264B4FF4FA425A60244B6422DA609B
:1022F000224B00229A60214B00221A611F4B0022C0
:102300005A611E4805F0C6FC0346002B02D004208B
:1023100000F048FC4FF480533B6107F1100319466D
:10232000164806F025F90346002B02D0042000F0E1
:1023300039FC124805F0AEFD0346002B02D0042004
:1023400000F030FC60233B6000237B600023BB6017
:102350000023FB603B4600221946084806F04AF875
:102360000346002B02D0042000F01CFC034800F0C0
:102370007BF800BF2037BD4680BD00BF1C3D00205C
:102380000010014080B584B000AF78607B681B68A6
:102390000D4A934213D10D4B5B6A0C4A43F0020382
:1023A00053620A4B5B6A03F00203FB60FB68002286
:1023B00000211D2002F021FB1D2002F03AFB00BF8E
:1023C0001037BD4680BD00BF000400400038024009
:1023D00080B586B000AF78607B681B681E4A934268
:1023E0000BD11E4B5B6A1D4A43F0040353621B4B27
:1023F0005B6A03F004037B617B697B681B68184A96
:10240000934214D1154B5B6A144A43F01003536294
:10241000124B5B6A03F010033B613B690022002111
:102420002B2002F0EAFA2B2002F003FB10E07B687D
:102430001B680C4A93420BD1084B1B6A074A43F0B6
:1024400010031362054B1B6A03F01003FB60FB686B
:1024500000BF1837BD4680BD00080040003802406C
:10246000001000400010014080B58AB000AF7860D5
:1024700007F1140300221A605A609A60DA601A6148
:102480007B681B68224A93421CD1224BDB69214A9C
:1024900043F00203D3611F4BDB6903F002033B618E
:1024A0003B6940237B610223BB610023FB61002366
:1024B0003B6202237B6207F114031946164802F0BF
:1024C00015FD20E07B681B68144A93421BD1114B19
:1024D000DB69104A43F01003D3610E4BDB6903F054
:1024E0001003FB60FB6802237B610223BB610023B6
:1024F000FB6100233B6203237B6207F1140319464F
:10250000074802F0F3FC00BF2837BD4680BD00BF7E
:102510000008004000380240000402400010014062
:102520000010024080B582B000AF7860391D64238E
:102530000122044806F0C3FB7B6818460837BD46F5
:1025400080BD00BF9C3E002080B500AF114B124AF9
:102550001A60104B4FF4E1325A600E4B00229A6021
:102560000C4B0022DA600B4B00221A61094B0C2243
:102570005A61084B00229A61064B0022DA61054835
:1025800006F050FB0346002B02D0052000F00AFBAA
:1025900000BF80BD1C3E00200038014080B500AF68
:1025A000114B124A1A60104B4FF4E1325A600E4B35
:1025B00000229A600C4B0022DA600B4B00221A6159
:1025C000094B0C225A61084B00229A61064B0022EB
:1025D000DA61054806F026FB0346002B02D00520F1
:1025E00000F0E0FA00BF80BD9C3E002000440040A7
:1025F00080B500AF114B124A1A60104B4FF4E13214
:102600005A600E4B00229A600C4B0022DA600B4B92
:1026100000221A61094B0C225A61084B00229A6170
:10262000064B0022DA61054806F0FCFA0346002B4F
:1026300002D0052000F0B6FA00BF80BD9C3D00200E
:102640000048004080B500AF114B124A1A60104B91
:102650004FF4E1325A600E4B00229A600C4B00227C
:10266000DA600B4B00221A61094B0C225A61084BAD
:1026700000229A61064B0022DA61054806F0D2FA80
:102680000346002B02D0052000F08CFA00BF80BD6D
:102690005C3E0020004C004080B500AF114B124A58
:1026A0001A60104B4FF4E1325A600E4B00229A60D0
:1026B0000C4B0022DA600B4B00221A61094B0C22F2
:1026C0005A61084B00229A61064B0022DA610548E4
:1026D00006F0A8FA0346002B02D0052000F062FAAB
:1026E00000BF80BDDC3D00200050004080B592B0AE
:1026F00000AF786007F1340300221A605A609A60D4
:10270000DA601A617B681B68974A934231D1974B14
:102710001B6A964A43F480431362944B1B6A03F48A
:1027200080433B633B6B914BDB69904A43F0010371
:10273000D3618E4BDB6903F00103FB62FB6A4FF44C
:10274000C0637B630223BB630023FB6303233B64FF
:1027500007237B6407F134031946854802F0C6FB62
:1027600000220021252002F048F9252002F061F91D
:10277000F5E07B681B687F4A934230D17B4B5B6AF4
:102780007A4A43F400335362784B5B6A03F40033B4
:10279000BB62BB6A754BDB69744A43F00103D361CA
:1027A000724BDB6903F001037B627B6A0C237B6362
:1027B0000223BB630023FB6303233B6407237B6487
:1027C00007F1340319466A4802F090FB0022002109
:1027D000262002F012F9262002F02BF9BFE07B68D8
:1027E0001B68654A934231D1604B5B6A5F4A43F490
:1027F000802353625D4B5B6A03F480233B623B6A38
:102800005A4BDB69594A43F00203D361574BDB69EA
:1028100003F00203FB61FB694FF440637B63022317
:10282000BB630023FB6303233B6407237B6407F143
:1028300034031946514802F059FB00220021272099
:1028400002F0DBF8272002F0F4F888E07B681B68D0
:102850004B4A934231D1454B5B6A444A43F40023CF
:102860005362424B5B6A03F40023BB61BB693F4B7D
:10287000DB693E4A43F00403D3613C4BDB6903F060
:1028800004037B617B694FF440637B630223BB637A
:102890000123FB6303233B6408237B6407F13403B8
:1028A0001946384802F022FB00220021302002F0B5
:1028B000A4F8302002F0BDF851E07B681B68324A72
:1028C00093424CD1294B5B6A284A43F480135362EC
:1028D000264B5B6A03F480133B613B69234BDB6946
:1028E000224A43F00403D361204BDB6903F0040365
:1028F000FB60FB681D4BDB691C4A43F00803D36196
:102900001A4BDB6903F00803BB60BB684FF48053CC
:102910007B630223BB630123FB6303233B64082324
:102920007B6407F134031946164802F0DFFA0423EA
:102930007B630223BB630123FB6303233B64082304
:102940007B6407F134031946104802F0CFFA0022E5
:102950000021312002F051F8312002F06AF800BF66
:102960004837BD4680BD00BF0038014000380240F6
:1029700000000240004400400048004000040240C3
:10298000004C00400008024000500040000C024093
:1029900080B500AF01F09DF900F06EF8FFF7D4F8B4
:1029A000FEF76AFEFFF7A2FAFFF7D8FAFFF78AF9F7
:1029B000FFF7CAFDFFF7F2FDFFF71AFEFFF742FE31
:1029C000FFF76AFEFEF7CAFDFEF768FAFFF7A0FB05
:1029D000FFF76EFCFFF7F2FBFFF770FC08F00CFE50
:1029E000FFF7E4F9FEF72CFF00F09AF90120FEF75B
:1029F000C9FC642001F0A2F900F0C8FB642001F0DA
:102A00009DF9012000F07CFE642001F097F9FEF7AB
:102A100065FD0F480FF0CCF90E480FF0C9F90E48CC
:102A20000FF03AFA0D490E480FF0C2F90D490E4861
:102A30000FF0BEF90D490E480FF0BAF90D480FF02E
:102A40002BFA0BF0B9F8FEF781FF0BF0E7F8FEE781
:102A50009C560108A4560108AC560108C856010846
:102A6000D0560108E0560108EC560108F856010856
:102A7000045701081057010880B592B000AF07F164
:102A800014033422002118460EF05BFB3B46002263
:102A90001A605A609A60DA601A61234B1B6823F44B
:102AA000C053214A43F40063136003237B61012375
:102AB000BB6101233B6210237B620223BB634FF4A3
:102AC0008033FB634FF480133B644FF400037B645B
:102AD00007F11403184604F027F80346002B02D030
:102AE000002000F05FF80F233B6003237B6000238E
:102AF000BB600023FB6000233B613B46012118467D
:102B000004F042FB0346002B02D0002000F04AF8FC
:102B10004FF080424FF08071002004F069FC00BF4C
:102B20004837BD4680BD00BF0070004080B582B010
:102B300000AF78607B681B68084A934201D101F0BE
:102B4000E1F87B681B68064A934203D120210548BF
:102B500002F089FB00BF0837BD4680BD001400406D
:102B6000001000400004024080B485B000AF7860DF
:102B70000A4B1B680A4AA2FB03235B0B7A6802FB21
:102B800003F3FB6002E0FB68013BFB60FB68002B8A
:102B9000F9D100BF1437BD4680BC7047000000204B
:102BA0005917B7D180B584B000AF0346FB7101223D
:102BB0001021174802F03FFB4FF4FA70FFF7D4FFE3
:102BC00000221021124802F036FB4FF4FA70FFF792
:102BD000CBFF0023FB7312E0012210210C4802F00E
:102BE0002AFB8220FFF7C0FF00221021084802F0D4
:102BF00022FB8220FFF7B8FFFB7B0133FB73FA7BDC
:102C0000FB799A42E8D34FF47A70FFF7ADFFCEE735
:102C10000008024080B582B000AF4FF480612448C4
:102C200002F0F2FA0346FB714FF40061204802F013
:102C3000EBFA0346BB71FB79012B0CBF0123002388
:102C4000DAB2BB79012B0CBF01230023DBB21340A6
:102C5000DBB2002B02D0174B00221A70FB79012B3C
:102C60000CBF01230023DAB2BB79002B0CBF012378
:102C70000023DBB21340DBB2002B02D00D4B01224C
:102C80001A70FB79002B0CBF01230023DAB2BB7949
:102C9000012B0CBF01230023DBB21340DBB2002B5E
:102CA00002D0044B02221A7000BF0837BD4680BD17
:102CB000000C0240403A002080B582B000AF0346CD
:102CC000FB71FB79012B0FD0022B18D0002B00D009
:102CD00020E000224021114802F0ADFA00228021BC
:102CE0000E4802F0A8FA15E0012240210B4802F03C
:102CF000A2FA00228021094802F09DFA0AE000228F
:102D00004021064802F097FA01228021034802F090
:102D100092FA00BF00BF0837BD4680BD00100240D8
:102D200080B500AFFFF7CAFA00F006F8642000F0A3
:102D30000DF800BF80BD000080B500AF0021024843
:102D400005F0F0F800BF80BD1C3D002080B483B0CA
:102D500000AF0346FB71044AFB79536300BF0C3795
:102D6000BD4680BC704700BF0010014080B485B0F4
:102D700000AF144B5B6A134A43F000435362114B9C
:102D80005B6A03F00043FB60FB680E4B1B6A0D4A55
:102D900043F0010313620B4B1B6A03F00103BB609A
:102DA000BB68084B5B6A074A43F080535362054B8C
:102DB0005B6A03F080537B607B6800BF1437BD46BD
:102DC00080BC70470038024080B58CB000AF78609E
:102DD0000023FB620023BB62002279682C2001F0F3
:102DE0000CFE2C2001F025FE1E4B5B6A1D4A43F0B1
:102DF000200353621B4B5B6A03F02003FB60FB68FC
:102E000007F1100207F114031146184604F022FCE2
:102E100004F0F8FBF862FB6A134AA2FB03239B0C45
:102E2000013BBB62114B124A1A60104B40F2E73271
:102E3000DA600E4ABB6A53600C4B00221A610B4BDE
:102E400000229A60094804F025FF0346002B04D1B4
:102E5000064804F05FFF034600E0012318463037C0
:102E6000BD4680BD0038024083DE1B43DC3E0020AF
:102E70000014004080B400AF00BFBD4680BC704766
:102E800080B400AFFEE780B400AFFEE780B400AFCF
:102E9000FEE780B400AFFEE780B400AF00BFBD46E0
:102EA00080BC704780B500AF024801F070FF00BFE2
:102EB00080BD00BF583C002080B500AF024801F043
:102EC000C6F900BF80BD00BFEC39002080B500AF5F
:102ED000024802F01DFC00BF80BD00BF7C480020FE
:102EE00080B500AF024805F083FF00BF80BD00BF82
:102EF0001C3E002080B500AF024805F079FF00BFFE
:102F000080BD00BF9C3E002080B500AF024805F0A8
:102F10006FFF00BF80BD00BF9C3D002080B500AFAB
:102F2000024805F065FF00BF80BD00BF5C3E002089
:102F300080B500AF024805F05BFF00BF80BD00BF59
:102F4000DC3D002080B500AF024805F01FF900BF4E
:102F500080BD00BFDC3C002080B500AF024805F01A
:102F600015F900BF80BD00BF5C3D002080B500AFFB
:102F7000024805F00BF900BF80BD00BFDC3E002019
:102F800080B586B000AFF860B9607A6000237B61DD
:102F90000AE0AFF300800146BB685A1CBA60CAB2AF
:102FA0001A707B6901337B617A697B689A42F0DB36
:102FB0007B6818461837BD4680BD80B586B000AF27
:102FC000F860B9607A6000237B6109E0BB685A1C35
:102FD000BA601B781846FFF7A5FA7B6901337B615D
:102FE0007A697B689A42F1DB7B6818461837BD46E0
:102FF00080BD80B483B000AF78604FF0FF331846D7
:103000000C37BD4680BC704780B483B000AF786099
:1030100039603B684FF400525A60002318460C3761
:10302000BD4680BC704780B483B000AF7860012398
:1030300018460C37BD4680BC704780B485B000AFE1
:10304000F860B9607A60002318461437BD4680BC2A
:103050007047000080B400AF034B4FF000629A60ED
:1030600000BFBD4680BC704700ED00E080B58AB06F
:1030700000AF07F1140300221A605A609A60DA6008
:103080001A61404BDB693F4A43F00103D3613D4B7A
:10309000DB6903F001033B613B693A4BDB69394A69
:1030A00043F00203D361374BDB6903F00203FB609B
:1030B000FB68344BDB69334A43F00403D361314B83
:1030C000DB6903F00403BB60BB682E4BDB692D4A50
:1030D00043F00803D3612B4BDB6903F008037B60EB
:1030E0007B6800220121284802F0A5F80022042173
:1030F000254802F0A0F800220221234802F09BF8A4
:1031000000220821204802F096F801237B61012368
:10311000BB610023FB6102233B6207F114031946E4
:10312000194801F0E3FE04237B610123BB61002306
:10313000FB6102233B6207F114031946124801F0B8
:10314000D5FE02237B610123BB610023FB610223C7
:103150003B6207F1140319460B4801F0C7FE082330
:103160007B610123BB610023FB6102233B6207F10A
:1031700014031946044801F0B9FE00BF2837BD46C4
:1031800080BD00BF003802400008024080B500AF9B
:10319000FEF7E4FE642000F0D1FDFFF767FF012297
:1031A0000821704802F047F8642000F0C7FD00F0E5
:1031B0003DFA642000F0C2FDF72000F0EDF8A920F0
:1031C00000F010F9512000F00DF92C2000F00AF960
:1031D000822000F007F9C02000F0DEF8112000F096
:1031E00001F9092000F0FEF8C12000F0D5F84120D7
:1031F00000F0F8F8C52000F0CFF8002000F0F2F859
:103200000A2000F0EFF8802000F0ECF8B12000F088
:10321000C3F8B02000F0E6F8112000F0E3F8B42085
:1032200000F0BAF8022000F0DDF8B62000F0B4F8A3
:10323000022000F0D7F8422000F0D4F8B72000F0C8
:10324000ABF8C62000F0CEF8BE2000F0A5F80020B4
:1032500000F0C8F8042000F0C5F8E92000F09CF860
:10326000002000F0BFF8362000F096F8682000F04B
:10327000B9F83A2000F090F8662000F0B3F8E020AA
:1032800000F08AF8002000F0ADF8072000F0AAF85E
:10329000102000F0A7F8092000F0A4F8172000F093
:1032A000A1F80B2000F09EF8412000F09BF8892047
:1032B00000F098F84B2000F095F80A2000F092F802
:1032C0000C2000F08FF80E2000F08CF8182000F091
:1032D00089F81B2000F086F80F2000F083F8E12029
:1032E00000F05AF8002000F07DF8172000F07AF87E
:1032F0001A2000F077F8042000F074F80E2000F097
:1033000071F8062000F06EF82F2000F06BF84520D1
:1033100000F068F8432000F065F8022000F062F841
:103320000A2000F05FF8092000F05CF8322000F07D
:1033300059F8362000F056F80F2000F053F811200D
:1033400000F02AF8782000F0F9FC292000F024F899
:10335000002000F0D5F94FF6FF7000F0F7F800BF3D
:1033600080BD00BF0008024080B483B000AF0346B8
:10337000FB7100BF074B1B689B6803F00203002B27
:10338000F8D0044B1B68FA79DA6000BF0C37BD46F1
:1033900080BC7047A83B002080B582B000AF0346D8
:1033A000FB71002204210D4801F045FF002201219C
:1033B0000A4801F040FFFB791846FFF7D5FFF91DD9
:1033C0000A230122064804F05EFA01220421034880
:1033D00001F031FF00BF0837BD4680BD0008024044
:1033E000A83B002080B582B000AF0346FB710022ED
:1033F00004210A4801F01FFF01220121074801F0C2
:103400001AFFFB791846FFF7AFFF0122042103489A
:1034100001F011FF00BF0837BD4680BD0008024023
:1034200080B582B000AF03460A46FB711346BB80ED
:10343000FB791846FFF7B0FFBB88DBB21846FFF7F1
:10344000D1FF00BF0837BD4680BD000080B500AF8A
:10345000034B1B89DBB21846FFF79EFF00BF80BD00
:10346000203F002080B584B000AF0346FB80FB887E
:103470001B0A9BB2DBB223F00703FB73FB88DB085C
:103480009BB2DBB223F00303BB73FB88DBB2DB0030
:103490007B73002204211E4801F0CDFE0122012190
:1034A0001B4801F0C8FE00BF1A4B1B689B6803F065
:1034B0000203002BF8D0174B1B68FA7BDA6000BFC1
:1034C000144B1B689B6803F00203002BF8D0114BD0
:1034D0001B68BA7BDA6000BF0E4B1B689B6803F069
:1034E0000203002BF8D00B4B1B687A7BDA6000BF1D
:1034F000084B1B689B6803F00203002BF8D00122E5
:103500000421034801F097FE00BF1037BD4680BD7F
:1035100000080240A83B002080B582B000AF0346FF
:103520000A46FB801346BB80BA88FB8811461846C2
:1035300000F03EF9044B1B881846FFF793FF00BFCD
:103540000837BD4680BD00BF2C03002080B584B085
:1035500000AF0346FB80324B1B88013B9AB2304BD5
:103560005B88013B9BB20021002000F075F800222F
:1035700004212C4801F05FFE01220121294801F0BD
:103580005AFE274B5B881A46254B1B8803FB02F328
:10359000FB60FB881B0A9BB2DBB223F00703FB72C4
:1035A000FB88DB089BB2DBB223F00303BB72FB8812
:1035B000DBB2DB007B7226E000BF1B4B1B689B6805
:1035C00003F00203002BF8D0174B1B68FA7ADA607D
:1035D00000BF154B1B689B6803F00203002BF8D05B
:1035E000114B1B68BA7ADA6000BF0F4B1B689B68EF
:1035F00003F00203002BF8D00B4B1B687A7ADA60D9
:10360000FB68013BFB60FB68002BD5D10122042144
:10361000044801F010FE00BF1037BD4680BD00BF5A
:10362000203F002000080240A83B002080B500AFEA
:1036300000220221074801F0FEFD642000F07EFB1D
:1036400001220221034801F0F6FD322000F076FB52
:1036500000BF80BD0008024090B583B000AF0446B3
:10366000084611461A462346FB800346BB800B469C
:103670007B8013463B80214B5B89DBB21846FFF70A
:103680008BFEFB881B0A9BB2DBB21846FFF7AAFE33
:10369000FB88DBB21846FFF7A5FE7B881B0A9BB2AE
:1036A000DBB21846FFF79EFE7B88DBB21846FFF7B9
:1036B00099FE124B9B89DBB21846FFF76DFEBB8863
:1036C0001B0A9BB2DBB21846FFF78CFEBB88DBB24D
:1036D0001846FFF787FE3B881B0A9BB2DBB21846F1
:1036E000FFF780FE3B88DBB21846FFF77BFEFFF753
:1036F000ADFE00BF0C37BD4690BD00BF203F00208F
:1037000080B582B000AF0346FB71284B2A225A8154
:10371000264B2B229A81254B2C221A81FB79032BD5
:103720003ED801A252F823F0393700085337000879
:103730006D370008873700081C4B4FF4A0721A80C1
:103740001A4B4FF4F0725A8008213620FFF768FEBA
:1037500027E0164B4FF4F0721A80144B4FF4A0720E
:103760005A8068213620FFF75BFE1AE00F4B4FF4BA
:10377000A0721A800D4B4FF4F0725A80C821362087
:10378000FFF74EFE0DE0094B4FF4F0721A80074B25
:103790004FF4A0725A80A8213620FFF741FE00E0C6
:1037A00000BF00BF0837BD4680BD00BF203F0020DE
:1037B00080B582B000AF03460A46FB801346BB804B
:1037C000BB88FA88B988F888FFF746FF00BF08373A
:1037D000BD4680BD80B483B000AF78600B467B806F
:1037E00013463B80154A7B681360154A7B8813801B
:1037F000144A3B881380114B1B681A78124B1A70BD
:103800000E4B1B685A78114B1A700C4B1B689A7838
:103810000F4B1A70094B1B68DA780E4B1A70074B66
:103820001B681A790C4B1A70044B1B685A790B4BA6
:103830001A7000BF0C37BD4680BC7047D4390020D9
:103840002C03002004000020E3390020D839002098
:10385000E2390020E1390020E0390020E43900207D
:1038600080B483B000AF03460A46FB801346BB809A
:10387000FB88054A1360BB88044A136000BF0C37FD
:10388000BD4680BC704700BFDC390020E83900200D
:1038900090B589B000AF0446084611461A46234643
:1038A000FB800346BB800B46FB701346BB70744B1A
:1038B0001B78FA789A42C0F07B81724B1B78FA78B9
:1038C0009A4200F275816E4B1B78FA78D31AFB701E
:1038D0006D4B1B781A466D4B1B6813446C4A12885B
:1038E000934218D9694B00221A606A4B1B781A461A
:1038F000694B1B681344684A1360654B5B881A4622
:10390000644B1B78D31A1A46634B1B689A4202D841
:10391000614B00221A60614B1A68FB786049097894
:1039200001FB03F3063313447B617B691B78FB7453
:10393000BB78012B50D10023FB773CE00023BB7701
:1039400031E0584B1B781A46BB7F03FB02F3FA7F2A
:10395000D208D2B2134401337A6913441B78BB7482
:10396000FB7F03F00703012202FA03F3FB60BA7C3A
:10397000FB681340002B13D04B4AFB881380BB7F9E
:103980009AB2424B1B689BB2134498B2FB7F9AB227
:10399000414B1B689BB213449BB21946FFF7BCFD19
:1039A000BB7F0133BB77384B1B78BA7F9A42C8D3B1
:1039B000FB7F0133FB77374B1B78FA7F9A42BDD3ED
:1039C000334B1B88013B9AB2314B5B88013B9BB266
:1039D00000210020FFF740FEBB78002B40F0D18093
:1039E0002A4B1B6898B22C4B1B6899B2264B1B784C
:1039F0009AB2264B1B689BB213449BB2013B9CB20C
:103A0000244B1B789AB2244B1B689BB213449BB285
:103A10002246FFF721FE0023BB76A0E000237B7641
:103A200094E0204B1B781A467B7E03FB02F3BA7EA0
:103A3000D208D2B2134401337A6913441B78BB74A1
:103A4000BB7E03F00703012202FA03F3FB60BA7C9A
:103A5000FB681340002B29D1BB881B0A9BB2DBB249
:103A600023F007037B77BB88DB089BB2DBB223F034
:103A700003033B77BB88DBB2DB00FB7628E000BFAB
:103A8000E3390020D8390020E1390020DC3900205A
:103A9000203F0020E0390020E8390020D439002000
:103AA000E2390020E43900202C030020FB881B0AA7
:103AB0009BB2DBB223F007037B77FB88DB089BB26A
:103AC000DBB223F003033B77FB88DBB2DB00FB7642
:103AD00000220421384801F0AEFB012201213648C2
:103AE00001F0A9FB00BF354B1B689B6803F0020384
:103AF000002BF8D0314B1B687A7FDA6000BF2F4B68
:103B00001B689B6803F00203002BF8D02B4B1B684B
:103B10003A7FDA6000BF294B1B689B6803F0020301
:103B2000002BF8D0254B1B68FA7EDA6000BF234BD0
:103B30001B689B6803F00203002BF8D001220421CC
:103B40001D4801F078FB7B7E01337B761C4B1B7894
:103B50007A7E9A42FFF465AFBB7E0133BB76194B88
:103B60001B78BA7E9A42FFF459AF174B1B88013B72
:103B70009AB2154B5B88013B9BB200210020FFF7F6
:103B80006BFDFB7C02330E4A1278934207DAFA7C13
:103B90000E4B1B68134402330C4A136009E0084BB8
:103BA0001B781A46094B1B681344084A136000E04F
:103BB00000BF2437BD4690BD00080240A83B00204E
:103BC000E1390020E0390020203F0020DC390020CE
:103BD00080B586B000AFBA607B600346FB810B46C0
:103BE000BB81FB89FB82BA8C3B8C19467868FFF756
:103BF000F1FDBA89FB8911461846FFF731FE30E026
:103C0000FA891C4B1B8819461B4B1B785B08DBB2DF
:103C1000CB1A9A422ADCBA89164B5B881946174B95
:103C20001B78CB1A9A4221DCBB681B780D2B0BD179
:103C3000124B1B789AB2BB891344BB81FB8AFB8170
:103C4000BB680133BB6009E00D4B18880D4B198828
:103C5000BB681A7897F82830FFF71AFEBB68013363
:103C6000BB60BB681B78002BCAD100E000BF1837CF
:103C7000BD4680BD203F0020E1390020E039002012
:103C80002C03002004000020002103E00B4B5B58B4
:103C9000435004310A480B4B42189A42F6D30A4A61
:103CA00002E0002342F8043B084B9A42F9D3FFF7A5
:103CB000D1F90DF017FAFEF76BFE7047C8960108B0
:103CC0000000002010030020100300206C4B002097
:103CD000FEE780B582B000AF0023FB71032000F047
:103CE00081FE0020FFF770F80346002B02D001236D
:103CF000FB7101E0FFF73AF8FB7918460837BD463B
:103D000080BD000080B400AF054B1A68054B1B68EE
:103D10001344034A136000BFBD4680BC704700BF18
:103D2000303F00200C00002080B400AF024B1B6825
:103D30001846BD4680BC7047303F002080B584B037
:103D400000AF7860FFF7F0FFB8607B68FB60FB684E
:103D5000B3F1FF3F04D0094B1B68FA681344FB60C2
:103D600000BFFFF7E1FF0246BB68D31AFA689A4228
:103D7000F7D800BF1037BD4680BD00BF0C00002043
:103D800080B58EB000AF7860002387F8373000230D
:103D90003B630023FB627B68002B01D1012327E1F9
:103DA0007B681B69002B7B68DB6C002B15D17B6863
:103DB00000221A657B68002283F848208E4B1B6A1C
:103DC0008D4A43F0010313628B4B1B6A03F001031E
:103DD000BB60BB687868FDF7BBF87B68DB6C03F001
:103DE0001003002B40F0FF807B68DB6C23F48853CA
:103DF00023F0020343F002027B68DA647F4B5B68C6
:103E000023F440327B685B687C4913434B607B68DA
:103E1000DA687B685B691A437B6893F83C30194623
:103E20004FF400733B623B6A93FAA3F3FB61FB69B7
:103E3000B3FA83F3DBB201FA03F31A437B681B6A1C
:103E40001A437B6893F8243019460223BB62BB6A8D
:103E500093FAA3F37B627B6AB3FA83F3DBB201FAD2
:103E600003F31343FA6A1343FB627B685B6B102B0B
:103E700007D07B685A6B7B689B6B1343FA6A1343CA
:103E8000FB627B681B681B6803F04003402B4FD02C
:103E90007B689B69FA6A1343FB627B689A687B685C
:103EA000DB6913437A681269B2F5807F03D07A68C0
:103EB0001269012A02D14FF4807200E000221343FC
:103EC0003A6B13433B637B6893F82C30012B25D16D
:103ED0007B6893F82430002B14D17B681B6B013B6B
:103EE0004FF46042BA61BA6992FAA2F27A617A69D1
:103EF000B2FA82F2D2B2934043F400633A6B1343B6
:103F00003B630BE07B68DB6C43F020027B68DA6488
:103F10007B681B6D43F001027B681A657B681B6838
:103F20005A68374B13407A681268396B0B435360F9
:103F30007B681B689A68334B13407A681268F96A89
:103F40000B4393607B681B69B3F5807F03D07B686C
:103F50001B69012B19D17B681B681B6B23F0F8715F
:103F60007B689B6A013B4FF0F8723A613A6992FABA
:103F7000A2F2FA60FA68B2FA82F2D2B203FA02F25C
:103F80007B681B680A431A6307E07B681B681A6B2F
:103F90007B681B6822F0F8721A637B681B689A685A
:103FA000194B1340FA6A9A420BD17B6800221A65BA
:103FB0007B68DB6C23F0030343F001027B68DA6467
:103FC00014E07B68DB6C23F0120343F010027B6883
:103FD000DA647B681B6D43F001027B681A6501237C
:103FE00087F8373002E0012387F8373097F8373009
:103FF00018463837BD4680BD0038024000270140D2
:10400000FF16FCFC89F1FFC0FEFF80BF80B584B0C5
:1040100000AF78600023FB737B6893F84830012B76
:1040200001D102234EE07B68012283F848207868A2
:1040300000F094FB0346FB73FB7B002B41D17B68B4
:10404000DB6C23F4E06323F0010343F480727B68AC
:10405000DA647B681B685B6803F48063002B07D01D
:104060007B68DB6C23F4405343F480527B68DA6452
:104070007B68DB6C03F48053B3F5805F06D17B680B
:104080001B6D23F006027B681A6502E07B68002244
:104090001A657B68002283F848207B681B686FF0F4
:1040A00022021A607B681B689B6803F04053002B58
:1040B00007D17B681B689A687B681B6842F0804266
:1040C0009A60FB7B18461037BD4680BD80B584B032
:1040D00000AF78600023FB737B6893F84830012BB6
:1040E00001D102231AE07B68012283F84820786816
:1040F00000F08AFB0346FB73FB7B002B09D17B6836
:10410000DB6C23F4885323F0010343F001027B6846
:10411000DA647B68002283F84820FB7B184610375E
:10412000BD4680BD80B584B000AF786039600023A3
:10413000FB607B681B689B6803F48063B3F5806F4A
:1041400013D17B681B689B6803F48073B3F5807F91
:104150000BD17B68DB6C43F020027B68DA647B6800
:10416000002283F84820012361E0FFF7DDFDF860BD
:104170001AE03B68B3F1FF3F16D03B68002B07D035
:10418000FFF7D2FD0246FB68D31A3A689A420BD277
:104190007B68DB6C43F004027B68DA647B68002296
:1041A00083F84820032342E07B681B681B6803F008
:1041B0000203002BDDD07B689B69002B04D17B6858
:1041C0001B686FF012021A607B68DB6C43F40072AC
:1041D0007B68DA647B681B689B6803F04053002BA4
:1041E00024D17B6893F82430002B1FD17B681B6897
:1041F0001B6B03F0F873002B06D07B681B689B6871
:1042000003F48063002B11D17B68DB6C23F4807294
:104210007B68DA647B68DB6C03F48053002B05D188
:104220007B68DB6C43F001027B68DA64002318468C
:104230001037BD4680BD80B483B000AF78607B6826
:104240001B689B6D18460C37BD4680BC704780B517
:1042500082B000AF78607B681B685B6803F0200366
:10426000202B4ED17B681B681B6803F00203022BD6
:1042700047D17B68DB6C03F01003002B05D17B6812
:10428000DB6C43F400727B68DA647B681B689B68B4
:1042900003F04053002B2CD17B6893F82430002B83
:1042A00027D17B681B681B6B03F0F873002B06D0CB
:1042B0007B681B689B6803F48063002B19D17B68C3
:1042C0001B685A687B681B6822F020025A607B6872
:1042D000DB6C23F480727B68DA647B68DB6C03F44C
:1042E0008053002B05D17B68DB6C43F001027B68B7
:1042F000DA64786800F0ABF87B681B686FF0120234
:104300001A607B681B685B6803F08003802B5CD1BC
:104310007B681B681B6803F00403042B55D17B6882
:10432000DB6C03F01003002B05D17B68DB6C43F4DE
:1043300000527B68DA647B681B689B6803F4401357
:10434000002B3AD17B681B685B6C03F44013002B95
:1043500006D07B681B689B6803F48063002B2CD11C
:104360007B681B685B6803F48063002B25D17B6846
:104370001B689B6803F04053002B1ED17B6893F8A9
:104380002430002B19D17B681B685A687B681B6836
:1043900022F080025A607B68DB6C23F480527B68D9
:1043A000DA647B68DB6C03F48073002B05D17B68D7
:1043B000DB6C43F001027B68DA64786800F05EFA37
:1043C0007B681B686FF00C021A607B681B685B6877
:1043D00003F04003402B14D17B681B681B6803F07B
:1043E0000103012B0DD17B68DB6C43F480327B68C9
:1043F000DA64786800F034F87B681B686FF00102BB
:104400001A607B681B685B6803F08063B3F1806FA0
:1044100019D17B681B681B6803F02003202B12D185
:104420007B681B6D43F002027B681A657B681B6822
:104430006FF020021A60786800F01BF87B681B6838
:104440006FF020021A6000BF0837BD4680BD80B4FF
:1044500083B000AF786000BF0C37BD4680BC7047AA
:1044600080B483B000AF786000BF0C37BD4680BC1D
:10447000704780B483B000AF786000BF0C37BD4692
:1044800080BC704780B485B000AF7860396000238D
:10449000FB730023BB607B6893F84830012B01D18C
:1044A00002234FE17B68012283F848203B685B6868
:1044B000062B1CD87B681B68196C3B685A6813462E
:1044C0009B001344053B1F2202FA03F3DB43194010
:1044D0003B6818683B685A6813469B001344053BC9
:1044E00000FA03F27B681B680A431A647EE03B68AB
:1044F0005B680C2B1CD87B681B68D96B3B685A68BF
:1045000013469B001344233B1F2202FA03F3DB43B1
:1045100019403B6818683B685A6813469B0013446F
:10452000233B00FA03F27B681B680A43DA635DE011
:104530003B685B68122B1CD87B681B68996B3B68D7
:104540005A6813469B001344413B1F2202FA03F3AF
:10455000DB4319403B6818683B685A6813469B0068
:104560001344413B00FA03F27B681B680A439A63D9
:104570003CE03B685B68182B1CD87B681B68596B58
:104580003B685A6813469B0013445F3B1F2202FAA4
:1045900003F3DB4319403B6818683B685A681346CD
:1045A0009B0013445F3B00FA03F27B681B680A43DD
:1045B0005A631BE07B681B68196B3B685A6813469B
:1045C0009B0013447D3B1F2202FA03F3DB43194097
:1045D0003B6818683B685A6813469B0013447D3B50
:1045E00000FA03F27B681B680A431A633B681B6886
:1045F000092B1AD87B681B6859693B681A681346EF
:104600005B001344072202FA03F3DB4319403B68C3
:1046100098683B681A6813465B00134400FA03F27B
:104620007B681B680A435A615DE03B681B68132B7B
:104630001CD87B681B6819693B681A6813465B00C5
:1046400013441E3B072202FA03F3DB4319403B6885
:1046500098683B681A6813465B0013441E3B00FAD7
:1046600003F27B681B680A431A613CE03B681B68E5
:104670001D2B1CD87B681B68D9683B681A681346D9
:104680005B0013443C3B072202FA03F3DB4319406F
:104690003B6898683B681A6813465B0013443C3BD0
:1046A00000FA03F27B681B680A43DA601BE07B6850
:1046B0001B68D96D3B681A6813465B0013445A3B6C
:1046C000072202FA03F3DB4319403B6898683B6812
:1046D0001A6813465B0013445A3B00FA03F27B68E6
:1046E0001B680A43DA653B681B68102B03D03B68E4
:1046F0001B68112B21D1164B5B6803F40003002BC0
:104700001BD1134B5B68124A43F4000353603B68B0
:104710001B68102B11D10F4B1B680F4AA2FB032300
:104720009A0C13469B0013445B00BB6002E0BB681D
:10473000013BBB60BB68002BF9D17B68002283F88A
:104740004820FB7B18461437BD4680BC704700BF2D
:10475000002701400000002083DE1B4380B584B0A9
:1047600000AF78600023FB600023BB607B681B68A0
:104770001B6803F04003402B3CD07B681B689A68A1
:104780007B681B6842F001029A601D4B1B681D4A42
:10479000A2FB03239A0C13465B001344BB6002E0A8
:1047A000BB68013BBB60BB68002BF9D1FFF7BCFACB
:1047B000F86018E0FFF7B8FA0246FB68D31A022B3C
:1047C00011D97B68DB6C43F010027B68DA647B688C
:1047D0001B6D43F001027B681A657B68002283F839
:1047E0004820012307E07B681B681B6803F0400337
:1047F000402BDFD1002318461037BD4680BD00BFD7
:104800000000002083DE1B4380B584B000AF7860D9
:104810000023FB607B681B681B6803F04003402B90
:1048200027D17B681B689A687B681B6822F00102AD
:104830009A60FFF779FAF86014E0FFF775FA02461C
:10484000FB68D31A022B0DD97B68DB6C43F0100296
:104850007B68DA647B681B6D43F001027B681A6534
:10486000012307E07B681B681B6803F04003402BB3
:10487000E3D0002318461037BD4680BD80B483B016
:1048800000AF786000BF0C37BD4680BC70470000A9
:1048900080B485B000AF78607B6803F00703FB60ED
:1048A0000C4BDB68BB60BA684FF6FF031340BB607C
:1048B000FB681A02BB68134343F0BF6343F4003341
:1048C000BB60044ABB68D36000BF1437BD4680BCE0
:1048D000704700BF00ED00E080B400AF044BDB6820
:1048E0001B0A03F007031846BD4680BC704700BF93
:1048F00000ED00E080B483B000AF0346FB7197F990
:104900000730002B0BDBFB7903F01F02064997F9F8
:1049100007305B09012000FA02F241F8232000BFB2
:104920000C37BD4680BC704700E100E080B483B026
:1049300000AF03463960FB7197F90730002B0ADBA3
:104940003B68DAB20C4997F907301201D2B20B4436
:1049500083F800230AE03B68DAB20849FB7903F0E8
:104960000F03043B1201D2B20B441A7600BF0C377E
:10497000BD4680BC704700BF00E100E000ED00E0F4
:1049800080B489B000AFF860B9607A60FB6803F06A
:104990000703FB61FB69C3F10703042B28BF042352
:1049A000BB61FB690433062B02D9FB69033B00E0C2
:1049B00000237B614FF0FF32BB6902FA03F3DA4355
:1049C000BB681A407B699A404FF0FF317B6901FA5E
:1049D00003F3D9437B680B40134318462437BD4685
:1049E00080BC704780B582B000AF78607868FFF710
:1049F0004FFF00BF0837BD4680BD80B586B000AF11
:104A00000346B9607A60FB7300237B61FFF764FFA4
:104A100078617A68B9687869FFF7B2FF024697F95A
:104A20000F3011461846FFF781FF00BF1837BD460B
:104A300080BD80B582B000AF0346FB7197F90730A7
:104A40001846FFF757FF00BF0837BD4680BD80B549
:104A500082B000AF78607B68002B01D1012314E0A5
:104A60007B681B79DBB2002B05D17B6800225A7171
:104A70007868FCF79FFD7B6802221A717B68002230
:104A80001A617B6801221A71002318460837BD4657
:104A900080BD80B483B000AF786039607B685B799B
:104AA000012B01D102233EE07B6801225A717B6811
:104AB00002221A717B681B6819683B6803F01003B7
:104AC00001229A407B681B680A431A603B68002BEE
:104AD0000FD17B681B681B6803F03C033C2B1BD188
:104AE0007B681B685A687B681B6842F001025A6049
:104AF00012E07B681B681B6803F470123C213B6862
:104B000001FA03F39A4207D17B681B685A687B68F5
:104B10001B6842F002025A607B6801221A717B68AE
:104B200000225A71002318460C37BD4680BC7047DE
:104B300080B487B000AFF860B9607A603B60002352
:104B40007B61FB681B687B61BB68002B05D17A69C0
:104B50007B68134408337B6104E07A697B68134403
:104B600014337B617B691A463B6813600023184647
:104B70001C37BD4680BC704780B487B000AFF8607A
:104B8000B9607A60FB685B79012B01D1022344E0B4
:104B9000FB6801225A71FB6802221A71FB681B68CC
:104BA0001B687B6140F6FE727B6802FA03F3DB430D
:104BB0007A6913407B61BB681A68BB685B68134302
:104BC0003B613A697B6802FA03F37A6913437B61BC
:104BD000FB681B687A691A60FB681B681968C02249
:104BE0007B6802FA03F3DA43FB681B680A401A6029
:104BF000FB681B6819687B6803F01003C02202FA87
:104C000003F3DA43FB681B680A401A60FB68012261
:104C10001A71FB6800225A71002318461C37BD46E2
:104C200080BC704780B485B000AF78607B68002B93
:104C300001D1012359E07B681B681A462D4B9A422B
:104C40000FD87B681B681A462B4B13442B4AA2FBD8
:104C500003231B099A007B681A647B68284ADA637D
:104C60000EE07B681B681A46264B1344234AA2FBBE
:104C700003231B099A007B681A647B68224ADA6363
:104C80007B68022283F821207B681B681B68FB601D
:104C9000FB6823F4FF4323F07003FB607B685A68D2
:104CA0007B689B681A437B68DB681A437B681B69D7
:104CB0001A437B685B691A437B689B691A437B686C
:104CC000DB691343FA681343FB607B681B68FA686F
:104CD0001A607B6800229A637B68012283F8212096
:104CE0007B68002283F82020002318461437BD4635
:104CF00080BC704707640240F89FFDBFCDCCCCCC90
:104D000000600240F89BFDBF0064024080B584B0A3
:104D100000AF78600023FB737B6893F82130DBB22F
:104D2000022B05D07B6804229A630123FB7329E0E0
:104D30007B681B681A687B681B6822F00E021A6089
:104D40007B681B681A687B681B6822F001021A6086
:104D50007B681B6C03F01C027B68DB6B012101FA92
:104D600002F25A607B68012283F821207B680022CE
:104D700083F820207B685B6B002B03D07B685B6B28
:104D800078689847FB7B18461037BD4680BD80B5D4
:104D900084B000AF78607B68DB6B1B68FB607B686E
:104DA0001B681B68BB607B681B6C03F01C03042240
:104DB0009A40FB681340002B26D0BB6803F0040325
:104DC000002B21D07B681B681B6803F02003002B9D
:104DD00007D17B681B681A687B681B6822F0040295
:104DE0001A607B681B6C03F01C027B68DB6B042180
:104DF00001FA02F25A607B68DB6A002B71D07B6893
:104E0000DB6A786898476CE07B681B6C03F01C03D6
:104E100002229A40FB681340002B2ED0BB6803F09F
:104E20000203002B29D07B681B681B6803F020035A
:104E3000002B0BD17B681B681A687B681B6822F00B
:104E40000A021A607B68012283F821207B681B6CB0
:104E500003F01C027B68DB6B022101FA02F25A604C
:104E60007B68002283F820207B689B6A002B38D067
:104E70007B689B6A7868984733E07B681B6C03F01B
:104E80001C0308229A40FB681340002B2AD0BB6801
:104E900003F00803002B25D07B681B681A687B6829
:104EA0001B6822F00E021A607B681B6C03F01C0268
:104EB0007B68DB6B012101FA02F25A607B680122F8
:104EC0009A637B68012283F821207B68002283F8A3
:104ED00020207B681B6B002B04D07B681B6B7868E1
:104EE000984700BF00BF1037BD4680BD80B487B073
:104EF00000AF7860396000237B610023FB600023F2
:104F00003B6160E13B681A6801217B6901FA03F3A8
:104F10001340FB60FB68002B00F052813B685B682C
:104F2000012B0BD03B685B68022B07D03B685B68AA
:104F3000112B03D03B685B68122B30D17B689B68D8
:104F40003B617B695B00032202FA03F3DB433A69AE
:104F500013403B613B68DA687B695B0002FA03F34C
:104F60003A6913433B617B683A699A607B685B6886
:104F70003B6101227B6902FA03F3DB433A69134088
:104F80003B613B685B681B0903F001027B6902FA25
:104F900003F33A6913433B617B683A695A607B6863
:104FA000DB683B617B695B00032202FA03F3DB43AE
:104FB0003A6913403B613B689A687B695B0002FA7F
:104FC00003F33A6913433B617B683A69DA603B68F3
:104FD0005B68022B03D03B685B68122B23D17B6993
:104FE000DA087B68083253F822303B617B6903F0B2
:104FF00007039B000F2202FA03F3DB433A691340D5
:105000003B613B681A697B6903F007039B0002FA66
:1050100003F33A6913433B617B69DA087B68083222
:10502000396943F822107B681B683B617B695B0030
:10503000032202FA03F3DB433A6913403B613B6806
:105040005B6803F003027B695B0002FA03F33A69D1
:1050500013433B617B683A691A603B685B6803F005
:105060008053002B00F0AC805D4B1B6A5C4A43F020
:10507000010313625A4B1B6A03F00103BB60BB6858
:10508000584A7B699B08023352F823303B617B69A5
:1050900003F003039B000F2202FA03F3DB433A6998
:1050A00013403B617B68504A934225D07B684F4A4E
:1050B00093421FD07B684E4A934219D07B684D4A79
:1050C000934213D07B684C4A93420DD07B684B4A85
:1050D000934207D07B684A4A934201D106230CE0F1
:1050E00007230AE0052308E0042306E0032304E085
:1050F000022302E0012300E000237A6902F00302A8
:10510000920093403A6913433B6136497B699B089F
:1051100002333A6941F823203A4B1B683B61FB6834
:10512000DB433A6913403B613B685B6803F48033BF
:10513000002B03D03A69FB6813433B61314A3B695A
:105140001360304B5B683B61FB68DB433A6913409B
:105150003B613B685B6803F40033002B03D03A6982
:10516000FB6813433B61274A3B695360254B9B68AF
:105170003B61FB68DB433A6913403B613B685B681A
:1051800003F48013002B03D03A69FB6813433B619F
:105190001C4A3B6993601B4BDB683B61FB68DB434C
:1051A0003A6913403B613B685B6803F40013002BD2
:1051B00003D03A69FB6813433B61124A3B69D360F1
:1051C0007B6901337B613B681A687B6922FA03F3D0
:1051D000002B7FF497AE00BF1C37BD4680BC7047E4
:1051E000003802400000014000000240000402407C
:1051F00000080240000C024000100240001402406F
:10520000001802400004014080B485B000AF78600F
:105210000B467B807B681A697B881340002B02D089
:105220000123FB7301E00023FB73FB7B184614375B
:10523000BD4680BC704780B483B000AF78600B4639
:105240007B8013467B707B78002B03D07A887B6849
:105250009A6103E07B881A047B689A6100BF0C376F
:10526000BD4680BC704780B485B000AF78600B4607
:105270007B807B685B69FB607A88FB6813401A045B
:10528000FB68D9437B880B401A437B689A6100BF57
:105290001437BD4680BC704780B584B000AF7860DD
:1052A0007B68002B01D101231FE17B6893F83D301F
:1052B000DBB2002B06D17B68002283F83C207868A3
:1052C000FCF730FD7B68242283F83D207B681B6857
:1052D0001A687B681B6822F001021A607B681B68F1
:1052E0001A687B681B6842F400421A607B681B687E
:1052F0001A687B681B6822F400421A6002F082F987
:10530000F8607B685B687B4A934207D8FB687A4AFF
:10531000934294BF01230023DBB206E0FB68774A87
:10532000934294BF01230023DBB2002B01D0012361
:10533000DBE0FB68724AA2FB03239B0CBB607B682B
:105340001B685B6823F03F017B681B68BA680A43EF
:105350005A607B681B681B6A23F03F017B685B68AF
:10536000644A934202D8BB68013309E0BB684FF43A
:10537000967202FB03F3634AA2FB03239B090133EA
:105380007A6812680B4313627B681B68DB6923F43D
:105390004F4222F0FF027B685B6856498B420DD872
:1053A000FB68591E7B685B685B00B1FBF3F301335C
:1053B000C3F30B03042B38BF04234FE07B689B68C7
:1053C000002B11D1FB68581E7B6859680B465B00A7
:1053D0000B44B0FBF3F30133C3F30B03002B0CBFFF
:1053E00001230023DBB212E0FB68581E7B6859687A
:1053F0000B469B000B4499000B44B0FBF3F30133C5
:10540000C3F30B03002B0CBF01230023DBB2002BE3
:1054100001D0012322E07B689B68002B0ED1FB6842
:10542000581E7B6859680B465B000B44B0FBF3F3D6
:105430000133C3F30B0343F400430FE0FB68581E32
:105440007B6859680B469B000B4499000B44B0FBEA
:10545000F3F30133C3F30B0343F440437968096862
:105460001343CB617B681B681B6823F0C0017B681A
:10547000DA697B681B6A1A437B681B680A431A60F7
:105480007B681B689B6823F4034323F0FF037A685F
:1054900011697A68D26811437A6812680B43936085
:1054A0007B681B68DB6823F0FF017B685A697B68B7
:1054B0009B691A437B681B680A43DA607B681B6838
:1054C0001A687B681B6842F001021A607B68002240
:1054D0001A647B68202283F83D207B6800221A63CF
:1054E0007B68002283F83E20002318461037BD4613
:1054F00080BD00BFA08601007F841E00FF083D0024
:1055000083DE1B43D34D6210F0B58BB006AF7860DD
:105510007B68002B01D10123D0E07B6893F8A9328E
:10552000DBB2002B06D17B68002283F8A8227868C2
:105530000BF022FB7B68032283F8A9227B681B689F
:10554000184603F0D3FF0023FB734CE0FB7B796824
:105550005A1C13469B001344DB000B440133012209
:105560001A70FB7B79685A1C13469B001344DB00BE
:105570000B44FA7B1A70FA7BFB7B98B2796813466E
:105580009B001344DB000B44363302461A80FB7B3E
:1055900079685A1C13469B001344DB000B44033309
:1055A00000221A70FA7B796813469B001344DB00D3
:1055B0000B44383300221A60FA7B796813469B004B
:1055C0001344DB000B443C3300221A60FA7B7968F9
:1055D00013469B001344DB000B44403300221A6047
:1055E000FB7B0133FB73FA7B7B685B689A42ADD32C
:1055F0000023FB7344E0FA7B796813469B00134455
:10560000DB000B4403F2691300221A70FA7B7968FD
:1056100013469B001344DB000B4403F5B473FA7B81
:105620001A70FA7B796813469B001344DB000B4425
:1056300003F26B1300221A70FA7B796813469B0001
:105640001344DB000B4403F5BC7300221A60FA7BA1
:10565000796813469B001344DB000B4403F5BE73CB
:1056600000221A60FA7B796813469B001344DB0022
:105670000B4403F5C07300221A60FB7B0133FB73FC
:10568000FA7B7B685B689A42B5D37B681B683B609A
:105690007E686D4606F110040FCC0FC523682B60A1
:1056A000331D0ECB386803F03BFF7B68002283F884
:1056B00024207B68012283F8A9220023184614378E
:1056C000BD46F0BD80B582B000AF78607B6893F8CE
:1056D000A832012B01D1022316E07B68012283F856
:1056E000A8227B681B68184603F0EAFE012178684F
:1056F00001F00EFA7B681B68184605F0C6FE7B6851
:10570000002283F8A822002318460837BD4680BD32
:1057100080B582B000AF78607B681B68184605F0E2
:10572000BEFE034603F40043B3F5004F02D1786890
:1057300000F00FFB7B681B68184605F0B0FE0346BF
:1057400003F48063B3F5806F12D17B681B68B3F8F4
:1057500044309AB27B681B6822F4806292B2A3F84C
:10576000442078680BF083FA0021786800F0C7F8CD
:105770007B681B68184605F092FE034603F48043DD
:10578000B3F5804F0BD17B681B68B3F844309AB2F5
:105790007B681B6822F4804292B2A3F844207B68A5
:1057A0001B68184605F07BFE034603F40053B3F56F
:1057B000005F0BD17B681B68B3F844309AB27B68FA
:1057C0001B6822F4005292B2A3F844207B681B6845
:1057D000184605F064FE034603F48053B3F5805F7A
:1057E00026D17B681B68B3F840309AB27B681B688F
:1057F00022F0040292B2A3F840207B681B68B3F841
:1058000040309AB27B681B6822F0080292B2A3F87B
:10581000402078680BF064FA7B681B68B3F844306A
:105820009AB27B681B6822F4805292B2A3F844209B
:105830007B681B68184605F032FE034603F40063DC
:10584000B3F5006F26D17B681B68B3F840309AB27D
:105850007B681B6842F0080292B2A3F840207B6884
:105860001B68B3F844309AB27B681B6822F400626C
:1058700092B2A3F844207B681B68B3F840309AB218
:105880007B681B6842F0040292B2A3F8402078685B
:105890000BF00CFA7B681B68184605F000FE034607
:1058A00003F40073B3F5007F0ED17B681B68B3F877
:1058B00044309AB27B681B6822F4007292B2A3F85B
:1058C000442078680BF0C5F97B681B68184605F022
:1058D000E6FD034603F48073B3F5807F0BD17B684C
:1058E0001B68B3F844309AB27B681B6822F480725C
:1058F00092B2A3F8442000BF0837BD4680BD80B5F2
:1059000082B000AF78600B46FB707B6893F8A832DA
:10591000012B01D1022313E07B68012283F8A82226
:105920007B68FA7883F824207B681B68FA78114634
:10593000184605F097FD7B68002283F8A822002313
:1059400018460837BD4680BD80B584B000AF78608A
:10595000084611461A460346FB700B463B80134629
:10596000BB700023FB7297F90330002B0EDAFB7833
:1059700003F007035A1C13469B001344DB007A68AC
:105980001344FB60FB6801225A700EE0FB7803F0C1
:10599000070213469B001344DB0003F5B4737A68D7
:1059A0001344FB60FB6800225A70FB7803F0070386
:1059B000DAB2FB681A703A88FB681A61FB68BA7839
:1059C000DA70FB685B78002B04D0FB681B789AB216
:1059D000FB68DA81BB78022B02D1FB6800221A71C6
:1059E0007B6893F8A832012B01D102230EE07B687B
:1059F000012283F8A8227B681B68F968184603F027
:105A0000AFFD7B68002283F8A822FB7A1846103786
:105A1000BD4680BD80B584B000AF78600B46FB709A
:105A200097F90330002B0EDAFB7803F007035A1CBA
:105A300013469B001344DB007A681344FB60FB6849
:105A400001225A700EE0FB7803F0070213469B0018
:105A50001344DB0003F5B4737A681344FB60FB68FE
:105A600000225A70FB7803F00703DAB2FB681A7061
:105A70007B6893F8A832012B01D102230EE07B68EA
:105A8000012283F8A8227B681B68F968184604F095
:105A9000D1F87B68002283F8A8220023184610372B
:105AA000BD4680BD80B586B000AFF8607A603B60CF
:105AB0000B46FB72FB7A03F0070213469B0013446C
:105AC000DB0003F5B473FA6813447B617B697A6881
:105AD0005A617B693A689A617B690022DA617B6965
