:020000040800F2
:100000000040012019480008F1390008FD390008B6
:10001000033A0008093A00080F3A000800000000FF
:100020000000000000000000000000004112010874
:10003000153A0008000000001114010859140108C5
:1000400061480008614800086148000861480008EC
:1000500061480008614800086148000861480008DC
:1000600061480008614800086148000861480008CC
:10007000614800086148000861480008213A00080A
:100080006148000861480008353A000861480008E6
:10009000493A0008614800086148000861480008C2
:1000A000614800086148000861480008614800088C
:1000B00061480008C13A0008D53A000861480008C4
:1000C000614800086148000861480008614800086C
:1000D000614800085D3A0008713A0008853A000856
:1000E000614800086148000861480008E93A0008D2
:1000F000FD3A00080000000061480008614800085F
:10010000993A0008AD3A00086148000861480008C3
:1001100061480008614800086148000800000000CC
:10012000614800080000000000000000000000001E
:0C01300000000000000000005FF808F173
:1001400010B5054C237833B9044B13B10448AFF311
:1001500000800123237010BD100300200000000068
:100160009866010808B5034B1BB103490348AFF378
:10017000008008BD000000001403002098660108FC
:10018000034613F8012B002AFBD1181A01387047D7
:1001900081F0004102E000BF83F0004330B54FEA38
:1001A00041044FEA430594EA050F08BF90EA020FA5
:1001B0001FBF54EA000C55EA020C7FEA645C7FEA38
:1001C000655C00F0E2804FEA5454D4EB5555B8BF5B
:1001D0006D420CDD2C4480EA020281EA030382EACC
:1001E000000083EA010180EA020281EA0303362D5E
:1001F00088BF30BD11F0004F4FEA01314FF4801C31
:100200004CEA113102D0404261EB410113F0004F42
:100210004FEA03334CEA133302D0524263EB4303F9
:1002200094EA050F00F0A780A4F10104D5F1200E97
:100230000DDB02FA0EFC22FA05F2801841F10001F2
:1002400003FA0EF2801843FA05F359410EE0A5F1C6
:1002500020050EF1200E012A03FA0EFC28BF4CF0F7
:10026000020C43FA05F3C01851EBE37101F00045AD
:1002700007D54FF0000EDCF1000C7EEB00006EEBBA
:100280000101B1F5801F1BD3B1F5001F0CD3490844
:100290005FEA30004FEA3C0C04F101044FEA44529B
:1002A00012F5800F80F09A80BCF1004F08BF5FEA22
:1002B000500C50F1000041EB045141EA050130BD02
:1002C0005FEA4C0C404141EB010111F4801FA4F1A5
:1002D0000104E9D191F0000F04BF01460020B1FAFA
:1002E00081F308BF2033A3F10B03B3F120020CDA32
:1002F0000C3208DD02F1140CC2F10C0201FA0CF010
:1003000021FA02F10CE002F11402D8BFC2F1200C74
:1003100001FA02F120FA0CFCDCBF41EA0C0190402A
:10032000E41AA2BF01EB0451294330BD6FEA040473
:100330001F3C1CDA0C340EDC04F11404C4F120025E
:1003400020FA04F001FA02F340EA030021FA04F370
:1003500045EA030130BDC4F10C04C4F1200220FAC7
:1003600002F001FA04F340EA0300294630BD21FA05
:1003700004F0294630BD94F0000F83F4801306BFCB
:1003800081F480110134013D4EE77FEA645C18BFBF
:100390007FEA655C29D094EA050F08BF90EA020F56
:1003A00005D054EA000C04BF1946104630BD91EA4E
:1003B000030F1EBF0021002030BD5FEA545C05D151
:1003C0004000494128BF41F0004130BD14F5800490
:1003D0003CBF01F5801130BD01F0004545F0FE4104
:1003E00041F470014FF0000030BD7FEA645C1ABF39
:1003F000194610467FEA655C1CBF0B46024650EA70
:10040000013406BF52EA033591EA030F41F400219B
:1004100030BD00BF90F0000F04BF0021704730B521
:100420004FF4806404F132044FF000054FF00001F6
:1004300050E700BF90F0000F04BF0021704730B5B7
:100440004FF4806404F1320410F0004548BF40428C
:100450004FF000013EE700BF42004FEAE2014FEAE1
:1004600031014FEA02701FBF12F07F4393F07F4FBC
:1004700081F06051704732F07F4208BF704793F0BF
:100480007F4F04BF41F40021704730B54FF46074D2
:1004900001F0004521F000411CE700BF50EA0102D5
:1004A00008BF704730B54FF000050AE050EA01027E
:1004B00008BF704730B511F0004502D5404261EBEE
:1004C00041014FF4806404F132045FEA915C3FF42F
:1004D000D8AE4FF003025FEADC0C18BF03325FEACC
:1004E000DC0C18BF033202EBDC02C2F1200300FA7D
:1004F00003FC20FA02F001FA03FE40EA0E0021FAA2
:1005000002F11444BDE600BF70B54FF0FF0C4CF48F
:10051000E06C1CEA11541DBF1CEA135594EA0C0F41
:1005200095EA0C0F00F0DEF82C4481EA030621EA7C
:100530004C5123EA4C5350EA013518BF52EA0335B7
:1005400041F4801143F4801338D0A0FB02CE4FF069
:100550000005E1FB02E506F00042E0FB03E54FF099
:100560000006E1FB03569CF0000F18BF4EF0010E91
:10057000A4F1FF04B6F5007F64F5407404D25FEA8D
:100580004E0E6D4146EB060642EAC62141EA555140
:100590004FEAC52040EA5E504FEACE2EB4F1FD0C82
:1005A00088BFBCF5E06F1ED8BEF1004F08BF5FEA00
:1005B000500E50F1000041EB045170BD06F00046B2
:1005C00046EA010140EA020081EA0301B4EB5C045F
:1005D000C2BFD4EB0C0541EA045170BD41F4801157
:1005E0004FF0000E013C00F3AB8014F1360FDEBF7C
:1005F000002001F0004170BDC4F10004203C35DA58
:100600000C341BDC04F11404C4F1200500FA05F3DA
:1006100020FA04F001FA05F240EA020001F000427B
:1006200021F0004110EBD37021FA04F642EB0601F1
:100630005EEA430E08BF20EAD37070BDC4F10C041B
:10064000C4F1200500FA04F320FA05F001FA04F2DF
:1006500040EA020001F0004110EBD37041F10001CB
:100660005EEA430E08BF20EAD37070BDC4F12005D6
:1006700000FA05F24EEA020E20FA04F301FA05F23E
:1006800043EA020321FA04F001F0004121FA04F2E6
:1006900020EA020000EBD3705EEA430E08BF20EAB6
:1006A000D37070BD94F0000F0FD101F000464000F0
:1006B00041EB010111F4801F08BF013CF7D041EA72
:1006C000060195F0000F18BF704703F00046520076
:1006D00043EB030313F4801F08BF013DF7D043EA47
:1006E0000603704794EA0C0F0CEA135518BF95EAFD
:1006F0000C0F0CD050EA410618BF52EA4306D1D184
:1007000081EA030101F000414FF0000070BD50EAA2
:10071000410606BF1046194652EA430619D094EA2C
:100720000C0F02D150EA013613D195EA0C0F05D116
:1007300052EA03361CBF104619460AD181EA03016A
:1007400001F0004141F0FE4141F470014FF0000022
:1007500070BD41F0FE4141F4780170BD70B54FF0BD
:10076000FF0C4CF4E06C1CEA11541DBF1CEA13553D
:1007700094EA0C0F95EA0C0F00F0A7F8A4EB05041F
:1007800081EA030E52EA03354FEA013100F0888016
:100790004FEA03334FF0805545EA131343EA1263DF
:1007A0004FEA022245EA111545EA10654FEA002694
:1007B0000EF000419D4208BF964244F1FD0404F54D
:1007C000407402D25B084FEA3202B61A65EB0305A9
:1007D0005B084FEA32024FF480104FF4002CB6EB66
:1007E000020E75EB030E22BFB61A754640EA0C00E6
:1007F0005B084FEA3202B6EB020E75EB030E22BF26
:10080000B61A754640EA5C005B084FEA3202B6EB66
:10081000020E75EB030E22BFB61A754640EA9C0025
:100820005B084FEA3202B6EB020E75EB030E22BFF5
:10083000B61A754640EADC0055EA060E18D04FEAB3
:10084000051545EA16754FEA06164FEAC30343EA53
:1008500052734FEAC2025FEA1C1CC0D111F4801F20
:100860000BD141EA00014FF000004FF0004CB6E719
:1008700011F4801F04BF01430020B4F1FD0C88BFB8
:10088000BCF5E06F3FF6AFAEB5EB030C04BFB6EBC3
:10089000020C5FEA500C50F1000041EB045170BDB6
:1008A0000EF0004E4EEA113114EB5C04C2BFD4EBE3
:1008B0000C0541EA045170BD41F480114FF0000E67
:1008C000013C90E645EA060E8DE60CEA135594EAE3
:1008D0000C0F08BF95EA0C0F3FF43BAF94EA0C0FE6
:1008E0000AD150EA01347FF434AF95EA0C0F7FF45B
:1008F00025AF104619462CE795EA0C0F06D152EAAF
:1009000003353FF4FDAE1046194622E750EA410692
:1009100018BF52EA43067FF4C5AE50EA41047FF4A3
:100920000DAF52EA43057FF4EBAE12E74FF0FF3C08
:1009300006E000BF4FF0010C02E000BF4FF0010CD9
:100940004DF804CD4FEA410C7FEA6C5C4FEA430C52
:1009500018BF7FEA6C5C1BD001B050EA410C0CBFA1
:1009600052EA430C91EA030F02BF90EA020F002003
:10097000704710F1000F91EA030F58BF994208BF6A
:1009800090422CBFD8176FEAE37040F00100704727
:100990004FEA410C7FEA6C5C02D150EA013C07D17E
:1009A0004FEA430C7FEA6C5CD6D152EA033CD3D0C9
:1009B0005DF8040B704700BF8446104662468C46C3
:1009C0001946634600E000BF01B5FFF7B7FF0028F6
:1009D00048BF10F1000F01BD4DF808EDFFF7F4FF1F
:1009E0000CBF012000205DF808FB00BF4DF808EDAA
:1009F000FFF7EAFF34BF012000205DF808FB00BFCD
:100A00004DF808EDFFF7E0FF94BF012000205DF8EE
:100A100008FB00BF4DF808EDFFF7CEFF94BF0120A3
:100A200000205DF808FB00BF4DF808EDFFF7C4FF9C
:100A300034BF012000205DF808FB00BF4FEA410CE5
:100A40007FEA6C5C02D150EA013C0AD14FEA430CC8
:100A50007FEA6C5C02D152EA033C02D14FF0000005
:100A600070474FF0010070474FEA410212F5001243
:100A700015D211D56FF47873B3EB625212D94FEAE5
:100A8000C12343F0004343EA505311F0004F23FACF
:100A900002F018BF404270474FF00000704750EA24
:100AA000013005D111F0004008BF6FF000407047E1
:100AB0004FF00000704700BF4A0011D212F500123B
:100AC00011D20DD56FF47873B3EB62520ED44FEAA6
:100AD000C12343F0004343EA505323FA02F0704726
:100AE0004FF00000704750EA013002D14FF0FF3064
:100AF00070474FF0000070474FEA4102B2F1E04307
:100B000024BFB3F5001CDCF1FE5C0DD901F0004CF4
:100B10004FEAC0024CEA5070B2F1004F40EB830044
:100B200008BF20F00100704711F0804F21D113F170
:100B30003872BCBF01F00040704741F480114FEAA9
:100B40005252C2F11802C2F1200C10FA0CF320FA32
:100B500002F018BF40F001004FEAC1234FEAD3234F
:100B600003FA0CFC40EA0C0023FA02F34FEA4303B9
:100B7000CCE77FEA625307D150EA01331EBF4FF042
:100B8000FE4040F44000704701F0004040F0FE405D
:100B900040F40000704700BF53B94AB9002908BFAC
:100BA00000281CBF4FF0FF314FF0FF3000F074B948
:100BB000ADF1080C6DE904CE00F006F8DDF804E0B4
:100BC000DDE9022304B070472DE9F0478C46044666
:100BD000089E002B4BD18A42154667D9B2FA82F2A1
:100BE0004AB1C2F1200701FA02F320FA07F7954053
:100BF00047EA030C94404FEA154EBCFBFEF71FFA80
:100C000085F80EFB17C307FB08F9210C41EA0343E3
:100C1000994509D9EB1807F1FF3180F01C819945FE
:100C200040F21981023F2B44A3EB0903B3FBFEF012
:100C30000EFB103300FB08F1A4B244EA0344A142C6
:100C400009D92C1900F1FF3380F00781A14240F24D
:100C5000048102382C4440EA07400027641A1EB180
:100C60000023D440C6E900433946BDE8F0878B42F3
:100C700009D9002E00F0EC800027C6E900013846B3
:100C80003946BDE8F087B3FA83F7002F48D18B428D
:100C900002D3824200F2FB80841A61EB030301203D
:100CA0009C46002EE0D0C6E9004CDDE702B9FFDE2D
:100CB000B2FA82F2002A40F08F800127491B4FEAE6
:100CC00015481FFA85F9B1FBF8FE08FB1E1109FB58
:100CD0000EF04FEA144C4CEA0143984207D9EB1846
:100CE0000EF1FF3102D2984200F2CD808E461B1ADF
:100CF000B3FBF8F008FB103309FB00F9A4B244EA97
:100D00000344A14507D92C1900F1FF3302D2A145B4
:100D100000F2B6801846A4EB090440EA0E409EE7B4
:100D2000C7F12005BB4022FA05FC4CEA030C21FA6E
:100D300005F44FEA1C4EB4FBFEF91FFA8CF80EFBCB
:100D4000194420FA05F3B94009FB08FA19430B0CC2
:100D500043EA0444A24502FA07F200FA07F30BD96A
:100D60001CEB040409F1FF3080F08880A24540F2BA
:100D70008580A9F102096444A4EB0A04B4FBFEF0E7
:100D80000EFB104400FB08FA89B241EA0444A24574
:100D900008D91CEB040400F1FF316BD2A24569D9DC
:100DA0000238644440EA0940A0FB0289A4EB0A042B
:100DB0004C454146CE4654D351D0002E69D05A1AE4
:100DC00064EB0E0404FA05F522FA07F3FC401D4318
:100DD000C6E90054002747E79540C2F1200321FAF5
:100DE00003F04FEA1548B0FBF8F71FFA85F908FB46
:100DF000170024FA03F3914007FB09FC0B43190C7D
:100E000041EA00418C4504FA02F407D9691807F158
:100E1000FF3031D28C452FD9023F2944A1EB0C0180
:100E2000B1FBF8F008FB101C00FB09FE99B241EA87
:100E30000C418E4507D9691800F1FF3318D28E4551
:100E400016D902382944A1EB0E0140EA07473AE7D8
:100E50003746304608E70F46E6E61846FBE64345C8
:100E6000ABD2B8EB020169EB0C0201389646A4E75D
:100E70001846E8E7084695E70746CFE781467BE74F
:100E800002382C4447E7AEF1020E2B442FE73846D8
:100E900007E73746E8E600BF704700BF80B584B07B
:100EA00000AF3B1D00221A605A609A60264B274A09
:100EB0001A60254B00225A60234B00229A60224B75
:100EC0000022DA60204B00221A611F4B00225A6177
:100ED0001D4B00229A611C4B0022DA611A4B002242
:100EE0001A62194B002283F82420174B01229A62C0
:100EF000154B002283F82C20134B10225A63124BFF
:100F000000229A63104B002283F83C200E4803F025
:100F1000FFFC0346002B02D0022002F001FC10234C
:100F20007B600123BB600023FB603B1D1946064824
:100F300004F070F80346002B02D0022002F0F0FB10
:100F400000BF1037BD4680BD343A00200024014068
:100F500080B58CB000AF786007F11C0300221A60E6
:100F60005A609A60DA601A617B681B68314A934262
:100F70005CD1314B1B6A304A43F4007313622E4B31
:100F80001B6A03F40073BB61BB692B4BDB692A4A04
:100F900043F00103D361284BDB6903F001037B615C
:100FA0007B69254BDB69244A43F00403D361224B60
:100FB000DB6903F004033B613B691F4BDB691E4A9D
:100FC00043F01003D3611C4BDB6903F01003FB609B
:100FD000FB680323FB6103233B6200237B6207F171
:100FE0001C031946154804F049FD2023FB61032327
:100FF0003B6200237B6207F11C031946104804F092
:101000003DFD4FF44073FB6103233B6200237B6291
:1010100007F11C0319460B4804F030FD00220021A3
:10102000122004F0B2FA122004F0CBFA00BF3037DD
:10103000BD4680BD0024014000380240000002404F
:10104000000802400010024080B586B000AF786012
:1010500007F10C0300221A605A609A6001233B6179
:1010600002237B617B68FB6007F10C0319460F4884
:1010700003F0D0FF0346002B02D0022002F050FB09
:101080000A4803F08BFD0A21084803F013FE0748C5
:1010900003F099FE0246064B5A60044803F0DEFD59
:1010A000034B5B6818461837BD4680BD343A0020B4
:1010B000903A00200000000098B500AFA84B002235
:1010C0001A701120FFF7C0FFA54B5B68B3F5805F76
:1010D00022D2A44B1B881A4640F6B83303FB02F217
:1010E0009F4B5968A04B9B68DB0D01FA03F3B2FBE1
:1010F000F3F31846FFF78EF94FF000029B4BFFF712
:101100002DFB03460C46964AC2E90234944B1B78E9
:101110000133DAB2924B1A701020FFF795FF904B13
:101120005B68B3F5805F29D28D4B5B6840F6E44283
:1011300002FB03F38E4AA2FB03239B091A468D4B45
:101140001B88D21A13469B0013441B011A468A4B74
:101150001B881946874B1B88CB1A92FBF3F31C3371
:101160001846FFF767F903460C467D4AC2E9043486
:101170007B4B1B780133DAB2794B1A700F20FFF7E3
:1011800063FF774B5B68B3F5805F35D2744B5B6868
:101190001846FFF73FF966A3D3E90023FFF7B4F938
:1011A00003460C466E4AC2E908346D4BD3E9080188
:1011B00061A3D3E90023FFF7D1FA03460C46184692
:1011C00021464FF000026D4BFFF79EF903460C4697
:1011D00018462146FFF770FC0346DAB2604B83F8ED
:1011E00028205F4B93F82820654B1A705C4B1B78C6
:1011F0000133DAB25A4B1A700120FFF725FF584B22
:101200005B68B3F5805F1DD2554B5B681846FFF7EE
:1012100001F947A3D3E90023FFF776F903460C460B
:101220001846214646A3D3E90023FFF76DF903468C
:101230000C464B4AC2E90C34494B1B780133DAB2F5
:10124000474B1A700020FFF7FFFE454B5B68B3F574
:10125000805F1DD2424B5B681846FFF7DBF834A372
:10126000D3E90023FFF750F903460C461846214600
:1012700035A3D3E90023FFF747F903460C46384A64
:10128000C2E90E34364B1B780133DAB2344B1A7094
:101290001720FFF7D9FE324B5B68B3F5805F1DD294
:1012A0002F4B5B681846FFF7B5F821A3D3E900235D
:1012B000FFF72AF903460C461846214624A3D3E932
:1012C0000023FFF721F903460C46254AC2E91034F2
:1012D000234B1B780133DAB2214B1A701820FFF729
:1012E000B3FE1F4B5B68B3F5805F1DD21C4B5B6880
:1012F0001846FFF78FF80EA3D3E90023FFF704F990
:1013000003460C461846214613A3D3E90023FFF7F2
:10131000FBF803460C46124AC2E91234104B1B7804
:101320000133DAB20E4B1A7000BF98BDAFF30080E4
:101330006666666666664A3F6666666666660A4012
:101340000AD7A3703D0A18401F85EB51B81E1840FC
:10135000CDCCCCCCCCCC10409A9999999999094094
:10136000903A0020F800F81F343A002000408F40E7
:10137000F1197605FA00F81FFE00F81F0000594029
:10138000F839002080B590B000AF0346FB714E4B9A
:10139000DB694D4A43F00103D3614B4BDB6903F03A
:1013A00001033B623B6A484BDB69474A43F0020357
:1013B000D361454BDB6903F00203FB61FB69424BE0
:1013C000DB69414A43F00403D3613F4BDB6903F01F
:1013D0000403BB61BB693C4BDB693B4A43F0080338
:1013E000D361394BDB6903F008037B617B69364BC2
:1013F000DB69354A43F01003D361334BDB6903F0FB
:1014000010033B613B69304BDB692F4A43F02003FB
:10141000D3612D4BDB6903F02003FB60FB680022E6
:1014200020212A4804F0CFFC274BDB69264A43F0F1
:101430000103D361244BDB6903F00103BB60BB688C
:101440002023FB6201233B6302237B630023BB63F6
:1014500007F12C0319461D4804F010FB1C4AFB79C8
:1014600013701C4B1C4A1A601A4B20225A60194BED
:101470007922DA60174B00229A60164B00225A61DB
:10148000144807F0CFF90346002B02D0042002F0E5
:1014900047F900237B620023BB6207F1240319464E
:1014A0000C4808F0A1FB0346002B02D0042002F0F8
:1014B00037F9084801F09EFC064801F03DFD00BFE9
:1014C0004037BD4680BD00BF0038024000040240E6
:1014D000E03A0020E83D00200010004080B582B0D6
:1014E00000AF0E4B1B78012B13D14623FB8006E087
:1014F00020210B4804F07FFC012003F0E7F9FB8872
:101500005A1EFA80002BF3D100222021044804F057
:101510005AFC00BF0837BD4680BD00BFE03A00203E
:101520000004024080B500AF094B1B78012B0DD1A0
:10153000084807F01FFA46200DF08EFC054807F01A
:101540006BFA00222021044804F03DFC00BF80BD5E
:10155000E03A0020E83D00200004024080B582B05F
:1015600000AF3B4600221A605A60104B104A1A60C6
:101570000E4804F034F80346002B02D0032002F09A
:10158000CFF800233B6000237B603B4600221946D6
:10159000064804F0B9F80346002B02D0032002F0FD
:1015A000BFF800BF0837BD4680BD00BFE43A002049
:1015B0000074004080B58AB000AF786007F1140372
:1015C00000221A605A609A60DA601A617B681B68B0
:1015D000154A934223D1154B5B6A144A43F00053DA
:1015E0005362124B5B6A03F000533B613B690F4B44
:1015F000DB690E4A43F00103D3610C4BDB6903F056
:101600000103FB60FB6810237B610323BB610023A4
:10161000FB6107F114031946054804F02FFA00BFD7
:101620002837BD4680BD00BF00740040003802402E
:101630000000024080B582B000AF0346FB71FB7929
:10164000082200210B4804F03BF80346002B02D08F
:10165000152002F065F80021064803F0E2FF03467A
:10166000002B02D0152002F05BF800BF0837BD4602
:1016700080BD00BFE43A002080B582B000AF0C4BC3
:10168000DB690B4A43F08073D361094BDB6903F0DC
:1016900080737B607B68002200210F2003F075FFC0
:1016A0000F2003F08EFF00BF0837BD4680BD00BF8E
:1016B0000038024080B58CB000AF07F11C03002257
:1016C0001A605A609A60DA601A61424BDB69414ADB
:1016D00043F00103D3613F4BDB6903F00103BB61BE
:1016E000BB693C4BDB693B4A43F00203D361394B96
:1016F000DB6903F002037B617B69364BDB69354AAA
:1017000043F00403D361334BDB6903F004033B6113
:101710003B69304BDB692F4A43F00803D3612D4B03
:10172000DB6903F00803FB60FB682A4BDB69294A8D
:1017300043F01003D361274BDB6903F01003BB6058
:10174000BB68244BDB69234A43F02003D361214B60
:10175000DB6903F020037B607B68012201211E48C6
:1017600004F031FB012202211B4804F02CFB012272
:101770000421194804F027FB0123FB6101233B628C
:1017800000237B620323BB6207F11C031946124846
:1017900004F074F90223FB6101233B6200237B62A6
:1017A0000323BB6207F11C0319460B4804F066F9DA
:1017B0000423FB6101233B6200237B620323BB62A2
:1017C00007F11C031946044804F058F900BF3037EC
:1017D000BD4680BD003802400004024080B588B09C
:1017E00000AF78600B467B8007F10C0300221A6083
:1017F0005A609A60DA601A617B88FB6000233B6163
:1018000007F10C031946786804F038F900BF203757
:10181000BD4680BD80B588B000AF78600B467B8048
:1018200007F10C0300221A605A609A60DA601A61AC
:101830007B88FB6001233B6107F10C031946786844
:1018400004F01CF900BF2037BD4680BD80B584B0D0
:1018500000AF78600B467B800123FB737B881946C1
:101860007868FFF7D7FF72B67B8800221946786840
:1018700004F0A9FA4FF4F07001F0BCFB7B88012260
:101880001946786804F09FFA7B8819467868FFF754
:10189000A5FF3C2001F0AEFB7B881946786804F078
:1018A0007BFA0346FB7362B64FF4D27001F0A2FBE1
:1018B000FB7B18461037BD4680BD80B582B000AFB7
:1018C00078600B467B8013467B707B88002219462C
:1018D000786804F078FA012001F08CFB7B78012B0A
:1018E00005D17B8801221946786804F06CFA3C2007
:1018F00001F080FB7B8801221946786804F063FAC6
:1019000000BF0837BD4680BD80B584B000AF7860A9
:101910000B467B8013467B700823FB730023BB734D
:101920007B8819467868FFF775FF72B60CE07B7804
:1019300003F00103BB73BA7B7B8819467868FFF715
:10194000BCFF7B785B087B70FB7B5A1EFA73002B15
:10195000EDD162B600BF1037BD4680BD80B584B002
:1019600000AF78600B467B8000237B730523FB81EF
:101970007B8819467868FFF74DFF7B88002219465F
:10198000786804F020FA00BFFB895A1EFA81002B08
:10199000FAD17B8801221946786804F014FA7B8812
:1019A00019467868FFF71AFF7B881946786804F0B3
:1019B000F3F903467B73322001F01CFB7B7B184656
:1019C0001037BD4680BD80B584B000AF78600B464F
:1019D0007B800823FB730023BB7372B60FE0BB7BD5
:1019E0005B08BB737B8819467868FFF7B7FF03462F
:1019F000DB015AB297F90E3013435BB2BB73FB7B2A
:101A00005A1EFA73002BEAD162B6BB7B1846103718
:101A1000BD4680BD80B582B000AF78600B467B804C
:101A20007B8819467868FFF711FF7B88CC2219461E
:101A30007868FFF769FF7B884E2219467868FFF7C0
:101A400063FF7B88002219467868FFF75DFF7B887B
:101A5000002219467868FFF757FF7B887F221946D6
:101A60007868FFF751FF7B8819467868FFF7EEFE2C
:101A70007B88CC2219467868FFF746FF7B88442292
:101A800019467868FFF740FF00BF0837BD4680BDA4
:101A900080B588B000AF78600B467B804DF6FF7351
:101AA000FB837B8819467868FFF7D0FE0346002B3E
:101AB0003ED17B88CC2219467868FFF725FF7B88CA
:101AC000BE2219467868FFF71FFF0023BB610FE0B5
:101AD0007B8819467868FFF776FF0346194607F1B9
:101AE0000802BB6913440A461A70BB690133BB6123
:101AF000BB69082BECDD7B8819467868FFF7A6FEEA
:101B000007F108030921184600F0ECF80346002B02
:101B10000BD13B7AFB827B7ABB82BB8A1B029AB2D7
:101B2000FB8A13449BB2FB8302E04DF6FF73FB83F9
:101B3000FB8B18462037BD4680BD000090B585B0B0
:101B400000AF0346FB804FF00003624CC7E902344C
:101B5000FB88B3F5006F63D34FF000034FF0000430
:101B6000C7E90234FB8803F00103002B0AD04FF0D1
:101B70000002594BD7E90201FEF710FB03460C4661
:101B8000C7E90234FB8803F00203002B0BD04FF0AF
:101B900000024FF07F53D7E90201FEF7FFFA034638
:101BA0000C46C7E90234FB8803F00403002B0AD07B
:101BB0004FF00002494BD7E90201FEF7EFFA034666
:101BC0000C46C7E90234FB8803F00803002B0AD057
:101BD0004FF00002424BD7E90201FEF7DFFA03465D
:101BE0000C46C7E90234FB881B099BB2DBB2FB80C1
:101BF000FB88013BFB80FB88DB43FB80FB88DBB27F
:101C00001846FEF717FC03460C461A462346D7E94A
:101C10000201FEF7C1FA03460C46C7E9023451E05F
:101C20004FF000034FF00004C7E90234FB881B09A2
:101C30009BB2DBB21846FEF7FDFB03460C46C7E934
:101C40000234FB8803F00103002B0AD04FF000029E
:101C5000214BD7E90201FEF7A1FA03460C46C7E97A
:101C60000234FB8803F00203002B0BD04FF000027C
:101C70004FF07F53D7E90201FEF790FA03460C4676
:101C8000C7E90234FB8803F00403002B0AD04FF0AD
:101C90000002124BD7E90201FEF780FA03460C4618
:101CA000C7E90234FB8803F00803002B0AD04FF089
:101CB00000020B4BD7E90201FEF770FA03460C460F
:101CC000C7E90234D7E90234184621461437BD4625
:101CD00090BD00BF00004CC00000B03F0000D03FEE
:101CE0000000E03F80B485B000AF78600B467B8099
:101CF0000023FB730023BB812AE0BB897A6813446D
:101D00001B78BB720823FB72FA7BBB7A5340DBB2B1
:101D100003F001037B727B7A012B03D1FB7B83F001
:101D20001803FB73FB7B5B08FB737B7A012B03D1EE
:101D3000FB7B63F07F03FB73BB7A5B08BB72FB7AB0
:101D4000013BFB72FB7A002BDED1BB890133BB81E7
:101D5000BA897B889A42D0D1FB7B18461437BD469E
:101D600080BC704780B586B004AF03460A46FB804E
:101D70001346BB800C4B1B781A460C490C4811F0DB
:101D8000F7F80023029347F6FF7301934FF478436B
:101D90000093084B064AE621C82002F0E1FC00BF90
:101DA0000837BD4680BD00BFF8390020B066010885
:101DB000F83A0020F89C010890B589B004AF0346BA
:101DC0000A46FB801346BB801E4BFB601E4B03F193
:101DD0000804D4E900341A4623461C491C4811F073
:101DE000C7F8B988F8880023029347F6FF73019378
:101DF0004FF478430093FB68154A02F0B1FC124B94
:101E000003F11004D4E9003418462146FEF72CFEF5
:101E100003461A460F490E4811F0AAF8BB880A3348
:101E200099B2F8880023029347F6FF7301934FF4A9
:101E300078430093FB68064A02F092FC00BF143717
:101E4000BD4690BD50940108903A0020B866010844
:101E5000F83A0020C866010880B588B004AF034690
:101E6000FB800B46BB801346FB701D4BFB60FB7871
:101E7000012B13D0022B20D0002B00D02CE0B988EE
:101E8000F8880023029347F67C5301934FF478437C
:101E90000093FB68134A02F063FC1DE0B988F888E0
:101EA0000023029347F67C5301934FF47843009349
:101EB000FB680D4A02F054FC0EE0B988F888002354
:101EC000029347F67C5301934FF478430093FB68E9
:101ED000064A02F045FC00BF00BF1037BD4680BD7A
:101EE000E8690108D4660108DC660108E4660108B7
:101EF00080B588B004AF0346FB800B46BB80134619
:101F00007B800C4BFB607B881A460B490B4811F019
:101F10002FF8B988F888002302934FF6FF730193D6
:101F20001F230093FB68054A02F01AFC00BF10371C
:101F3000BD4680BDF89C0108EC660108F83A002017
:101F400080B58AB004AFC7E900230346FB810B4686
:101F5000BB810C4B7B61D7E900230B490B4811F087
:101F600007F8B989F889002302934FF6FF730193AC
:101F70001F2300937B69054A02F0F2FB00BF18376C
:101F8000BD4680BDE8690108F4660108F83A002002
:101F900080B58CB000AF3D4BDB693C4A43F0010398
:101FA000D3613A4BDB6903F00103BB61BB69374B7B
:101FB000DB69364A43F00203D361344BDB6903F03B
:101FC00002037B617B69314BDB69304A43F00403D8
:101FD000D3612E4BDB6903F004033B613B692B4B60
:101FE000DB692A4A43F00803D361284BDB6903F01D
:101FF0000803FB60FB68254BDB69244A43F01003B0
:10200000D361224BDB6903F01003BB60BB681F4B3D
:10201000DB691E4A43F02003D3611C4BDB6903F0EC
:1020200020037B607B684FF40053FB61184B3B62DD
:1020300000237B620123BB6207F11C03194615488C
:1020400003F01CFD0823FB6102233B6200237B623B
:102050000023BB620223FB6207F11C0319460E48F2
:1020600003F00CFD1023FB6102233B6200237B6223
:102070000023BB620223FB6207F11C0319460648DA
:1020800003F0FCFC00BF3037BD4680BD0038024085
:1020900000002110000C02400010024080B500AF8B
:1020A000024806F0FFFB00BF80BD00BF283E0020B5
:1020B00080B400AF084B1B685A6A084B1B68134476
:1020C000064A1360044B1B6800225A62034B1B68CC
:1020D0001846BD4680BC7047283E00202C030020D7
:1020E00080B500AF23480CF0E5FE0246224B1A6093
:1020F000224A012120200CF077FF0246204B1A6073
:10210000204A002120480CF0FDFD02461F4B1A60BA
:102110001F4A00211F480CF0F5FD02461E4B1A60B5
:102120001E4A00211E480CF0EDFD02461D4B1A60B0
:102130001D4A00211D480CF0E5FD02461C4B1A60AB
:102140001C4A00211C480CF0DDFD02461B4B1A60A6
:102150001B4A00211B480CF0D5FD02461A4B1A60A1
:102160001A4A00211A480CF0CDFD0246194B1A609C
:1021700000BF80BDB4690108903B00209C69010844
:10218000183B0020A0680108D92100080C3B002062
:10219000C4680108F1210008103B0020E86801082C
:1021A000012200089C3B00200C6901088D220008D8
:1021B000943B002030690108A12200086C3B0020FC
:1021C00054690108C9220008143B002078690108FD
:1021D00089230008983B002080B582B000AF78606A
:1021E0000FF08CFBFFF79EF964200CF035FEFBE747
:1021F00080B582B000AF786001200CF02DFEFBE7C7
:1022000090B583B000AF786000210020FFF7AAFDF1
:10221000184B1B781A4632213220FFF71DFE164B51
:102220001B881A463221FA20FFF762FE052164203E
:10223000FFF7C2FD114B18CB1A46234664210A2032
:10224000FFF77EFE0E4B18CB1A4623468C210A2040
:10225000FFF776FE0B4B18CB1A462346B4210A2013
:10226000FFF76EFE1021084803F0C5FDC8200CF0F2
:10227000F3FDC9E7883A00200E3A0020F03900202B
:10228000203A0020003A00200008024080B582B0C9
:1022900000AF7860FEF710FF32200CF0DDFDF9E7AB
:1022A00080B582B000AF7860064806F063FB00217D
:1022B000044806F0FDFC01F06BFA0A200CF0CCFD9E
:1022C000F9E700BFE83C002090B583B000AF78602C
:1022D000C8200CF0C1FD02212448FFF79BFB04211C
:1022E0002248FFF797FB01212048FFF793FB4FF4AB
:1022F0007A700CF0B1FD02211C48FFF7C9FB0346C0
:102300001A461B4B1A8004211848FFF7C1FB0346ED
:102310001A46184B1A8001211448FFF7B9FB0346EF
:102320001A46154B1A80124B1B881846FFF706FCFD
:1023300003460C46114AC2E900340E4B1B8818466E
:10234000FFF7FCFB03460C460D4AC2E900340A4B7A
:102350001B881846FFF7F2FB03460C46094AC2E900
:10236000003443F698200CF077FDB4E700040240F7
:102370002E3A0020103A00202C3A0020F03900209C
:10238000203A0020003A002090B583B000AF78607A
:10239000234B1B78184601F04DFA224B1B78184648
:1023A000FEF738F81AA3D3E90023FEF7ADF8034689
:1023B0000C4618462146FEF77FFB0346DBB2184663
:1023C000FFF738F9184B1B88002B16D0164B1B88CB
:1023D0001846FEF71FF803460C461A4623460EA180
:1023E000D1E90001FEF7BAF903460C46184621462A
:1023F000FEF762FB03469BB200E000230B4A13800A
:10240000002001F061FA14200CF026FDC0E700BFA7
:1024100048E17A14AE47F93F00000000004CED405F
:10242000883A0020F8390020283A00200E3A00208F
:1024300080B58CB000AF07F11C0300221A605A600F
:102440009A60DA601A61524BDB69514A43F001032A
:10245000D3614F4BDB6903F00103BB61BB694C4B9C
:10246000DB694B4A43F00203D361494BDB6903F05C
:1024700002037B617B69464BDB69454A43F00403F9
:10248000D361434BDB6903F004033B613B69404B81
:10249000DB693F4A43F00803D3613D4BDB6903F03E
:1024A0000803FB60FB683A4BDB69394A43F01003D1
:1024B000D361374BDB6903F01003BB60BB68344B5F
:1024C000DB69334A43F02003D361314BDB6903F00E
:1024D00020037B607B680022E0212E4803F073FC20
:1024E00000221F212C4803F06EFC00224FF4805183
:1024F0002A4803F068FCE023FB6101233B620023D0
:102500007B620023BB6207F11C031946214803F0DC
:10251000B5FA1F23FB6101233B6200237B6200238A
:10252000BB6207F11C0319461B4803F0A7FA4FF4DE
:102530008053FB6101233B6200237B620023BB626B
:1025400007F11C031946154803F098FA0123FB61B3
:10255000134B3B6200237B6207F11C0319461148B1
:1025600003F08CFA4FF48073FB6102233B6200237B
:102570007B620023BB620023FB6207F11C03194648
:10258000094803F07BFA00BF3037BD4680BD00BF6D
:1025900000380240001002400008024000040240DF
:1025A00000001110000C02400000024080B500AF96
:1025B000134B144A1A60124B134A5A60104B0022F4
:1025C0009A600F4B0022DA600D4B4FF480421A6183
:1025D0000B4B00225A610A4B00229A61084B0022E1
:1025E000DA61074B00221A62054803F01DFC03461E
:1025F000002B02D0072001F093F800BF80BD00BF80
:10260000A03B002000540040801A060080B58AB02C
:1026100000AF786007F1140300221A605A609A60D4
:10262000DA601A617B681B68174A934228D1174BFE
:10263000DB69164A43F00203D361144BDB6903F0F4
:1026400002033B613B694FF440737B611223BB6122
:102650000123FB6103233B6204237B6207F1140324
:1026600019460B4803F00AFA084B5B6A074A43F421
:1026700000135362054B5B6A03F40013FB60FB68B5
:1026800000BF2837BD4680BD0054004000380240DE
:102690000004024080B58CB000AF4B4BDB694A4A66
:1026A00043F00103D361484BDB6903F00103BB61D5
:1026B000BB69454BDB69444A43F00203D361424B9B
:1026C000DB6903F002037B617B693F4BDB693E4AB8
:1026D00043F00403D3613C4BDB6903F004033B612B
:1026E0003B69394BDB69384A43F00803D361364B09
:1026F000DB6903F00803FB60FB68334BDB69324A9C
:1027000043F01003D361304BDB6903F01003BB606F
:10271000BB682D4BDB692C4A43F02003D3612A4B65
:10272000DB6903F020037B607B684FF48073FB61FF
:10273000264B3B6200237B620123BB6207F11C0333
:102740001946234803F09AF94FF40073FB611F4BBD
:102750003B6200237B620123BB6207F11C03194625
:102760001B4803F08BF94FF48053FB61174B3B621E
:1027700000237B620123BB6207F11C031946144846
:1027800003F07CF94FF48063FB61104B3B62002344
:102790007B620123BB6207F11C0319460C4803F05E
:1027A0006DF94FF40063FB61084B3B6200237B62D1
:1027B0000123BB6207F11C031946054803F05EF9CB
:1027C00000BF3037BD4680BD0038024000002110F8
:1027D000000C024080B500AF184B194A1A60174B25
:1027E0004FF482725A60154B00229A60134B0022FC
:1027F000DA60124B00221A61104B00225A610F4B13
:102800004FF400729A610D4B0022DA610B4B0022EB
:102810001A620A4B00225A62084B00229A62074B46
:102820000A22DA62054805F06DFD0346002B02D04E
:10283000062000F075FF00BF80BD00BF4C3C0020AB
:102840000030014080B500AF184B194A1A60174B91
:102850004FF482725A60154B00229A60134B00228B
:10286000DA60124B00221A61104B00225A610F4BA2
:102870004FF400729A610D4B0022DA610B4B00227B
:102880001A620A4B00225A62084B00229A62074BD6
:102890000A22DA62054805F035FD0346002B02D016
:1028A000062000F03DFF00BF80BD00BFF43B0020CC
:1028B0000038004080B58CB000AF786007F11C0391
:1028C00000221A605A609A60DA601A617B681B689D
:1028D000424A934228D1424B1B6A414A43F48053F7
:1028E00013623F4B1B6A03F48053BB61BB693C4BD3
:1028F000DB693B4A43F00103D361394BDB6903F0E9
:1029000001037B617B69E023FB6102233B620023BF
:102910007B620323BB620523FB6207F11C0319469C
:10292000304803F0ABF855E07B681B682E4A9342B1
:1029300050D12B4B5B6A2A4A43F480435362284BA5
:102940005B6A03F480433B613B69254BDB69244AA6
:1029500043F00203D361224BDB6903F00203FB6007
:10296000FB684FF46043FB6102233B6200237B6200
:102970000323BB620523FB6207F11C0319461B48B6
:1029800003F07CF81A4B1B4A1A60194B10225A604C
:10299000174B00229A60164B8022DA60144B0022FB
:1029A0001A61134B00225A61114B00229A61104B9D
:1029B0004FF48052DA610E4802F0FCFE0346002B11
:1029C00002D0062000F0ACFE7B68094A9A64084AEF
:1029D0007B68536200BF3037BD4680BD0030014088
:1029E000003802400000024000380040000402406D
:1029F000A43C00205860024080B58CB000AF07F1C5
:102A00000C032422002118460FF0FBFB3B1D002283
:102A10001A605A60214B224A1A60204B00225A60E9
:102A20001E4B00229A601D4B6422DA601B4B002271
:102A30001A611A4B00225A610123FB6000233B619B
:102A400001237B610023BB610023FB6100233B6208
:102A500001237B620023BB620023FB6207F10C03AE
:102A600019460E4806F0EEF90346002B02D004206A
:102A700000F056FE00237B600023BB603B1D19461F
:102A8000064807F0B1F80346002B02D0042000F0FE
:102A900047FE00BF3037BD4680BD00BF683D002007
:102AA0000004004080B58AB000AF07F1180300228F
:102AB0001A605A609A60DA6007F1100300221A6007
:102AC0005A603B4600221A605A609A60DA602F4BC7
:102AD0002F4A1A602D4B47F6FF425A602B4B0022BB
:102AE0009A602A4B40F6B832DA60284B4FF40072F5
:102AF0001A61264B00225A61244805F093FE0346D2
:102B0000002B02D0042000F00BFE4FF48053BB6179
:102B100007F1180319461D4806F060FC0346002B18
:102B200002D0042000F0FCFD184806F079F80346B6
:102B3000002B02D0042000F0F3FD00233B610023B2
:102B40007B6107F110031946104807F04DF8034662
:102B5000002B02D0042000F0E3FD00233B600123A2
:102B60007B600023BB600023FB603B4600221946CC
:102B7000064806F0E1FA0346002B02D0042000F0DC
:102B8000CFFD00BF2837BD4680BD00BFE83C002018
:102B90000008004080B400AF00BFBD4680BC704755
:102BA00080B586B000AF07F1080300221A605A60B2
:102BB0009A60DA603B4600221A605A601E4B1F4A38
:102BC0001A601D4B20225A601B4B00229A601A4B40
:102BD0004FF6FF72DA60184B00221A61164B002282
:102BE0005A61154805F01EFE0346002B02D0042052
:102BF00000F096FD4FF48053BB6007F108031946BF
:102C00000D4806F0EBFB0346002B02D0042000F039
:102C100087FD00233B6000237B603B461946064846
:102C200006F0E2FF0346002B02D0042000F078FDFE
:102C300000BF1837BD4680BD283E00200008014077
:102C400080B586B000AF07F1080300221A605A6011
:102C50009A60DA603B4600221A605A601E4B1F4A97
:102C60001A601D4B20225A601B4B00229A601A4B9F
:102C70004FF6FF72DA60184B00221A61164B0022E1
:102C80005A61154805F0CEFD0346002B02D0042002
:102C900000F046FD4FF48053BB6007F1080319466E
:102CA0000D4806F09BFB0346002B02D0042000F0E9
:102CB00037FD00233B6000237B603B4619460648F6
:102CC00006F092FF0346002B02D0042000F028FDFE
:102CD00000BF1837BD4680BD283D0020000C0140D4
:102CE00080B588B000AF07F1100300221A605A6067
:102CF0009A60DA603B4600221A605A609A60DA6095
:102D0000274B284A1A60264B4FF4FA425A60244B4C
:102D10006422DA60224B00229A60214B00221A6161
:102D20001F4B00225A611E4805F07CFD0346002B14
:102D300002D0042000F0F4FC4FF480533B6107F113
:102D400010031946164806F049FB0346002B02D033
:102D5000042000F0E5FC124805F084FE0346002B39
:102D600002D0042000F0DCFC60233B6000237B6089
:102D70000023BB600023FB603B4600221946084845
:102D800006F06EFA0346002B02D0042000F0C8FCC7
:102D9000034800F0D1F800BF2037BD4680BD00BF1A
:102DA000A83D00200010014080B584B000AF7860DD
:102DB0007B681B680D4A934213D10D4B5B6A0C4A2A
:102DC00043F0020353620A4B5B6A03F00203FB60A9
:102DD000FB68002200211D2002F0D7FB1D2002F01D
:102DE000F0FB00BF1037BD4680BD00BF00040040AF
:102DF0000038024080B58EB000AF786007F1240340
:102E000000221A605A609A60DA601A617B681B6857
:102E1000424A93422FD1424B5B6A414A43F004033A
:102E200053623F4B5B6A03F004033B623B6A3C4BDB
:102E3000DB693B4A43F00203D361394BDB6903F0A2
:102E40000203FB61FB6940237B620223BB62002318
:102E5000FB6200233B6302237B6307F124031946D3
:102E6000304802F00BFE002200211E2002F08DFBF4
:102E70001E2002F0A6FB7B681B682B4A934214D1EC
:102E8000274B5B6A264A43F010035362244B5B6A6C
:102E900003F01003BB61BB69002200212B2002F06C
:102EA00074FB2B2002F08DFB34E07B681B681F4A0B
:102EB00093420CD11A4B1B6A194A43F00403136264
:102EC000174B1B6A03F004037B617B6922E07B687C
:102ED0001B68174A93420CD1114B1B6A104A43F0EE
:102EE000080313620E4B1B6A03F008033B613B6946
:102EF00010E07B681B680F4A93420BD1084B1B6A9A
:102F0000074A43F010031362054B1B6A03F01003DA
:102F1000FB60FB6800BF3837BD4680BD000800403D
:102F20000038024000040240001000400008014048
:102F3000000C01400010014080B58AB000AF7860FD
:102F400007F1140300221A605A609A60DA601A616D
:102F50007B681B68224A93421CD1224BDB69214AC1
:102F600043F00203D3611F4BDB6903F002033B61B3
:102F70003B6940237B610223BB610023FB6100238B
:102F80003B6202237B6207F114031946164802F0E4
:102F900075FD20E07B681B68144A93421BD1114BDE
:102FA000DB69104A43F01003D3610E4BDB6903F079
:102FB0001003FB60FB6802237B610223BB610023DB
:102FC000FB6100233B6203237B6207F11403194674
:102FD000074802F053FD00BF2837BD4680BD00BF43
:102FE0000008004000380240000402400010014088
:102FF0000010024080B582B000AF0346FB800A4B50
:103000001B6800225A62084805F04CFC00BF064BC2
:103010001B685A6AFB889A42F9D9034805F08CFC70
:1030200000BF0837BD4680BD283D002080B582B076
:1030300000AF7860391D64230122044806F07FFE4A
:103040007B6818460837BD4680BD00BF683F00203A
:1030500080B500AF114B124A1A60104B4FF4E132A9
:103060005A600E4B00229A600C4B0022DA600B4B28
:1030700000221A61094B0C225A61084B00229A6106
:10308000064B0022DA61054806F00CFE0346002BD1
:1030900002D0052000F044FB00BF80BDE83E0020C8
:1030A0000038014080B500AF114B124A1A60104B36
:1030B0004FF4E1325A600E4B00229A600C4B002212
:1030C000DA600B4B00221A61094B0C225A61084B43
:1030D00000229A61064B0022DA61054806F0E2FD03
:1030E0000346002B02D0052000F01AFB00BF80BD74
:1030F000683F00200044004080B500AF114B124AE9
:103100001A60104B4FF4E1325A600E4B00229A6065
:103110000C4B0022DA600B4B00221A61094B0C2287
:103120005A61084B00229A61064B0022DA61054879
:1031300006F0B8FD0346002B02D0052000F0F0FA9F
:1031400000BF80BD683E00200048004080B500AF51
:10315000114B124A1A60104B4FF4E1325A600E4B79
:1031600000229A600C4B0022DA600B4B00221A619D
:10317000094B0C225A61084B00229A61064B00222F
:10318000DA61054806F08EFD0346002B02D00520CB
:1031900000F0C6FA00BF80BD283F0020004C004070
:1031A00080B500AF114B124A1A60104B4FF4E13258
:1031B0005A600E4B00229A600C4B0022DA600B4BD7
:1031C00000221A61094B0C225A61084B00229A61B5
:1031D000064B0022DA61054806F064FD0346002B29
:1031E00002D0052000F09CFA00BF80BDA83E002060
:1031F0000050004080B592B000AF786007F1340312
:1032000000221A605A609A60DA601A617B681B6853
:10321000974A934231D1974B1B6A964A43F48043B5
:103220001362944B1B6A03F480433B633B6B914BEB
:10323000DB69904A43F00103D3618E4BDB6903F0F5
:103240000103FB62FB6A4FF4C0637B630223BB6331
:103250000023FB6303233B6407237B6407F13403F0
:103260001946854802F00AFC00220021252002F0C0
:103270008CF9252002F0A5F9F5E07B681B687F4AF0
:10328000934230D17B4B5B6A7A4A43F400335362FA
:10329000784B5B6A03F40033BB62BB6A754BDB6936
:1032A000744A43F00103D361724BDB6903F00103FD
:1032B0007B627B6A0C237B630223BB630023FB637B
:1032C00003233B6407237B6407F1340319466A48F0
:1032D00002F0D4FB00220021262002F056F926201D
:1032E00002F06FF9BFE07B681B68654A934231D1F9
:1032F000604B5B6A5F4A43F4802353625D4B5B6AB9
:1033000003F480233B623B6A5A4BDB69594A43F022
:103310000203D361574BDB6903F00203FB61FB69D6
:103320004FF440637B630223BB630023FB630323EF
:103330003B6407237B6407F134031946514802F0CC
:103340009DFB00220021272002F01FF9272002F018
:1033500038F988E07B681B684B4A934231D1454B72
:103360005B6A444A43F400235362424B5B6A03F4B2
:103370000023BB61BB693F4BDB693E4A43F004035A
:10338000D3613C4BDB6903F004037B617B694FF441
:1033900040637B630223BB630123FB6303233B6422
:1033A00008237B6407F134031946384802F066FBB2
:1033B00000220021302002F0E8F8302002F001F96C
:1033C00051E07B681B68324A93424CD1294B5B6ABF
:1033D000284A43F480135362264B5B6A03F480133C
:1033E0003B613B69234BDB69224A43F00403D36111
:1033F000204BDB6903F00403FB60FB681D4BDB69BA
:103400001C4A43F00803D3611A4BDB6903F008033D
:10341000BB60BB684FF480537B630223BB63012313
:10342000FB6303233B6408237B6407F134031946E1
:10343000164802F023FB04237B630223BB630123B2
:10344000FB6303233B6408237B6407F134031946C1
:10345000104802F013FB00220021312002F095F801
:10346000312002F0AEF800BF4837BD4680BD00BF36
:103470000038014000380240000002400044004093
:103480000048004000040240004C00400008024098
:1034900000500040000C024080B500AF01F0E1F99F
:1034A00000F07EF8FEF7C4FFFEF7E6F8FFF792F9AA
:1034B000FFF7C8F9FFF77AF8FFF7CAFDFFF7F2FD4B
:1034C000FFF71AFEFFF742FEFFF76AFEFEF746F827
:1034D000FDF7E4FCFFF790FAFFF75CFBFFF7E2FA79
:1034E000FFF75EFBFFF7ACFBFFF7FAFBFEF7E2F836
:1034F00009F0C2F8FFF7CEF8FEF74AFD00F0CEF96A
:103500000120FDF73FFF642001F0E0F900F006FC28
:10351000642001F0DBF9012000F0BAFE642001F024
:10352000D5F9FDF7DBFF12480FF0A2FC11480FF0B0
:103530009FFC11480FF010FD104911480FF098FC46
:10354000104911480FF094FC104911480FF090FCFD
:1035500010480FF001FD10480FF0FEFC0F480FF06F
:10356000FBFC0BF069FBFEF7BBFD0BF097FBFEE7E6
:10357000846701088C67010894670108B067010837
:10358000B8670108C8670108D4670108E067010847
:10359000EC670108F8670108206801083C68010829
:1035A00080B592B000AF07F1140334220021184611
:1035B0000EF027FE3B4600221A605A609A60DA60DD
:1035C0001A61234B1B6823F4C053214A43F4006360
:1035D000136003237B610123BB6101233B62102342
:1035E0007B620223BB634FF48033FB634FF4801391
:1035F0003B644FF400037B6407F11403184604F0A6
:103600005BF80346002B02D0002000F089F80F235E
:103610003B6003237B600023BB600023FB6000232F
:103620003B613B460121184604F076FB0346002B24
:1036300002D0002000F074F84FF080424FF080710B
:10364000002004F09DFC00BF4837BD4680BD00BF90
:103650000070004080B582B000AF78607B681B6866
:103660000C4A934202D10C4B00221A807B681B68E3
:103670000A4A934201D101F00DF97B681B68084AA0
:10368000934203D12021074802F0B5FB00BF083761
:10369000BD4680BD00080040283A002000140040CC
:1036A000001000400004024080B483B000AF786096
:1036B0007B681B68084A934209D1084B1B685B6A08
:1036C0009AB2074B1A80054B1B6800225A6200BF52
:1036D0000C37BD4680BC704700080040E83C002025
:1036E000283A002080B485B000AF78600A4B1B6890
:1036F0000A4AA2FB03235B0B7A6802FB03F3FB601D
:1037000002E0FB68013BFB60FB68002BF9D100BFC6
:103710001437BD4680BC7047000000205917B7D150
:1037200080B584B000AF0346FB7101221021174819
:1037300002F049FB4FF4FA70FFF7D4FF002210218A
:10374000124802F040FB4FF4FA70FFF7CBFF002362
:10375000FB7312E0012210210C4802F034FB82209E
:10376000FFF7C0FF00221021084802F02CFB822046
:10377000FFF7B8FFFB7B0133FB73FA7BFB799A42BF
:10378000E8D34FF47A70FFF7ADFFCEE700080240B0
:1037900080B582B000AF4FF48061244802F0FCFA9B
:1037A0000346FB714FF40061204802F0F5FA03462E
:1037B000BB71FB79012B0CBF01230023DAB2BB796B
:1037C000012B0CBF01230023DBB21340DBB2002B23
:1037D00002D0174B00221A70FB79012B0CBF01237A
:1037E0000023DAB2BB79002B0CBF01230023DBB22C
:1037F0001340DBB2002B02D00D4B01221A70FB7973
:10380000002B0CBF01230023DAB2BB79012B0CBFC4
:1038100001230023DBB21340DBB2002B02D0044BA8
:1038200002221A7000BF0837BD4680BD000C02405E
:10383000883A002080B582B000AF0346FB71FB7967
:10384000012B0FD0022B18D0002B00D020E000223B
:103850004021114802F0B7FA002280210E4802F000
:10386000B2FA15E0012240210B4802F0ACFA002226
:103870008021094802F0A7FA0AE000224021064808
:1038800002F0A1FA01228021034802F09CFA00BF55
:1038900000BF0837BD4680BD0010024080B500AFB4
:1038A000FFF71EFA00F006F8642000F00DF800BFE4
:1038B00080BD000080B500AF0021024805F01AF974
:1038C00000BF80BDA83D002080B483B000AF034698
:1038D000FB71044B1B68FA795A6300BF0C37BD4675
:1038E00080BC7047A83D002080B485B000AF144B69
:1038F0005B6A134A43F000435362114B5B6A03F067
:103900000043FB60FB680E4B1B6A0D4A43F001034A
:1039100013620B4B1B6A03F00103BB60BB68084BCF
:103920005B6A074A43F080535362054B5B6A03F0BE
:1039300080537B607B6800BF1437BD4680BC7047F6
:103940000038024080B58CB000AF78600023FB6285
:103950000023BB62002279682C2001F016FE2C2087
:1039600001F02FFE1E4B5B6A1D4A43F02003536299
:103970001B4B5B6A03F02003FB60FB6807F110023E
:1039800007F114031146184604F02CFC04F002FC65
:10399000F862FB6A134AA2FB03239B0C013BBB6248
:1039A000114B124A1A60104B40F2E732DA600E4AAD
:1039B000BB6A53600C4B00221A610B4B00229A60C9
:1039C000094804F02FFF0346002B04D1064804F0F9
:1039D000D1FF034600E0012318463037BD4680BDC5
:1039E0000038024083DE1B43A83F00200014004043
:1039F00080B400AF00BFBD4680BC704780B400AF4C
:103A0000FEE780B400AFFEE780B400AFFEE780B40D
:103A100000AFFEE780B400AF00BFBD4680BC70477A
:103A200080B500AF024801F07AFF00BF80BD00BF43
:103A3000A43C002080B500AF024801F0D0F900BFDF
:103A400080BD00BF343A002080B500AF024802F0CC
:103A500027FC00BF80BD00BF4849002080B500AFF3
:103A6000024806F005FA00BF80BD00BFE83E002016
:103A700080B500AF024806F0FBF900BF80BD00BF73
:103A8000683F002080B500AF024806F0F1F900BFA2
:103A900080BD00BF683E002080B500AF024806F040
:103AA000E7F900BF80BD00BF283F002080B500AF10
:103AB000024806F0DDF900BF80BD00BFA83E00202F
:103AC00080B500AF024805F05BFA00BF80BD00BFC3
:103AD000683D002080B500AF024805F051FA00BFF4
:103AE00080BD00BFE83C002080B500AF024805F073
:103AF00047FA00BF80BD00BFE83D002080B500AFA1
:103B0000024805F03DFA00BF80BD00BFA83F00207D
:103B100080B586B000AFF860B9607A6000237B6141
:103B20000AE0AFF300800146BB685A1CBA60CAB213
:103B30001A707B6901337B617A697B689A42F0DB9A
:103B40007B6818461837BD4680BD80B586B000AF8B
:103B5000F860B9607A6000237B6109E0BB685A1C99
:103B6000BA601B781846FFF761FA7B6901337B6105
:103B70007A697B689A42F1DB7B6818461837BD4644
:103B800080BD80B483B000AF78604FF0FF3318463B
:103B90000C37BD4680BC704780B483B000AF7860FE
:103BA00039603B684FF400525A60002318460C37C6
:103BB000BD4680BC704780B483B000AF78600123FD
:103BC00018460C37BD4680BC704780B485B000AF46
:103BD000F860B9607A60002318461437BD4680BC8F
:103BE0007047000080B400AF034B4FF000629A6052
:103BF00000BFBD4680BC704700ED00E080B58AB0D4
:103C000000AF07F1140300221A605A609A60DA606C
:103C10001A61404BDB693F4A43F00103D3613D4BDE
:103C2000DB6903F001033B613B693A4BDB69394ACD
:103C300043F00203D361374BDB6903F00203FB60FF
:103C4000FB68344BDB69334A43F00403D361314BE7
:103C5000DB6903F00403BB60BB682E4BDB692D4AB4
:103C600043F00803D3612B4BDB6903F008037B604F
:103C70007B6800220121284802F0A5F800220421D7
:103C8000254802F0A0F800220221234802F09BF808
:103C900000220821204802F096F801237B610123CD
:103CA000BB610023FB6102233B6207F11403194649
:103CB000194801F0E3FE04237B610123BB6100236B
:103CC000FB6102233B6207F114031946124801F01D
:103CD000D5FE02237B610123BB610023FB6102232C
:103CE0003B6207F1140319460B4801F0C7FE082395
:103CF0007B610123BB610023FB6102233B6207F16F
:103D000014031946044801F0B9FE00BF2837BD4628
:103D100080BD00BF003802400008024080B500AFFF
:103D2000FEF790FD642000F0D1FDFFF767FF012250
:103D30000821704802F047F8642000F0C7FD00F049
:103D40003DFA642000F0C2FDF72000F0EDF8A92054
:103D500000F010F9512000F00DF92C2000F00AF9C4
:103D6000822000F007F9C02000F0DEF8112000F0FA
:103D700001F9092000F0FEF8C12000F0D5F841203B
:103D800000F0F8F8C52000F0CFF8002000F0F2F8BD
:103D90000A2000F0EFF8802000F0ECF8B12000F0ED
:103DA000C3F8B02000F0E6F8112000F0E3F8B420EA
:103DB00000F0BAF8022000F0DDF8B62000F0B4F808
:103DC000022000F0D7F8422000F0D4F8B72000F02D
:103DD000ABF8C62000F0CEF8BE2000F0A5F8002019
:103DE00000F0C8F8042000F0C5F8E92000F09CF8C5
:103DF000002000F0BFF8362000F096F8682000F0B0
:103E0000B9F83A2000F090F8662000F0B3F8E0200E
:103E100000F08AF8002000F0ADF8072000F0AAF8C2
:103E2000102000F0A7F8092000F0A4F8172000F0F7
:103E3000A1F80B2000F09EF8412000F09BF88920AB
:103E400000F098F84B2000F095F80A2000F092F866
:103E50000C2000F08FF80E2000F08CF8182000F0F5
:103E600089F81B2000F086F80F2000F083F8E1208D
:103E700000F05AF8002000F07DF8172000F07AF8E2
:103E80001A2000F077F8042000F074F80E2000F0FB
:103E900071F8062000F06EF82F2000F06BF8452036
:103EA00000F068F8432000F065F8022000F062F8A6
:103EB0000A2000F05FF8092000F05CF8322000F0E2
:103EC00059F8362000F056F80F2000F053F8112072
:103ED00000F02AF8782000F0F9FC292000F024F8FE
:103EE000002000F0D5F94FF6FF7000F0F7F800BFA2
:103EF00080BD00BF0008024080B483B000AF03461D
:103F0000FB7100BF074B1B689B6803F00203002B8B
:103F1000F8D0044B1B68FA79DA6000BF0C37BD4655
:103F200080BC7047F43B002080B582B000AF0346F0
:103F3000FB71002204210D4801F045FF0022012100
:103F40000A4801F040FFFB791846FFF7D5FFF91D3D
:103F50000A230122064804F05EFA012204210348E4
:103F600001F031FF00BF0837BD4680BD00080240A8
:103F7000F43B002080B582B000AF0346FB71002205
:103F800004210A4801F01FFF01220121074801F026
:103F90001AFFFB791846FFF7AFFF012204210348FF
:103FA00001F011FF00BF0837BD4680BD0008024088
:103FB00080B582B000AF03460A46FB711346BB8052
:103FC000FB791846FFF7B0FFBB88DBB21846FFF756
:103FD000D1FF00BF0837BD4680BD000080B500AFEF
:103FE000034B1B89DBB21846FFF79EFF00BF80BD65
:103FF000EC3F002080B584B000AF0346FB80FB8817
:104000001B0A9BB2DBB223F00703FB73FB88DB08C0
:104010009BB2DBB223F00303BB73FB88DBB2DB0094
:104020007B73002204211E4801F0CDFE01220121F4
:104030001B4801F0C8FE00BF1A4B1B689B6803F0C9
:104040000203002BF8D0174B1B68FA7BDA6000BF25
:10405000144B1B689B6803F00203002BF8D0114B34
:104060001B68BA7BDA6000BF0E4B1B689B6803F0CD
:104070000203002BF8D00B4B1B687A7BDA6000BF81
:10408000084B1B689B6803F00203002BF8D0012249
:104090000421034801F097FE00BF1037BD4680BDE4
:1040A00000080240F43B002080B582B000AF034618
:1040B0000A46FB801346BB80BA88FB881146184627
:1040C00000F03EF9044B1B881846FFF793FF00BF32
:1040D0000837BD4680BD00BF3003002080B584B0E6
:1040E00000AF0346FB80324B1B88013B9AB2304B3A
:1040F0005B88013B9BB20021002000F075F8002294
:1041000004212C4801F05FFE01220121294801F021
:104110005AFE274B5B881A46254B1B8803FB02F38C
:10412000FB60FB881B0A9BB2DBB223F00703FB7228
:10413000FB88DB089BB2DBB223F00303BB72FB8876
:10414000DBB2DB007B7226E000BF1B4B1B689B6869
:1041500003F00203002BF8D0174B1B68FA7ADA60E1
:1041600000BF154B1B689B6803F00203002BF8D0BF
:10417000114B1B68BA7ADA6000BF0F4B1B689B6853
:1041800003F00203002BF8D00B4B1B687A7ADA603D
:10419000FB68013BFB60FB68002BD5D101220421A9
:1041A000044801F010FE00BF1037BD4680BD00BFBF
:1041B000EC3F002000080240F43B002080B500AF37
:1041C00000220221074801F0FEFD642000F07EFB82
:1041D00001220221034801F0F6FD322000F076FBB7
:1041E00000BF80BD0008024090B583B000AF044618
:1041F000084611461A462346FB800346BB800B4601
:104200007B8013463B80214B5B89DBB21846FFF76E
:104210008BFEFB881B0A9BB2DBB21846FFF7AAFE97
:10422000FB88DBB21846FFF7A5FE7B881B0A9BB212
:10423000DBB21846FFF79EFE7B88DBB21846FFF71D
:1042400099FE124B9B89DBB21846FFF76DFEBB88C7
:104250001B0A9BB2DBB21846FFF78CFEBB88DBB2B1
:104260001846FFF787FE3B881B0A9BB2DBB2184655
:10427000FFF780FE3B88DBB21846FFF77BFEFFF7B7
:10428000ADFE00BF0C37BD4690BD00BFEC3F002027
:1042900080B582B000AF0346FB71284B2A225A81B9
:1042A000264B2B229A81254B2C221A81FB79032B3A
:1042B0003ED801A252F823F0C9420008E3420008A8
:1042C000FD420008174300081C4B4FF4A0721A80EF
:1042D0001A4B4FF4F0725A8008213620FFF768FE1F
:1042E00027E0164B4FF4F0721A80144B4FF4A07273
:1042F0005A8068213620FFF75BFE1AE00F4B4FF41F
:10430000A0721A800D4B4FF4F0725A80C8213620EB
:10431000FFF74EFE0DE0094B4FF4F0721A80074B89
:104320004FF4A0725A80A8213620FFF741FE00E02A
:1043300000BF00BF0837BD4680BD00BFEC3F002076
:1043400080B582B000AF03460A46FB801346BB80AF
:10435000BB88FA88B988F888FFF746FF00BF08379E
:10436000BD4680BD80B483B000AF78600B467B80D3
:1043700013463B80154A7B681360154A7B8813807F
:10438000144A3B881380114B1B681A78124B1A7021
:104390000E4B1B685A78114B1A700C4B1B689A789D
:1043A0000F4B1A70094B1B68DA780E4B1A70074BCB
:1043B0001B681A790C4B1A70044B1B685A790B4B0B
:1043C0001A7000BF0C37BD4680BC7047083A002009
:1043D00030030020040000202A3A00200C3A00207C
:1043E0001A3A0020193A0020183A00202B3A0020EF
:1043F00080B483B000AF03460A46FB801346BB80FF
:10440000FB88054A1360BB88044A136000BF0C3761
:10441000BD4680BC704700BF143A0020303A0020EF
:1044200090B589B000AF0446084611461A462346A7
:10443000FB800346BB800B46FB701346BB70744B7E
:104440001B78FA789A42C0F07B81724B1B78FA781D
:104450009A4200F275816E4B1B78FA78D31AFB7082
:104460006D4B1B781A466D4B1B6813446C4A1288BF
:10447000934218D9694B00221A606A4B1B781A467E
:10448000694B1B681344684A1360654B5B881A4686
:10449000644B1B78D31A1A46634B1B689A4202D8A6
:1044A000614B00221A60614B1A68FB7860490978F9
:1044B00001FB03F3063313447B617B691B78FB74B8
:1044C000BB78012B50D10023FB773CE00023BB7766
:1044D00031E0584B1B781A46BB7F03FB02F3FA7F8F
:1044E000D208D2B2134401337A6913441B78BB74E7
:1044F000FB7F03F00703012202FA03F3FB60BA7C9F
:10450000FB681340002B13D04B4AFB881380BB7F02
:104510009AB2424B1B689BB2134498B2FB7F9AB28B
:10452000414B1B689BB213449BB21946FFF7BCFD7D
:10453000BB7F0133BB77384B1B78BA7F9A42C8D315
:10454000FB7F0133FB77374B1B78FA7F9A42BDD351
:10455000334B1B88013B9AB2314B5B88013B9BB2CA
:1045600000210020FFF740FEBB78002B40F0D180F7
:104570002A4B1B6898B22C4B1B6899B2264B1B78B0
:104580009AB2264B1B689BB213449BB2013B9CB270
:10459000244B1B789AB2244B1B689BB213449BB2EA
:1045A0002246FFF721FE0023BB76A0E000237B76A6
:1045B00094E0204B1B781A467B7E03FB02F3BA7E05
:1045C000D208D2B2134401337A6913441B78BB7406
:1045D000BB7E03F00703012202FA03F3FB60BA7CFF
:1045E000FB681340002B29D1BB881B0A9BB2DBB2AE
:1045F00023F007037B77BB88DB089BB2DBB223F099
:1046000003033B77BB88DBB2DB00FB7628E000BF0F
:104610002A3A00200C3A0020193A0020143A0020CF
:10462000EC3F0020183A0020303A0020083A0020E1
:104630001A3A00202B3A002030030020FB881B0A86
:104640009BB2DBB223F007037B77FB88DB089BB2CE
:10465000DBB223F003033B77FB88DBB2DB00FB76A6
:1046600000220421384801F0AEFB01220121364826
:1046700001F0A9FB00BF354B1B689B6803F00203E8
:10468000002BF8D0314B1B687A7FDA6000BF2F4BCC
:104690001B689B6803F00203002BF8D02B4B1B68B0
:1046A0003A7FDA6000BF294B1B689B6803F0020366
:1046B000002BF8D0254B1B68FA7EDA6000BF234B35
:1046C0001B689B6803F00203002BF8D00122042131
:1046D0001D4801F078FB7B7E01337B761C4B1B78F9
:1046E0007A7E9A42FFF465AFBB7E0133BB76194BED
:1046F0001B78BA7E9A42FFF459AF174B1B88013BD7
:104700009AB2154B5B88013B9BB200210020FFF75A
:104710006BFDFB7C02330E4A1278934207DAFA7C77
:104720000E4B1B68134402330C4A136009E0084B1C
:104730001B781A46094B1B681344084A136000E0B3
:1047400000BF2437BD4690BD00080240F43B002066
:10475000193A0020183A0020EC3F0020143A0020BB
:1047600080B586B000AFBA607B600346FB810B4624
:10477000BB81FB89FB82BA8C3B8C19467868FFF7BA
:10478000F1FDBA89FB8911461846FFF731FE30E08A
:10479000FA891C4B1B8819461B4B1B785B08DBB244
:1047A000CB1A9A422ADCBA89164B5B881946174BFA
:1047B0001B78CB1A9A4221DCBB681B780D2B0BD1DE
:1047C000124B1B789AB2BB891344BB81FB8AFB81D5
:1047D000BB680133BB6009E00D4B18880D4B19888D
:1047E000BB681A7897F82830FFF71AFEBB680133C8
:1047F000BB60BB681B78002BCAD100E000BF183734
:10480000BD4680BDEC3F0020193A0020183A002038
:104810003003002004000020002103E00B4B5B5814
:10482000435004310A480B4B42189A42F6D30A4AC5
:1048300002E0002342F8043B084B9A42F9D3FFF709
:10484000D1F90DF0AFFCFEF727FE7047F8A701087D
:10485000000000201003002010030020384C00202E
:10486000FEE780B582B000AF0023FB71032000F0AB
:1048700081FE0020FFF766F80346002B02D00123DB
:10488000FB7101E0FFF730F8FB7918460837BD46A9
:1048900080BD000080B400AF054B1A68054B1B6853
:1048A0001344034A136000BFBD4680BC704700BF7D
:1048B000FC3F00200C00002080B400AF024B1B68BE
:1048C0001846BD4680BC7047FC3F002080B584B0D0
:1048D00000AF7860FFF7F0FFB8607B68FB60FB68B3
:1048E000B3F1FF3F04D0094B1B68FA681344FB6027
:1048F00000BFFFF7E1FF0246BB68D31AFA689A428D
:10490000F7D800BF1037BD4680BD00BF0C000020A7
:1049100080B58EB000AF7860002387F83730002371
:104920003B630023FB627B68002B01D1012327E15D
:104930007B681B69002B7B68DB6C002B15D17B68C7
:1049400000221A657B68002283F848208E4B1B6A80
:104950008D4A43F0010313628B4B1B6A03F0010382
:10496000BB60BB687868FCF7F3FA7B68DB6C03F02C
:104970001003002B40F0FF807B68DB6C23F488532E
:1049800023F0020343F002027B68DA647F4B5B682A
:1049900023F440327B685B687C4913434B607B683F
:1049A000DA687B685B691A437B6893F83C30194688
:1049B0004FF400733B623B6A93FAA3F3FB61FB691C
:1049C000B3FA83F3DBB201FA03F31A437B681B6A81
:1049D0001A437B6893F8243019460223BB62BB6AF2
:1049E00093FAA3F37B627B6AB3FA83F3DBB201FA37
:1049F00003F31343FA6A1343FB627B685B6B102B70
:104A000007D07B685A6B7B689B6B1343FA6A13432E
:104A1000FB627B681B681B6803F04003402B4FD090
:104A20007B689B69FA6A1343FB627B689A687B68C0
:104A3000DB6913437A681269B2F5807F03D07A6824
:104A40001269012A02D14FF4807200E00022134360
:104A50003A6B13433B637B6893F82C30012B25D1D1
:104A60007B6893F82430002B14D17B681B6B013BCF
:104A70004FF46042BA61BA6992FAA2F27A617A6935
:104A8000B2FA82F2D2B2934043F400633A6B13431A
:104A90003B630BE07B68DB6C43F020027B68DA64ED
:104AA0007B681B6D43F001027B681A657B681B689D
:104AB0005A68374B13407A681268396B0B4353605E
:104AC0007B681B689A68334B13407A681268F96AEE
:104AD0000B4393607B681B69B3F5807F03D07B68D1
:104AE0001B69012B19D17B681B681B6B23F0F871C4
:104AF0007B689B6A013B4FF0F8723A613A6992FA1F
:104B0000A2F2FA60FA68B2FA82F2D2B203FA02F2C0
:104B10007B681B680A431A6307E07B681B681A6B93
:104B20007B681B6822F0F8721A637B681B689A68BE
:104B3000194B1340FA6A9A420BD17B6800221A651E
:104B40007B68DB6C23F0030343F001027B68DA64CB
:104B500014E07B68DB6C23F0120343F010027B68E7
:104B6000DA647B681B6D43F001027B681A650123E0
:104B700087F8373002E0012387F8373097F837306D
:104B800018463837BD4680BD003802400027014036
:104B9000FF16FCFC89F1FFC0FEFF80BF80B584B02A
:104BA00000AF78600023FB737B6893F84830012BDB
:104BB00001D102234EE07B68012283F84820786807
:104BC00000F094FB0346FB73FB7B002B41D17B6819
:104BD000DB6C23F4E06323F0010343F480727B6811
:104BE000DA647B681B685B6803F48063002B07D082
:104BF0007B68DB6C23F4405343F480527B68DA64B7
:104C00007B68DB6C03F48053B3F5805F06D17B686F
:104C10001B6D23F006027B681A6502E07B680022A8
:104C20001A657B68002283F848207B681B686FF058
:104C300022021A607B681B689B6803F04053002BBC
:104C400007D17B681B689A687B681B6842F08042CA
:104C50009A60FB7B18461037BD4680BD80B584B096
:104C600000AF78600023FB737B6893F84830012B1A
:104C700001D102231AE07B68012283F8482078687A
:104C800000F08AFB0346FB73FB7B002B09D17B689A
:104C9000DB6C23F4885323F0010343F001027B68AB
:104CA000DA647B68002283F84820FB7B18461037C3
:104CB000BD4680BD80B584B000AF78603960002308
:104CC000FB607B681B689B6803F48063B3F5806FAF
:104CD00013D17B681B689B6803F48073B3F5807FF6
:104CE0000BD17B68DB6C43F020027B68DA647B6865
:104CF000002283F84820012361E0FFF7DDFDF86022
:104D00001AE03B68B3F1FF3F16D03B68002B07D099
:104D1000FFF7D2FD0246FB68D31A3A689A420BD2DB
:104D20007B68DB6C43F004027B68DA647B680022FA
:104D300083F84820032342E07B681B681B6803F06C
:104D40000203002BDDD07B689B69002B04D17B68BC
:104D50001B686FF012021A607B68DB6C43F4007210
:104D60007B68DA647B681B689B6803F04053002B08
:104D700024D17B6893F82430002B1FD17B681B68FB
:104D80001B6B03F0F873002B06D07B681B689B68D5
:104D900003F48063002B11D17B68DB6C23F48072F9
:104DA0007B68DA647B68DB6C03F48053002B05D1ED
:104DB0007B68DB6C43F001027B68DA6400231846F1
:104DC0001037BD4680BD80B483B000AF78607B688B
:104DD0001B689B6D18460C37BD4680BC704780B57C
:104DE00082B000AF78607B681B685B6803F02003CB
:104DF000202B4ED17B681B681B6803F00203022B3B
:104E000047D17B68DB6C03F01003002B05D17B6876
:104E1000DB6C43F400727B68DA647B681B689B6818
:104E200003F04053002B2CD17B6893F82430002BE7
:104E300027D17B681B681B6B03F0F873002B06D02F
:104E40007B681B689B6803F48063002B19D17B6827
:104E50001B685A687B681B6822F020025A607B68D6
:104E6000DB6C23F480727B68DA647B68DB6C03F4B0
:104E70008053002B05D17B68DB6C43F001027B681B
:104E8000DA64786800F0ABF87B681B686FF0120298
:104E90001A607B681B685B6803F08003802B5CD121
:104EA0007B681B681B6803F00403042B55D17B68E7
:104EB000DB6C03F01003002B05D17B68DB6C43F443
:104EC00000527B68DA647B681B689B6803F44013BC
:104ED000002B3AD17B681B685B6C03F44013002BFA
:104EE00006D07B681B689B6803F48063002B2CD181
:104EF0007B681B685B6803F48063002B25D17B68AB
:104F00001B689B6803F04053002B1ED17B6893F80D
:104F10002430002B19D17B681B685A687B681B689A
:104F200022F080025A607B68DB6C23F480527B683D
:104F3000DA647B68DB6C03F48073002B05D17B683B
:104F4000DB6C43F001027B68DA64786800F05EFA9B
:104F50007B681B686FF00C021A607B681B685B68DB
:104F600003F04003402B14D17B681B681B6803F0DF
:104F70000103012B0DD17B68DB6C43F480327B682D
:104F8000DA64786800F034F87B681B686FF001021F
:104F90001A607B681B685B6803F08063B3F1806F05
:104FA00019D17B681B681B6803F02003202B12D1EA
:104FB0007B681B6D43F002027B681A657B681B6887
:104FC0006FF020021A60786800F01BF87B681B689D
:104FD0006FF020021A6000BF0837BD4680BD80B464
:104FE00083B000AF786000BF0C37BD4680BC70470F
:104FF00080B483B000AF786000BF0C37BD4680BC82
:10500000704780B483B000AF786000BF0C37BD46F6
:1050100080BC704780B485B000AF786039600023F1
:10502000FB730023BB607B6893F84830012B01D1F0
:1050300002234FE17B68012283F848203B685B68CC
:10504000062B1CD87B681B68196C3B685A68134692
:105050009B001344053B1F2202FA03F3DB43194074
:105060003B6818683B685A6813469B001344053B2D
:1050700000FA03F27B681B680A431A647EE03B680F
:105080005B680C2B1CD87B681B68D96B3B685A6823
:1050900013469B001344233B1F2202FA03F3DB4316
:1050A00019403B6818683B685A6813469B001344D4
:1050B000233B00FA03F27B681B680A43DA635DE076
:1050C0003B685B68122B1CD87B681B68996B3B683C
:1050D0005A6813469B001344413B1F2202FA03F314
:1050E000DB4319403B6818683B685A6813469B00CD
:1050F0001344413B00FA03F27B681B680A439A633E
:105100003CE03B685B68182B1CD87B681B68596BBC
:105110003B685A6813469B0013445F3B1F2202FA08
:1051200003F3DB4319403B6818683B685A68134631
:105130009B0013445F3B00FA03F27B681B680A4341
:105140005A631BE07B681B68196B3B685A681346FF
:105150009B0013447D3B1F2202FA03F3DB431940FB
:105160003B6818683B685A6813469B0013447D3BB4
:1051700000FA03F27B681B680A431A633B681B68EA
:10518000092B1AD87B681B6859693B681A68134653
:105190005B001344072202FA03F3DB4319403B6828
:1051A00098683B681A6813465B00134400FA03F2E0
:1051B0007B681B680A435A615DE03B681B68132BE0
:1051C0001CD87B681B6819693B681A6813465B002A
:1051D00013441E3B072202FA03F3DB4319403B68EA
:1051E00098683B681A6813465B0013441E3B00FA3C
:1051F00003F27B681B680A431A613CE03B681B684A
:105200001D2B1CD87B681B68D9683B681A6813463D
:105210005B0013443C3B072202FA03F3DB431940D3
:105220003B6898683B681A6813465B0013443C3B34
:1052300000FA03F27B681B680A43DA601BE07B68B4
:105240001B68D96D3B681A6813465B0013445A3BD0
:10525000072202FA03F3DB4319403B6898683B6876
:105260001A6813465B0013445A3B00FA03F27B684A
:105270001B680A43DA653B681B68102B03D03B6848
:105280001B68112B21D1164B5B6803F40003002B24
:105290001BD1134B5B68124A43F4000353603B6815
:1052A0001B68102B11D10F4B1B680F4AA2FB032365
:1052B0009A0C13469B0013445B00BB6002E0BB6882
:1052C000013BBB60BB68002BF9D17B68002283F8EF
:1052D0004820FB7B18461437BD4680BC704700BF92
:1052E000002701400000002083DE1B4380B584B00E
:1052F00000AF78600023FB600023BB607B681B6805
:105300001B6803F04003402B3CD07B681B689A6805
:105310007B681B6842F001029A601D4B1B681D4AA6
:10532000A2FB03239A0C13465B001344BB6002E00C
:10533000BB68013BBB60BB68002BF9D1FFF7BCFA2F
:10534000F86018E0FFF7B8FA0246FB68D31A022BA0
:1053500011D97B68DB6C43F010027B68DA647B68F0
:105360001B6D43F001027B681A657B68002283F89D
:105370004820012307E07B681B681B6803F040039B
:10538000402BDFD1002318461037BD4680BD00BF3B
:105390000000002083DE1B4380B584B000AF78603E
:1053A0000023FB607B681B681B6803F04003402BF5
:1053B00027D17B681B689A687B681B6822F0010212
:1053C0009A60FFF779FAF86014E0FFF775FA024681
:1053D000FB68D31A022B0DD97B68DB6C43F01002FB
:1053E0007B68DA647B681B6D43F001027B681A6599
:1053F000012307E07B681B681B6803F04003402B18
:10540000E3D0002318461037BD4680BD80B483B07A
:1054100000AF786000BF0C37BD4680BC704700000D
:1054200080B485B000AF78607B6803F00703FB6051
:105430000C4BDB68BB60BA684FF6FF031340BB60E0
:10544000FB681A02BB68134343F0BF6343F40033A5
:10545000BB60044ABB68D36000BF1437BD4680BC44
:10546000704700BF00ED00E080B400AF044BDB6884
:105470001B0A03F007031846BD4680BC704700BFF7
:1054800000ED00E080B483B000AF0346FB7197F9F4
:105490000730002B0BDBFB7903F01F02064997F95D
:1054A00007305B09012000FA02F241F8232000BF17
:1054B0000C37BD4680BC704700E100E080B483B08B
:1054C00000AF03463960FB7197F90730002B0ADB08
:1054D0003B68DAB20C4997F907301201D2B20B449B
:1054E00083F800230AE03B68DAB20849FB7903F04D
:1054F0000F03043B1201D2B20B441A7600BF0C37E3
:10550000BD4680BC704700BF00E100E000ED00E058
:1055100080B489B000AFF860B9607A60FB6803F0CE
:105520000703FB61FB69C3F10703042B28BF0423B6
:10553000BB61FB690433062B02D9FB69033B00E026
:1055400000237B614FF0FF32BB6902FA03F3DA43B9
:10555000BB681A407B699A404FF0FF317B6901FAC2
:1055600003F3D9437B680B40134318462437BD46E9
:1055700080BC704780B582B000AF78607868FFF774
:105580004FFF00BF0837BD4680BD80B586B000AF75
:105590000346B9607A60FB7300237B61FFF764FF09
:1055A00078617A68B9687869FFF7B2FF024697F9BF
:1055B0000F3011461846FFF781FF00BF1837BD4670
:1055C00080BD80B582B000AF0346FB7197F907300C
:1055D0001846FFF757FF00BF0837BD4680BD80B5AE
:1055E00082B000AF78607B68002B01D1012314E00A
:1055F0007B681B79DBB2002B05D17B6800225A71D6
:105600007868FBF7D7FF7B6802221A717B6800225B
:105610001A617B6801221A71002318460837BD46BB
:1056200080BD80B483B000AF786039607B685B79FF
:10563000012B01D102233EE07B6801225A717B6875
:1056400002221A717B681B6819683B6803F010031B
:1056500001229A407B681B680A431A603B68002B52
:105660000FD17B681B681B6803F03C033C2B1BD1EC
:105670007B681B685A687B681B6842F001025A60AD
:1056800012E07B681B681B6803F470123C213B68C6
:1056900001FA03F39A4207D17B681B685A687B685A
:1056A0001B6842F002025A607B6801221A717B6813
:1056B00000225A71002318460C37BD4680BC704743
:1056C00080B487B000AFF860B9607A603B600023B7
:1056D0007B61FB681B687B61BB68002B05D17A6925
:1056E0007B68134408337B6104E07A697B68134468
:1056F00014337B617B691A463B68136000231846AC
:105700001C37BD4680BC704780B487B000AFF860DE
:10571000B9607A60FB685B79012B01D1022344E018
:10572000FB6801225A71FB6802221A71FB681B6830
:105730001B687B6140F6FE727B6802FA03F3DB4371
:105740007A6913407B61BB681A68BB685B68134366
:105750003B613A697B6802FA03F37A6913437B6120
:10576000FB681B687A691A60FB681B681968C022AD
:105770007B6802FA03F3DA43FB681B680A401A608D
:10578000FB681B6819687B6803F01003C02202FAEB
:1057900003F3DA43FB681B680A401A60FB680122C6
:1057A0001A71FB6800225A71002318461C37BD4647
:1057B00080BC704780B485B000AF78607B68002BF8
:1057C00001D1012359E07B681B681A462D4B9A4290
:1057D0000FD87B681B681A462B4B13442B4AA2FB3D
:1057E00003231B099A007B681A647B68284ADA63E2
:1057F0000EE07B681B681A46264B1344234AA2FB23
:1058000003231B099A007B681A647B68224ADA63C7
:105810007B68022283F821207B681B681B68FB6081
:10582000FB6823F4FF4323F07003FB607B685A6836
:105830007B689B681A437B68DB681A437B681B693B
:105840001A437B685B691A437B689B691A437B68D0
:10585000DB691343FA681343FB607B681B68FA68D3
:105860001A607B6800229A637B68012283F82120FA
:105870007B68002283F82020002318461437BD4699
:1058800080BC704707640240F89FFDBFCDCCCCCCF4
:1058900000600240F89BFDBF0064024080B584B008
:1058A00000AF78600023FB737B6893F82130DBB294
:1058B000022B05D07B6804229A630123FB7329E045
:1058C0007B681B681A687B681B6822F00E021A60EE
:1058D0007B681B681A687B681B6822F001021A60EB
:1058E0007B681B6C03F01C027B68DB6B012101FAF7
:1058F00002F25A607B68012283F821207B68002233
:1059000083F820207B685B6B002B03D07B685B6B8C
:1059100078689847FB7B18461037BD4680BD80B538
:1059200084B000AF78607B68DB6B1B68FB607B68D2
:105930001B681B68BB607B681B6C03F01C030422A4
:105940009A40FB681340002B26D0BB6803F0040389
:10595000002B21D07B681B681B6803F02003002B01
:1059600007D17B681B681A687B681B6822F00402F9
:105970001A607B681B6C03F01C027B68DB6B0421E4
:1059800001FA02F25A607B68DB6A002B71D07B68F7
:10599000DB6A786898476CE07B681B6C03F01C033B
:1059A00002229A40FB681340002B2ED0BB6803F004
:1059B0000203002B29D07B681B681B6803F02003BF
:1059C000002B0BD17B681B681A687B681B6822F070
:1059D0000A021A607B68012283F821207B681B6C15
:1059E00003F01C027B68DB6B022101FA02F25A60B1
:1059F0007B68002283F820207B689B6A002B38D0CC
:105A00007B689B6A7868984733E07B681B6C03F07F
:105A10001C0308229A40FB681340002B2AD0BB6865
:105A200003F00803002B25D07B681B681A687B688D
:105A30001B6822F00E021A607B681B6C03F01C02CC
:105A40007B68DB6B012101FA02F25A607B6801225C
:105A50009A637B68012283F821207B68002283F807
:105A600020207B681B6B002B04D07B681B6B786845
:105A7000984700BF00BF1037BD4680BD80B487B0D7
:105A800000AF7860396000237B610023FB60002356
:105A90003B6160E13B681A6801217B6901FA03F30D
:105AA0001340FB60FB68002B00F052813B685B6891
:105AB000012B0BD03B685B68022B07D03B685B680F
:105AC000112B03D03B685B68122B30D17B689B683D
:105AD0003B617B695B00032202FA03F3DB433A6913
