:020000040800F2
:10000000004001206D690008613B00086D3B00085D
:10001000733B0008793B00087F3B000800000000AC
:10002000000000000000000000000000413C01084A
:10003000853B000800000000113E0108593E010800
:10004000B5690008B5690008B5690008B569000818
:10005000B5690008B5690008B5690008B569000808
:10006000B5690008B5690008B5690008B5690008F8
:10007000B5690008B5690008B5690008913B00083A
:10008000B5690008B5690008A53B0008B569000816
:10009000B93B0008B5690008B5690008B5690008F2
:1000A000B5690008B5690008B5690008B5690008B8
:1000B000B5690008313C0008453C0008B5690008F6
:1000C000B5690008B5690008B5690008B569000898
:1000D000B5690008CD3B0008E13B0008F53B00088E
:1000E000B5690008B5690008B5690008593C000801
:1000F0006D3C000800000000B5690008B569000803
:10010000093C00081D3C0008B5690008B5690008F5
:10011000B5690008B5690008B5690008000000006D
:10012000B5690008000000000000000000000000A9
:0C01300000000000000000005FF808F173
:1001400010B5054C237833B9044B13B10448AFF311
:1001500000800123237010BD180300200000000060
:100160004499010808B5034B1BB103490348AFF399
:10017000008008BD000000001C0300204499010815
:1001800010F8012B11F8013B012A28BF9A42F7D041
:10019000D01A7047034613F8012B002AFBD1181A16
:1001A0000138704781F0004102E000BF83F0004356
:1001B00030B54FEA41044FEA430594EA050F08BF02
:1001C00090EA020F1FBF54EA000C55EA020C7FEAC6
:1001D000645C7FEA655C00F0E2804FEA5454D4EB43
:1001E0005555B8BF6D420CDD2C4480EA020281EA0D
:1001F000030382EA000083EA010180EA020281EA45
:100200000303362D88BF30BD11F0004F4FEA013196
:100210004FF4801C4CEA113102D0404261EB4101A5
:1002200013F0004F4FEA03334CEA133302D052422B
:1002300063EB430394EA050F00F0A780A4F10104E7
:10024000D5F1200E0DDB02FA0EFC22FA05F2801821
:1002500041F1000103FA0EF2801843FA05F3594107
:100260000EE0A5F120050EF1200E012A03FA0EFC86
:1002700028BF4CF0020C43FA05F3C01851EBE371B0
:1002800001F0004507D54FF0000EDCF1000C7EEBCD
:1002900000006EEB0101B1F5801F1BD3B1F5001F0B
:1002A0000CD349085FEA30004FEA3C0C04F101042A
:1002B0004FEA445212F5800F80F09A80BCF1004F53
:1002C00008BF5FEA500C50F1000041EB045141EAD5
:1002D000050130BD5FEA4C0C404141EB010111F4D6
:1002E000801FA4F10104E9D191F0000F04BF014681
:1002F0000020B1FA81F308BF2033A3F10B03B3F15F
:1003000020020CDA0C3208DD02F1140CC2F10C02EE
:1003100001FA0CF021FA02F10CE002F11402D8BF4C
:10032000C2F1200C01FA02F120FA0CFCDCBF41EA18
:100330000C019040E41AA2BF01EB0451294330BDE7
:100340006FEA04041F3C1CDA0C340EDC04F11404C4
:10035000C4F1200220FA04F001FA02F340EA03009B
:1003600021FA04F345EA030130BDC4F10C04C4F1E1
:10037000200220FA02F001FA04F340EA03002946C1
:1003800030BD21FA04F0294630BD94F0000F83F40B
:10039000801306BF81F480110134013D4EE77FEAEE
:1003A000645C18BF7FEA655C29D094EA050F08BF3A
:1003B00090EA020F05D054EA000C04BF194610461B
:1003C00030BD91EA030F1EBF0021002030BD5FEA5F
:1003D000545C05D14000494128BF41F0004130BD87
:1003E00014F580043CBF01F5801130BD01F00045DB
:1003F00045F0FE4141F470014FF0000030BD7FEA4E
:10040000645C1ABF194610467FEA655C1CBF0B4648
:10041000024650EA013406BF52EA033591EA030F5F
:1004200041F4002130BD00BF90F0000F04BF002157
:10043000704730B54FF4806404F132044FF000058A
:100440004FF0000150E700BF90F0000F04BF002103
:10045000704730B54FF4806404F1320410F0004569
:1004600048BF40424FF000013EE700BF42004FEA64
:10047000E2014FEA31014FEA02701FBF12F07F43E1
:1004800093F07F4F81F06051704732F07F4208BF98
:10049000704793F07F4F04BF41F40021704730B59F
:1004A0004FF4607401F0004521F000411CE700BFEB
:1004B00050EA010208BF704730B54FF000050AE06E
:1004C00050EA010208BF704730B511F0004502D56F
:1004D000404261EB41014FF4806404F132045FEA71
:1004E000915C3FF4D8AE4FF003025FEADC0C18BF1A
:1004F00003325FEADC0C18BF033202EBDC02C2F10C
:10050000200300FA03FC20FA02F001FA03FE40EA9D
:100510000E0021FA02F11444BDE600BF70B54FF0A1
:10052000FF0C4CF4E06C1CEA11541DBF1CEA13557F
:1005300094EA0C0F95EA0C0F00F0DEF82C4481EAE7
:10054000030621EA4C5123EA4C5350EA013518BF07
:1005500052EA033541F4801143F4801338D0A0FBF4
:1005600002CE4FF00005E1FB02E506F00042E0FBA1
:1005700003E54FF00006E1FB03569CF0000F18BFA7
:100580004EF0010EA4F1FF04B6F5007F64F540744F
:1005900004D25FEA4E0E6D4146EB060642EAC621E2
:1005A00041EA55514FEAC52040EA5E504FEACE2E4F
:1005B000B4F1FD0C88BFBCF5E06F1ED8BEF1004F52
:1005C00008BF5FEA500E50F1000041EB045170BDCE
:1005D00006F0004646EA010140EA020081EA030112
:1005E000B4EB5C04C2BFD4EB0C0541EA045170BD0E
:1005F00041F480114FF0000E013C00F3AB8014F188
:10060000360FDEBF002001F0004170BDC4F10004D0
:10061000203C35DA0C341BDC04F11404C4F1200551
:1006200000FA05F320FA04F001FA05F240EA0200AC
:1006300001F0004221F0004110EBD37021FA04F6E2
:1006400042EB06015EEA430E08BF20EAD37070BD9C
:10065000C4F10C04C4F1200500FA04F320FA05F0FB
:1006600001FA04F240EA020001F0004110EBD370FD
:1006700041F100015EEA430E08BF20EAD37070BD6D
:10068000C4F1200500FA05F24EEA020E20FA04F346
:1006900001FA05F243EA020321FA04F001F00041F5
:1006A00021FA04F220EA020000EBD3705EEA430E66
:1006B00008BF20EAD37070BD94F0000F0FD101F095
:1006C0000046400041EB010111F4801F08BF013CCE
:1006D000F7D041EA060195F0000F18BF704703F00C
:1006E0000046520043EB030313F4801F08BF013D93
:1006F000F7D043EA0603704794EA0C0F0CEA13554F
:1007000018BF95EA0C0F0CD050EA410618BF52EA08
:100710004306D1D181EA030101F000414FF000000E
:1007200070BD50EA410606BF1046194652EA43061C
:1007300019D094EA0C0F02D150EA013613D195EA90
:100740000C0F05D152EA03361CBF104619460AD1D8
:1007500081EA030101F0004141F0FE4141F47001E2
:100760004FF0000070BD41F0FE4141F4780170BDD2
:1007700070B54FF0FF0C4CF4E06C1CEA11541DBF37
:100780001CEA135594EA0C0F95EA0C0F00F0A7F839
:10079000A4EB050481EA030E52EA03354FEA013166
:1007A00000F088804FEA03334FF0805545EA131379
:1007B00043EA12634FEA022245EA111545EA106541
:1007C0004FEA00260EF000419D4208BF964244F1D8
:1007D000FD0404F5407402D25B084FEA3202B61AF7
:1007E00065EB03055B084FEA32024FF480104FF4CB
:1007F000002CB6EB020E75EB030E22BFB61A75463F
:1008000040EA0C005B084FEA3202B6EB020E75EBD1
:10081000030E22BFB61A754640EA5C005B084FEA39
:100820003202B6EB020E75EB030E22BFB61A754606
:1008300040EA9C005B084FEA3202B6EB020E75EB11
:10084000030E22BFB61A754640EADC0055EA060ED2
:1008500018D04FEA051545EA16754FEA06164FEA15
:10086000C30343EA52734FEAC2025FEA1C1CC0D1C1
:1008700011F4801F0BD141EA00014FF000004FF04E
:10088000004CB6E711F4801F04BF01430020B4F10F
:10089000FD0C88BFBCF5E06F3FF6AFAEB5EB030CC7
:1008A00004BFB6EB020C5FEA500C50F1000041EBC4
:1008B000045170BD0EF0004E4EEA113114EB5C0491
:1008C000C2BFD4EB0C0541EA045170BD41F4801164
:1008D0004FF0000E013C90E645EA060E8DE60CEA6C
:1008E000135594EA0C0F08BF95EA0C0F3FF43BAF89
:1008F00094EA0C0F0AD150EA01347FF434AF95EA40
:100900000C0F7FF425AF104619462CE795EA0C0F23
:1009100006D152EA03353FF4FDAE1046194622E7F0
:1009200050EA410618BF52EA43067FF4C5AE50EACA
:1009300041047FF40DAF52EA43057FF4EBAE12E7BA
:100940004FF0FF3C06E000BF4FF0010C02E000BF9B
:100950004FF0010C4DF804CD4FEA410C7FEA6C5C7E
:100960004FEA430C18BF7FEA6C5C1BD001B050EA21
:10097000410C0CBF52EA430C91EA030F02BF90EA0C
:10098000020F0020704710F1000F91EA030F58BFCB
:10099000994208BF90422CBFD8176FEAE37040F02D
:1009A000010070474FEA410C7FEA6C5C02D150EACB
:1009B000013C07D14FEA430C7FEA6C5CD6D152EA86
:1009C000033CD3D05DF8040B704700BF844610464B
:1009D00062468C461946634600E000BF01B5FFF74A
:1009E000B7FF002848BF10F1000F01BD4DF808ED1A
:1009F000FFF7F4FF0CBF012000205DF808FB00BFEB
:100A00004DF808EDFFF7EAFF34BF012000205DF844
:100A100008FB00BF4DF808EDFFF7E0FF94BF012091
:100A200000205DF808FB00BF4DF808EDFFF7CEFF92
:100A300094BF012000205DF808FB00BF4DF808EDD1
:100A4000FFF7C4FF34BF012000205DF808FB00BFA2
:100A50004FEA410C7FEA6C5C02D150EA013C0AD1BA
:100A60004FEA430C7FEA6C5C02D152EA033C02D1AC
:100A70004FF0000070474FF0010070474FEA41020D
:100A800012F5001215D211D56FF47873B3EB6252E0
:100A900012D94FEAC12343F0004343EA505311F007
:100AA000004F23FA02F018BF404270474FF0000099
:100AB000704750EA013005D111F0004008BF6FF0D7
:100AC000004070474FF00000704700BF4A0011D24D
:100AD00012F5001211D20DD56FF47873B3EB625298
:100AE0000ED44FEAC12343F0004343EA505323FAA4
:100AF00002F070474FF00000704750EA013002D119
:100B00004FF0FF3070474FF0000070474FEA41024E
:100B1000B2F1E04324BFB3F5001CDCF1FE5C0DD95B
:100B200001F0004C4FEAC0024CEA5070B2F1004FA5
:100B300040EB830008BF20F00100704711F0804FA8
:100B400021D113F13872BCBF01F00040704741F46D
:100B500080114FEA5252C2F11802C2F1200C10FA71
:100B60000CF320FA02F018BF40F001004FEAC12355
:100B70004FEAD32303FA0CFC40EA0C0023FA02F3F9
:100B80004FEA4303CCE77FEA625307D150EA0133CF
:100B90001EBF4FF0FE4040F44000704701F000409F
:100BA00040F0FE4040F40000704700BF53B94AB91E
:100BB000002908BF00281CBF4FF0FF314FF0FF3065
:100BC00000F074B9ADF1080C6DE904CE00F006F840
:100BD000DDF804E0DDE9022304B070472DE9F047B9
:100BE0008C460446089E002B4BD18A42154667D995
:100BF000B2FA82F24AB1C2F1200701FA02F320FAF6
:100C000007F7954047EA030C94404FEA154EBCFBAA
:100C1000FEF71FFA85F80EFB17C307FB08F9210C36
:100C200041EA0343994509D9EB1807F1FF3180F0F8
:100C30001C81994540F21981023F2B44A3EB090323
:100C4000B3FBFEF00EFB103300FB08F1A4B244EA44
:100C50000344A14209D92C1900F1FF3380F0078128
:100C6000A14240F2048102382C4440EA07400027A8
:100C7000641A1EB10023D440C6E900433946BDE8DA
:100C8000F0878B4209D9002E00F0EC800027C6E9DE
:100C9000000138463946BDE8F087B3FA83F7002FE4
:100CA00048D18B4202D3824200F2FB80841A61EB6E
:100CB000030301209C46002EE0D0C6E9004CDDE78E
:100CC00002B9FFDEB2FA82F2002A40F08F800127DB
:100CD000491B4FEA15481FFA85F9B1FBF8FE08FBDE
:100CE0001E1109FB0EF04FEA144C4CEA01439842E6
:100CF00007D9EB180EF1FF3102D2984200F2CD80F5
:100D00008E461B1AB3FBF8F008FB103309FB00F901
:100D1000A4B244EA0344A14507D92C1900F1FF33DA
:100D200002D2A14500F2B6801846A4EB090440EABD
:100D30000E409EE7C7F12005BB4022FA05FC4CEAB5
:100D4000030C21FA05F44FEA1C4EB4FBFEF91FFA1E
:100D50008CF80EFB194420FA05F3B94009FB08FA98
:100D600019430B0C43EA0444A24502FA07F200FAC5
:100D700007F30BD91CEB040409F1FF3080F08880E5
:100D8000A24540F28580A9F102096444A4EB0A045B
:100D9000B4FBFEF00EFB104400FB08FA89B241EAF6
:100DA0000444A24508D91CEB040400F1FF316BD2C6
:100DB000A24569D90238644440EA0940A0FB02898F
:100DC000A4EB0A044C454146CE4654D351D0002EE4
:100DD00069D05A1A64EB0E0404FA05F522FA07F3F7
:100DE000FC401D43C6E90054002747E79540C2F187
:100DF000200321FA03F04FEA1548B0FBF8F71FFA79
:100E000085F908FB170024FA03F3914007FB09FC5E
:100E10000B43190C41EA00418C4504FA02F407D94E
:100E2000691807F1FF3031D28C452FD9023F294490
:100E3000A1EB0C01B1FBF8F008FB101C00FB09FE54
:100E400099B241EA0C418E4507D9691800F1FF3388
:100E500018D28E4516D902382944A1EB0E0140EA7A
:100E600007473AE73746304608E70F46E6E61846B2
:100E7000FBE64345ABD2B8EB020169EB0C0201384B
:100E80009646A4E71846E8E7084695E70746CFE701
:100E900081467BE702382C4447E7AEF1020E2B4433
:100EA0002FE7384607E73746E8E600BF704700BF40
:100EB00080B584B000AF3B1D00221A605A609A6072
:100EC000264B274A1A60254B00225A60234B0022EA
:100ED0009A60224B0022DA60204B00221A611F4BDD
:100EE00000225A611D4B00229A611C4B0022DA61DC
:100EF0001A4B00221A62194B002283F82420174B48
:100F000001229A62154B002283F82C20134B1022E9
:100F10005A63124B00229A63104B002283F83C2044
:100F20000E4805F09FFD0346002B02D0022002F080
:100F3000AFFC10237B600123BB600023FB603B1DE3
:100F40001946064806F010F90346002B02D002208D
:100F500002F09EFC00BF1037BD4680BD3C8A0020D9
:100F60000024014080B58CB000AF786007F11C030D
:100F700000221A605A609A60DA601A617B681B6806
:100F8000314A93425CD1314B1B6A304A43F40073BF
:100F900013622E4B1B6A03F40073BB61BB692B4BBE
:100FA000DB692A4A43F00103D361284BDB6903F074
:100FB00001037B617B69254BDB69244A43F0040311
:100FC000D361224BDB6903F004033B613B691F4B98
:100FD000DB691E4A43F01003D3611C4BDB6903F04D
:100FE0001003FB60FB680323FB6103233B620023C8
:100FF0007B6207F11C031946154806F0E9FD202322
:10100000FB6103233B6200237B6207F11C0319464B
:10101000104806F0DDFD4FF44073FB6103233B6293
:1010200000237B6207F11C0319460B4806F0D0FD34
:1010300000220021122006F052FB122006F06BFB6A
:1010400000BF3037BD4680BD00240140003802405B
:1010500000000240000802400010024080B586B047
:1010600000AF786007F10C0300221A605A609A60A2
:1010700001233B6102237B617B68FB6007F10C036A
:1010800019460F4806F070F80346002B02D00220E4
:1010900002F0FEFB0A4805F02BFE0A21084805F085
:1010A000B3FE074805F039FF0246064B5A60044874
:1010B00005F07EFE034B5B6818461837BD4680BDC1
:1010C0003C8A0020988A002098B500AFA84B0022E7
:1010D0001A701120FFF7C2FFA54B5B68B3F5805F64
:1010E00022D2A44B1B881A4640F6B83303FB02F207
:1010F0009F4B5968A04B9B68DB0D01FA03F3B2FBD1
:10110000F3F31846FFF790F94FF000029B4BFFF7FF
:101110002FFB03460C46964AC2E90234944B1B78D7
:101120000133DAB2924B1A701020FFF797FF904B01
:101130005B68B3F5805F29D28D4B5B6840F6E44273
:1011400002FB03F38E4AA2FB03239B091A468D4B35
:101150001B88D21A13469B0013441B011A468A4B64
:101160001B881946874B1B88CB1A92FBF3F31C3361
:101170001846FFF769F903460C467D4AC2E9043474
:101180007B4B1B780133DAB2794B1A700F20FFF7D3
:1011900065FF774B5B68B3F5805F35D2744B5B6856
:1011A0001846FFF741F966A3D3E90023FFF7B6F924
:1011B00003460C466E4AC2E908346D4BD3E9080178
:1011C00061A3D3E90023FFF7D3FA03460C46184680
:1011D00021464FF000026D4BFFF7A0F903460C4685
:1011E00018462146FFF772FC0346DAB2604B83F8DB
:1011F00028205F4B93F82820654B1A705C4B1B78B6
:101200000133DAB25A4B1A700120FFF727FF584B0F
:101210005B68B3F5805F1DD2554B5B681846FFF7DE
:1012200003F947A3D3E90023FFF778F903460C46F7
:101230001846214646A3D3E90023FFF76FF903467A
:101240000C464B4AC2E90C34494B1B780133DAB2E5
:10125000474B1A700020FFF701FF454B5B68B3F561
:10126000805F1DD2424B5B681846FFF7DDF834A360
:10127000D3E90023FFF752F903460C4618462146EE
:1012800035A3D3E90023FFF749F903460C46384A52
:10129000C2E90E34364B1B780133DAB2344B1A7084
:1012A0001720FFF7DBFE324B5B68B3F5805F1DD282
:1012B0002F4B5B681846FFF7B7F821A3D3E900234B
:1012C000FFF72CF903460C461846214624A3D3E920
:1012D0000023FFF723F903460C46254AC2E91034E0
:1012E000234B1B780133DAB2214B1A701820FFF719
:1012F000B5FE1F4B5B68B3F5805F1DD21C4B5B686E
:101300001846FFF791F80EA3D3E90023FFF706F97B
:1013100003460C461846214613A3D3E90023FFF7E2
:10132000FDF803460C46124AC2E91234104B1B78F2
:101330000133DAB20E4B1A7000BF98BDAFF30080D4
:101340006666666666664A3F6666666666660A4002
:101350000AD7A3703D0A18401F85EB51B81E1840EC
:10136000CDCCCCCCCCCC10409A9999999999094084
:10137000988A0020F800F81F3C8A002000408F4027
:10138000F1197605FA00F81FFE00F81F0000594019
:101390005888002080B590B000AF0346FB714E4BDB
:1013A000DB694D4A43F00103D3614B4BDB6903F02A
:1013B00001033B623B6A484BDB69474A43F0020347
:1013C000D361454BDB6903F00203FB61FB69424BD0
:1013D000DB69414A43F00403D3613F4BDB6903F00F
:1013E0000403BB61BB693C4BDB693B4A43F0080328
:1013F000D361394BDB6903F008037B617B69364BB2
:10140000DB69354A43F01003D361334BDB6903F0EA
:1014100010033B613B69304BDB692F4A43F02003EB
:10142000D3612D4BDB6903F02003FB60FB680022D6
:1014300020212A4806F071FD274BDB69264A43F03C
:101440000103D361244BDB6903F00103BB60BB687C
:101450002023FB6201233B6302237B630023BB63E6
:1014600007F12C0319461D4806F0B2FB1C4AFB7914
:1014700013701C4B1C4A1A601A4B20225A60194BDD
:101480007922DA60174B00229A60164B00225A61CB
:10149000144809F071FA0346002B02D0042002F030
:1014A000F7F900237B620023BB6207F1240319468E
:1014B0000C480AF043FC0346002B02D0042002F043
:1014C000E7F9084801F04CFD064801F0EBFD00BFCC
:1014D0004037BD4680BD00BF0038024000040240D6
:1014E000E88A0020E08D00200010004080B582B026
:1014F00000AF0E4B1B78012B13D14623FB8006E077
:1015000020210B4806F021FD012005F089FAFB8817
:101510005A1EFA80002BF3D100222021044806F045
:10152000FCFC00BF0837BD4680BD00BFE88A002034
:101530000004024080B500AF094B1B78012B0DD190
:10154000084809F0C1FA46200FF07CFD054809F073
:101550000DFB00222021044806F0DFFC00BF80BD07
:10156000E88A0020E08D00200004024080B582B0AF
:1015700000AF3B4600221A605A60104B104A1A60B6
:101580000E4806F0D6F80346002B02D0032002F0E6
:101590007FF900233B6000237B603B460022194615
:1015A000064806F05BF90346002B02D0032002F048
:1015B0006FF900BF0837BD4680BD00BFEC8A002030
:1015C0000074004080B58AB000AF786007F1140362
:1015D00000221A605A609A60DA601A617B681B68A0
:1015E000154A934223D1154B5B6A144A43F00053CA
:1015F0005362124B5B6A03F000533B613B690F4B34
:10160000DB690E4A43F00103D3610C4BDB6903F045
:101610000103FB60FB6810237B610323BB61002394
:10162000FB6107F114031946054806F0D1FA00BF23
:101630002837BD4680BD00BF00740040003802401E
:101640000000024080B582B000AF0346FB71FB7919
:10165000082200210B4806F0DDF80346002B02D0DB
:10166000152002F015F90021064806F084F803461B
:10167000002B02D0152002F00BF900BF0837BD4641
:1016800080BD00BFEC8A002080B582B000AF0C4B5B
:10169000DB690B4A43F08073D361094BDB6903F0CC
:1016A00080737B607B68002200210F2006F017F812
:1016B0000F2006F030F800BF0837BD4680BD00BFE0
:1016C0000038024080B58CB000AF07F11C03002247
:1016D0001A605A609A60DA601A61424BDB69414ACB
:1016E00043F00103D3613F4BDB6903F00103BB61AE
:1016F000BB693C4BDB693B4A43F00203D361394B86
:10170000DB6903F002037B617B69364BDB69354A99
:1017100043F00403D361334BDB6903F004033B6103
:101720003B69304BDB692F4A43F00803D3612D4BF3
:10173000DB6903F00803FB60FB682A4BDB69294A7D
:1017400043F01003D361274BDB6903F01003BB6048
:10175000BB68244BDB69234A43F02003D361214B50
:10176000DB6903F020037B607B68012201211E48B6
:1017700006F0D3FB012202211B4806F0CEFB01221A
:101780000421194806F0C9FB0123FB6101233B62D8
:1017900000237B620323BB6207F11C031946124836
:1017A00006F016FA0223FB6101233B6200237B62F1
:1017B0000323BB6207F11C0319460B4806F008FA25
:1017C0000423FB6101233B6200237B620323BB6292
:1017D00007F11C031946044806F0FAF900BF303738
:1017E000BD4680BD003802400004024080B588B08C
:1017F00000AF78600B467B8007F10C0300221A6073
:101800005A609A60DA601A617B88FB6000233B6152
:1018100007F10C031946786806F0DAF900BF2037A3
:10182000BD4680BD80B588B000AF78600B467B8038
:1018300007F10C0300221A605A609A60DA601A619C
:101840007B88FB6001233B6107F10C031946786834
:1018500006F0BEF900BF2037BD4680BD80B584B01C
:1018600000AF78600B467B800123FB737B881946B1
:101870007868FFF7D7FF72B67B8800221946786830
:1018800006F04BFB4FF4F07001F06AFC7B880122FC
:101890001946786806F041FB7B8819467868FFF79F
:1018A000A5FF3C2001F05CFC7B881946786806F0B7
:1018B0001DFB0346FB7362B64FF4D27001F050FC7F
:1018C000FB7B18461037BD4680BD80B582B000AFA7
:1018D00078600B467B8013467B707B88002219461C
:1018E000786806F01AFB012001F03AFC7B78012BA6
:1018F00005D17B8801221946786806F00EFB3C2052
:1019000001F02EFC7B8801221946786806F005FB61
:1019100000BF0837BD4680BD80B584B000AF786099
:101920000B467B8013467B700823FB730023BB733D
:101930007B8819467868FFF775FF72B60CE07B78F4
:1019400003F00103BB73BA7B7B8819467868FFF705
:10195000BCFF7B785B087B70FB7B5A1EFA73002B05
:10196000EDD162B600BF1037BD4680BD80B584B0F2
:1019700000AF78600B467B8000237B730523FB81DF
:101980007B8819467868FFF74DFF7B88002219464F
:10199000786806F0C2FA00BFFB895A1EFA81002B54
:1019A000FAD17B8801221946786806F0B6FA7B885E
:1019B00019467868FFF71AFF7B881946786806F0A1
:1019C00095FA03467B73322001F0CAFB7B7B1846F5
:1019D0001037BD4680BD80B584B000AF78600B463F
:1019E0007B800823FB730023BB7372B60FE0BB7BC5
:1019F0005B08BB737B8819467868FFF7B7FF03461F
:101A0000DB015AB297F90E3013435BB2BB73FB7B19
:101A10005A1EFA73002BEAD162B6BB7B1846103708
:101A2000BD4680BD80B582B000AF78600B467B803C
:101A30007B8819467868FFF711FF7B88CC2219460E
:101A40007868FFF769FF7B884E2219467868FFF7B0
:101A500063FF7B88002219467868FFF75DFF7B886B
:101A6000002219467868FFF757FF7B887F221946C6
:101A70007868FFF751FF7B8819467868FFF7EEFE1C
:101A80007B88CC2219467868FFF746FF7B88442282
:101A900019467868FFF740FF00BF0837BD4680BD94
:101AA00080B588B000AF78600B467B804DF6FF7341
:101AB000FB837B8819467868FFF7D0FE0346002B2E
:101AC0003ED17B88CC2219467868FFF725FF7B88BA
:101AD000BE2219467868FFF71FFF0023BB610FE0A5
:101AE0007B8819467868FFF776FF0346194607F1A9
:101AF0000802BB6913440A461A70BB690133BB6113
:101B0000BB69082BECDD7B8819467868FFF7A6FED9
:101B100007F108030921184600F0ECF80346002BF2
:101B20000BD13B7AFB827B7ABB82BB8A1B029AB2C7
:101B3000FB8A13449BB2FB8302E04DF6FF73FB83E9
:101B4000FB8B18462037BD4680BD000090B585B0A0
:101B500000AF0346FB804FF00003624CC7E902343C
:101B6000FB88B3F5006F63D34FF000034FF0000420
:101B7000C7E90234FB8803F00103002B0AD04FF0C1
:101B80000002594BD7E90201FEF712FB03460C464F
:101B9000C7E90234FB8803F00203002B0BD04FF09F
:101BA00000024FF07F53D7E90201FEF701FB034625
:101BB0000C46C7E90234FB8803F00403002B0AD06B
:101BC0004FF00002494BD7E90201FEF7F1FA034654
:101BD0000C46C7E90234FB8803F00803002B0AD047
:101BE0004FF00002424BD7E90201FEF7E1FA03464B
:101BF0000C46C7E90234FB881B099BB2DBB2FB80B1
:101C0000FB88013BFB80FB88DB43FB80FB88DBB26E
:101C10001846FEF719FC03460C461A462346D7E938
:101C20000201FEF7C3FA03460C46C7E9023451E04D
:101C30004FF000034FF00004C7E90234FB881B0992
:101C40009BB2DBB21846FEF7FFFB03460C46C7E922
:101C50000234FB8803F00103002B0AD04FF000028E
:101C6000214BD7E90201FEF7A3FA03460C46C7E968
:101C70000234FB8803F00203002B0BD04FF000026C
:101C80004FF07F53D7E90201FEF792FA03460C4664
:101C9000C7E90234FB8803F00403002B0AD04FF09D
:101CA0000002124BD7E90201FEF782FA03460C4606
:101CB000C7E90234FB8803F00803002B0AD04FF079
:101CC00000020B4BD7E90201FEF772FA03460C46FD
:101CD000C7E90234D7E90234184621461437BD4615
:101CE00090BD00BF00004CC00000B03F0000D03FDE
:101CF0000000E03F80B485B000AF78600B467B8089
:101D00000023FB730023BB812AE0BB897A6813445C
:101D10001B78BB720823FB72FA7BBB7A5340DBB2A1
:101D200003F001037B727B7A012B03D1FB7B83F0F1
:101D30001803FB73FB7B5B08FB737B7A012B03D1DE
:101D4000FB7B63F07F03FB73BB7A5B08BB72FB7AA0
:101D5000013BFB72FB7A002BDED1BB890133BB81D7
:101D6000BA897B889A42D0D1FB7B18461437BD468E
:101D700080BC704780B586B004AF03460A46FB803E
:101D80001346BB800C4B1B781A460C490C4813F0C9
:101D900009FE0023029347F6FF7301934FF4784343
:101DA0000093084B064AE621C82002F091FD00BFCF
:101DB0000837BD4680BD00BF5888002060990108E3
:101DC000C890002058DB010890B589B004AF0346E5
:101DD0000A46FB801346BB801E4BFB601E4B03F183
:101DE0000804D4E900341A4623461C491C4813F061
:101DF000D9FDB988F8880023029347F6FF73019351
:101E00004FF478430093FB68154A02F061FD124BD2
:101E100003F11004D4E9003418462146FEF72EFEE3
:101E200003461A460F490E4813F0BCFDBB880A331F
:101E300099B2F8880023029347F6FF7301934FF499
:101E400078430093FB68064A02F042FD00BF143756
:101E5000BD4690BDB0D20108988A0020689901085B
:101E6000C89000207899010880B588B004AF034677
:101E7000FB800B46BB801346FB701D4BFB60FB7861
:101E8000012B13D0022B20D0002B00D02CE0B988DE
:101E9000F8880023029347F67C5301934FF478436C
:101EA0000093FB68134A02F013FD1DE0B988F8881F
:101EB0000023029347F67C5301934FF47843009339
:101EC000FB680D4A02F004FD0EE0B988F888002393
:101ED000029347F67C5301934FF478430093FB68D9
:101EE000064A02F0F5FC00BF00BF1037BD4680BDBA
:101EF00048A80108849901088C990108949901085F
:101F000080B588B004AF0346FB800B46BB80134608
:101F10007B800C4BFB607B881A460B490B4813F007
:101F200041FDB988F888002302934FF6FF730193AF
:101F30001F230093FB68054A02F0CAFC00BF10375C
:101F4000BD4680BD58DB01089C990108C89000205F
:101F500080B58AB004AFC7E900230346FB810B4676
:101F6000BB810C4B7B61D7E900230B490B4813F075
:101F700019FDB989F889002302934FF6FF73019385
:101F80001F2300937B69054A02F0A2FC00BF1837AB
:101F9000BD4680BD48A80108A4990108C89000204A
:101FA00080B400AF034B00225A7200BFBD4680BC14
:101FB000704700BF1089002080B500AFFFF7F0FF29
:101FC00000BF80BD80B400AF00BFBD4680BC70477D
:101FD00080B58CB000AF3D4BDB693C4A43F0010358
:101FE000D3613A4BDB6903F00103BB61BB69374B3B
:101FF000DB69364A43F00203D361344BDB6903F0FB
:1020000002037B617B69314BDB69304A43F0040397
:10201000D3612E4BDB6903F004033B613B692B4B1F
:10202000DB692A4A43F00803D361284BDB6903F0DC
:102030000803FB60FB68254BDB69244A43F010036F
:10204000D361224BDB6903F01003BB60BB681F4BFD
:10205000DB691E4A43F02003D3611C4BDB6903F0AC
:1020600020037B607B684FF40053FB61184B3B629D
:1020700000237B620123BB6207F11C03194615484C
:1020800005F0A6FD0823FB6102233B6200237B626F
:102090000023BB620223FB6207F11C0319460E48B2
:1020A00005F096FD1023FB6102233B6200237B6257
:1020B0000023BB620223FB6207F11C03194606489A
:1020C00005F086FD00BF3037BD4680BD00380240B8
:1020D00000002110000C02400010024080B500AF4B
:1020E000024808F089FC00BF80BD00BF208E0020A0
:1020F00080B400AF084B1B685A6A084B1B68134436
:10210000064A1360044B1B6800225A62034B1B688B
:102110001846BD4680BC7047208E00203403002046
:1021200080B500AF38480EF0BBFF0246374B1A604F
:1021300037480EF0B5FF0246364B1A6036480EF0AF
:10214000AFFF0246354B1A6000210A200FF047FC12
:102150000246334B1A600322002101200FF02AFBB4
:102160000246304B1A602F4B1868002300220021D2
:102170000FF066FC2C4A012120200FF0D9F802460E
:102180002A4B1A602A4A00212A480EF0B1FE024664
:10219000294B1A60294A002129480EF0A9FE02465F
:1021A000284B1A60284A002128480EF0A1FE02465A
:1021B000274B1A60274A002127480EF099FE024655
:1021C000264B1A60264A002126480EF091FE024650
:1021D000254B1A60254A002125480EF089FE02464B
:1021E000244B1A60244A002124480EF081FE024646
:1021F000234B1A60234A002123480EF079FE024641
:10220000224B1A6000BF80BDF4A70108888B002014
:1022100004A801082489002014A80108908A00203D
:1022200048880020F8880020DCA701080C8B0020DB
:10223000BCA6010891220008008B0020E0A601083E
:10224000A9220008048B002004A70108B922000875
:10225000948B002028A70108452300088C8B0020C0
:102260004CA7010859230008608B002070A70108C3
:1022700081230008088B002094A70108412400084E
:10228000908B0020B8A70108E9240008648B002087
:1022900080B582B000AF786012F030F8FFF74AF9ED
:1022A00064200EF0CFFEFBE780B582B000AF78600F
:1022B00001200EF0C7FEFBE790B583B000AF786059
:1022C00000210020FFF756FD184B1B781A463221DB
:1022D0003220FFF7C9FD164B1B881A463221FA201F
:1022E000FFF70EFE05216420FFF76EFD114B18CBA2
:1022F0001A46234664210A20FFF72AFE0E4B18CB0C
:102300001A4623468C210A20FFF722FE0B4B18CBDE
:102310001A462346B4210A20FFF71AFE1021084866
:1023200005F013FEC8200EF08DFEC9E7948A002048
:10233000FC88002050880020088900206088002048
:102340000008024080B582B000AF7860FEF7BCFEA6
:1023500032200EF077FEF9E780B582B000AF7860EA
:10236000064808F0B1FB0021044808F04BFD01F0DD
:10237000C7FA0A200EF066FEF9E700BFE08C0020E5
:1023800090B583B000AF7860C8200EF05BFE0221EC
:102390002448FFF747FB04212248FFF743FB0121B4
:1023A0002048FFF73FFB4FF47A700EF04BFE0221FE
:1023B0001C48FFF775FB03461A461B4B1A80042185
:1023C0001848FFF76DFB03461A46184B1A80012187
:1023D0001448FFF765FB03461A46154B1A80124B4B
:1023E0001B881846FFF7B2FB03460C46114AC2E9A8
:1023F00000340E4B1B881846FFF7A8FB03460C461B
:102400000D4AC2E900340A4B1B881846FFF79EFBB1
:1024100003460C46094AC2E9003443F698200EF000
:1024200011FEB4E700040240348A0020FE88002038
:102430002C8A002050880020088900206088002015
:1024400090B583B000AF7860234B1B78184601F03D
:10245000A9FA224B1B781846FDF7E6FF1AA3D3E929
:102460000023FEF75BF803460C4618462146FEF7AC
:102470002DFB0346DBB21846FFF7E4F8184B1B8828
:10248000002B16D0164B1B881846FDF7CDFF0346D0
:102490000C461A4623460EA1D1E90001FEF768F961
:1024A00003460C4618462146FEF710FB03469BB236
:1024B00000E000230B4A1380002001F0BDFA142035
:1024C0000EF0C0FDC0E700BF48E17A14AE47F93F07
:1024D00000000000004CED40948A00205888002045
:1024E00020890020FC88002080B582B000AF786091
:1024F00003F0F8FA01220349034809F063FD03F0F1
:1025000025FBFCE7308A0020A08E002080B584B037
:1025100000AF78607B681B681A4A93422DD11A4B32
:10252000D3F880305A1C1849C1F88020174A117816
:10253000154AD154144BD3F880307F2B03DD124B56
:102540000022C3F880200023FB60114B1B6807F1B9
:102550000C02114618460FF001FCFB68002B07D057
:102560000C4B4FF080521A60BFF34F8FBFF36F8F49
:1025700001220649084809F025FD00BF1037BD4675
:1025800080BD00BF005000406C880020308A0020D1
:102590004888002004ED00E0A08E002080B58CB0BB
:1025A00000AF07F11C0300221A605A609A60DA60DB
:1025B0001A61524BDB69514A43F00103D3614F4B1F
:1025C000DB6903F00103BB61BB694C4BDB694B4A20
:1025D00043F00203D361494BDB6903F002037B61E3
:1025E0007B69464BDB69454A43F00403D361434BA7
:1025F000DB6903F004033B613B69404BDB693F4A05
:1026000043F00803D3613D4BDB6903F00803FB6033
:10261000FB683A4BDB69394A43F01003D361374B0F
:10262000DB6903F01003BB60BB68344BDB69334AE2
:1026300043F02003D361314BDB6903F020037B605F
:102640007B680022E0212E4805F067FC00221F2154
:102650002C4805F062FC00224FF480512A4805F016
:102660005CFCE023FB6101233B6200237B620023CF
:10267000BB6207F11C031946214805F0A9FA1F2384
:10268000FB6101233B6200237B620023BB6207F1F5
:102690001C0319461B4805F09BFA4FF48053FB615D
:1026A00001233B6200237B620023BB6207F11C0312
:1026B0001946154805F08CFA0123FB61134B3B6268
:1026C00000237B6207F11C031946114805F080FACC
:1026D0004FF48073FB6102233B6200237B62002383
:1026E000BB620023FB6207F11C031946094805F091
:1026F0006FFA00BF3037BD4680BD00BF00380240D2
:1027000000100240000802400004024000001110C6
:10271000000C02400000024080B500AF134B144A89
:102720001A60124B134A5A60104B00229A600F4BEA
:102730000022DA600D4B4FF480421A610B4B0022ED
:102740005A610A4B00229A61084B0022DA61074B5A
:1027500000221A62054805F011FC0346002B02D046
:10276000072001F095F800BF80BD00BF988B0020C6
:1027700000540040801A060080B58AB000AF78602F
:1027800007F1140300221A605A609A60DA601A6135
:102790007B681B68174A934228D1174BDB69164A9E
:1027A00043F00203D361144BDB6903F002033B6186
:1027B0003B694FF440737B611223BB610123FB61D2
:1027C00003233B6204237B6207F1140319460B4881
:1027D00005F0FEF9084B5B6A074A43F400135362A5
:1027E000054B5B6A03F40013FB60FB6800BF2837EE
:1027F000BD4680BD00540040003802400004024045
:1028000080B58CB000AF4B4BDB694A4A43F0010303
:10281000D361484BDB6903F00103BB61BB69454BE6
:10282000DB69444A43F00203D361424BDB6903F0A6
:1028300002037B617B693F4BDB693E4A43F0040343
:10284000D3613C4BDB6903F004033B613B69394BCB
:10285000DB69384A43F00803D361364BDB6903F088
:102860000803FB60FB68334BDB69324A43F010031B
:10287000D361304BDB6903F01003BB60BB682D4BA9
:10288000DB692C4A43F02003D3612A4BDB6903F058
:1028900020037B607B684FF48073FB61264B3B62B7
:1028A00000237B620123BB6207F11C031946234806
:1028B00005F08EF94FF40073FB611F4B3B62002360
:1028C0007B620123BB6207F11C0319461B4805F01C
:1028D0007FF94FF48053FB61174B3B6200237B620F
:1028E0000123BB6207F11C031946144805F070F977
:1028F0004FF48063FB61104B3B6200237B6201233A
:10290000BB6207F11C0319460C4805F061F94FF44E
:102910000063FB61084B3B6200237B620123BB62C7
:1029200007F11C031946054805F052F900BF30377E
:10293000BD4680BD0038024000002110000C02405E
:1029400080B500AF184B194A1A60174B4FF48272CA
:102950005A60154B00229A60134B0022DA60124B2A
:1029600000221A61104B00225A610F4B4FF4007283
:102970009A610D4B0022DA610B4B00221A620A4B5E
:1029800000225A62084B00229A62074B0A22DA623E
:10299000054807F061FD0346002B02D0062000F039
:1029A00077FF00BF80BD00BF448C00200030014095
:1029B00080B500AF184B194A1A60174B4FF482725A
:1029C0005A60154B00229A60134B0022DA60124BBA
:1029D00000221A61104B00225A610F4B4FF4007213
:1029E0009A610D4B0022DA610B4B00221A620A4BEE
:1029F00000225A62084B00229A62074B0A22DA62CE
:102A0000054807F029FD0346002B02D0062000F000
:102A10003FFF00BF80BD00BFEC8B002000380040AE
:102A200080B58CB000AF786007F11C0300221A60FB
:102A30005A609A60DA601A617B681B68424A934266
:102A400028D1424B1B6A414A43F4805313623F4BE7
:102A50001B6A03F48053BB61BB693C4BDB693B4A97
:102A600043F00103D361394BDB6903F001037B6160
:102A70007B69E023FB6102233B6200237B6203232B
:102A8000BB620523FB6207F11C031946304805F0C1
:102A90009FF855E07B681B682E4A934250D12B4B20
:102AA0005B6A2A4A43F480435362284B5B6A03F40F
:102AB00080433B613B69254BDB69244A43F00203B9
:102AC000D361224BDB6903F00203FB60FB684FF428
:102AD0006043FB6102233B6200237B620323BB62F2
:102AE0000523FB6207F11C0319461B4805F070F82B
:102AF0001A4B1B4A1A60194B10225A60174B0022BE
:102B00009A60164B8022DA60144B00221A61134B34
:102B100000225A61114B00229A61104B4FF48052EF
:102B2000DA610E4804F0F0FE0346002B02D00620C6
:102B300000F0AEFE7B68094A9A64084A7B685362DB
:102B400000BF3037BD4680BD003001400038024034
:102B50000000024000380040000402409C8C00202D
:102B60005860024080B58CB000AF07F10C032422FE
:102B70000021184612F05EF83B1D00221A605A60D0
:102B8000214B224A1A60204B00225A601E4B002221
:102B90009A601D4B6422DA601B4B00221A611A4BAB
:102BA00000225A610123FB6000233B6101237B610A
:102BB0000023BB610023FB6100233B6201237B6296
:102BC0000023BB620023FB6207F10C0319460E4889
:102BD00008F0E2F90346002B02D0042000F058FE72
:102BE00000237B600023BB603B1D1946064809F0AB
:102BF000A5F80346002B02D0042000F049FE00BFD8
:102C00003037BD4680BD00BF608D0020000400400D
:102C100080B58AB000AF07F1180300221A605A602D
:102C20009A60DA6007F1100300221A605A603B468E
:102C300000221A605A609A60DA602F4B2F4A1A609D
:102C40002D4B47F6FF425A602B4B00229A602A4BCD
:102C500040F6B832DA60284B4FF400721A61264B06
:102C600000225A61244807F087FE0346002B02D059
:102C7000042000F00DFE4FF48053BB6107F11803F0
:102C800019461D4808F054FC0346002B02D00420CE
:102C900000F0FEFD184808F06DF80346002B02D046
:102CA000042000F0F5FD00233B6100237B6107F168
:102CB00010031946104809F041F80346002B02D0D2
:102CC000042000F0E5FD00233B6001237B6000232E
:102CD000BB600023FB603B4600221946064808F013
:102CE000D5FA0346002B02D0042000F0D1FD00BF2E
:102CF0002837BD4680BD00BFE08C002000080040A2
:102D000080B400AF00BFBD4680BC704780B586B0C0
:102D100000AF07F1080300221A605A609A60DA6077
:102D20003B4600221A605A601E4B1F4A1A601D4B18
:102D300020225A601B4B00229A601A4B4FF6FF72FA
:102D4000DA60184B00221A61164B00225A611548AE
:102D500007F012FE0346002B02D0042000F098FD7D
:102D60004FF48053BB6007F1080319460D4808F083
:102D7000DFFB0346002B02D0042000F089FD002376
:102D80003B6000237B603B461946064808F0D6FFAF
:102D90000346002B02D0042000F07AFD00BF183754
:102DA000BD4680BD208E00200008014080B586B061
:102DB00000AF07F1080300221A605A609A60DA60D7
:102DC0003B4600221A605A601E4B1F4A1A601D4B78
:102DD00020225A601B4B00229A601A4B4FF6FF725A
:102DE000DA60184B00221A61164B00225A6115480E
:102DF00007F0C2FD0346002B02D0042000F048FD7E
:102E00004FF48053BB6007F1080319460D4808F0E2
:102E10008FFB0346002B02D0042000F039FD002375
:102E20003B6000237B603B461946064808F086FF5E
:102E30000346002B02D0042000F02AFD00BF183703
:102E4000BD4680BD208D0020000C014080B588B0BB
:102E500000AF07F1100300221A605A609A60DA602E
:102E60003B4600221A605A609A60DA60274B284A73
:102E70001A60264B4FF4FA425A60244B6422DA60FF
:102E8000224B00229A60214B00221A611F4B002224
:102E90005A611E4807F070FD0346002B02D0042043
:102EA00000F0F6FC4FF480533B6107F11003194624
:102EB000164808F03DFB0346002B02D0042000F02A
:102EC000E7FC124807F078FE0346002B02D00420EE
:102ED00000F0DEFC60233B6000237B600023BB60CE
:102EE0000023FB603B4600221946084808F062FABE
:102EF0000346002B02D0042000F0CAFC034800F077
:102F0000D1F800BF2037BD4680BD00BFA08D002096
:102F10000010014080B584B000AF78607B681B680A
:102F20000D4A934213D10D4B5B6A0C4A43F00203E6
:102F300053620A4B5B6A03F00203FB60FB680022EA
:102F400000211D2004F0CBFB1D2004F0E4FB00BF9A
:102F50001037BD4680BD00BF00040040003802406D
:102F600080B58EB000AF786007F1240300221A60AC
:102F70005A609A60DA601A617B681B68424A934221
:102F80002FD1424B5B6A414A43F0040353623F4BEB
:102F90005B6A03F004033B623B6A3C4BDB693B4AE0
:102FA00043F00203D361394BDB6903F00203FB6199
:102FB000FB6940237B620223BB620023FB62002388
:102FC0003B6302237B6307F124031946304804F076
:102FD000FFFD002200211E2004F081FB1E2004F0D2
:102FE0009AFB7B681B682B4A934214D1274B5B6A80
:102FF000264A43F010035362244B5B6A03F010032C
:10300000BB61BB69002200212B2004F068FB2B2050
:1030100004F081FB34E07B681B681F4A93420CD1AB
:103020001A4B1B6A194A43F004031362174B1B6ABD
:1030300003F004037B617B6922E07B681B68174A0D
:1030400093420CD1114B1B6A104A43F008031362E0
:103050000E4B1B6A03F008033B613B6910E07B6881
:103060001B680F4A93420BD1084B1B6A074A43F077
:1030700010031362054B1B6A03F01003FB60FB682F
:1030800000BF3837BD4680BD000800400038024010
:10309000000402400010004000080140000C014004
:1030A0000010014080B58AB000AF786007F11403CA
:1030B00000221A605A609A60DA601A617B681B68A5
:1030C000224A93421CD1224BDB69214A43F002037E
:1030D000D3611F4BDB6903F002033B613B69402373
:1030E0007B610223BB610023FB6100233B6202235F
:1030F0007B6207F114031946164804F069FD20E0CD
:103100007B681B68144A93421BD1114BDB69104A40
:1031100043F01003D3610E4BDB6903F01003FB6037
:10312000FB6802237B610223BB610023FB61002358
:103130003B6203237B6207F114031946074804F03E
:1031400047FD00BF2837BD4680BD00BF00080040D6
:10315000003802400004024000100140001002400C
:1031600080B582B000AF0346FB800A4B1B6800228B
:103170005A62084807F040FC00BF064B1B685A6AB9
:10318000FB889A42F9D9034807F080FC00BF083752
:10319000BD4680BD208D002080B582B000AF786034
:1031A000391D64230122044808F073FE7B68184629
:1031B0000837BD4680BD00BF608F002080B500AFDE
:1031C000114B124A1A60104B4FF4E1325A600E4B09
:1031D00000229A600C4B0022DA600B4B00221A612D
:1031E000094B0C225A61084B00229A61064B0022BF
:1031F000DA61054808F000FE0346002B02D00520E6
:1032000000F046FB00BF80BDE08E0020003801408A
:1032100080B500AF114B124A1A60104B4FF4E132E7
:103220005A600E4B00229A600C4B0022DA600B4B66
:1032300000221A61094B0C225A61084B00229A6144
:10324000064B0022DA61054808F0D6FD0346002B44
:1032500002D0052000F01CFB00BF80BD608F002065
:103260000044004080B500AF114B124A1A60104B69
:103270004FF4E1325A600E4B00229A600C4B002250
:10328000DA600B4B00221A61094B0C225A61084B81
:1032900000229A61064B0022DA61054808F0ACFD75
:1032A0000346002B02D0052000F0F2FA00BF80BDDB
:1032B000608E00200048004080B500AF114B124ADC
:1032C0001A60104B4FF4E1325A600E4B00229A60A4
:1032D0000C4B0022DA600B4B00221A61094B0C22C6
:1032E0005A61084B00229A61064B0022DA610548B8
:1032F00008F082FD0346002B02D0052000F0C8FA3A
:1033000000BF80BD208F0020004C004080B500AF82
:10331000114B124A1A60104B4FF4E1325A600E4BB7
:1033200000229A600C4B0022DA600B4B00221A61DB
:10333000094B0C225A61084B00229A61064B00226D
:10334000DA61054808F058FD0346002B02D005203D
:1033500000F09EFA00BF80BDA08E0020005000400B
:1033600080B592B000AF786007F1340300221A6094
:103370005A609A60DA601A617B681B68974A9342C8
:1033800031D1974B1B6A964A43F480431362944BA6
:103390001B6A03F480433B633B6B914BDB69904AB0
:1033A00043F00103D3618E4BDB6903F00103FB6241
:1033B000FB6A4FF4C0637B630223BB630023FB63A0
:1033C00003233B6407237B6407F1340319468548D4
:1033D00004F0FEFB00220921252004F080F92520BD
:1033E00004F099F9F5E07B681B687F4A934230D17D
:1033F0007B4B5B6A7A4A43F400335362784B5B6AD7
:1034000003F40033BB62BB6A754BDB69744A43F05B
:103410000103D361724BDB6903F001037B627B6ABA
:103420000C237B630223BB630023FB6303233B6406
:1034300007237B6407F1340319466A4804F0C8FB8C
:1034400000220821262004F04AF9262004F063F91E
:10345000BFE07B681B68654A934231D1604B5B6A71
:103460005F4A43F4802353625D4B5B6A03F480231D
:103470003B623B6A5A4BDB69594A43F00203D36112
:10348000574BDB6903F00203FB61FB694FF44063B8
:103490007B630223BB630023FB6303233B6407239B
:1034A0007B6407F134031946514804F091FB002274
:1034B0000721272004F013F9272004F02CF988E0D5
:1034C0007B681B684B4A934231D1454B5B6A444A47
:1034D00043F400235362424B5B6A03F40023BB6155
:1034E000BB693F4BDB693E4A43F00403D3613C4B6D
:1034F000DB6903F004037B617B694FF440637B630A
:103500000223BB630123FB6303233B6408237B6427
:1035100007F134031946384804F05AFB002206210B
:10352000302004F0DCF8302004F0F5F851E07B683E
:103530001B68324A93424CD1294B5B6A284A43F4B8
:1035400080135362264B5B6A03F480133B613B6933
:10355000234BDB69224A43F00403D361204BDB6930
:1035600003F00403FB60FB681D4BDB691C4A43F05E
:103570000803D3611A4BDB6903F00803BB60BB6827
:103580004FF480537B630223BB630123FB6303235C
:103590003B6408237B6407F134031946164804F0A2
:1035A00017FB04237B630223BB630123FB63032319
:1035B0003B6408237B6407F134031946104804F088
:1035C00007FB00220521312004F089F8312004F0A6
:1035D000A2F800BF4837BD4680BD00BF003801409B
:1035E0000038024000000240004400400048004013
:1035F00000040240004C004000080240005000401F
:10360000000C024080B500AF03F0D5F900F080F85F
:10361000FEF7C4FFFEF738F8FFF792F9FFF7C8F995
:10362000FFF77AF8FFF7CAFDFFF7F2FDFFF71AFE82
:10363000FFF742FEFFF76AFEFDF798FFFDF738FC43
:10364000FFF790FAFFF75CFBFFF7E2FAFFF75EFB8C
:10365000FFF7ACFBFFF7FAFBFEF734F80BF002F9CB
:10366000FFF7CEF8FEF7B4FC00F0D0F90120FDF72B
:1036700091FE642003F0D4F900F008FC642003F00C
:10368000CFF9012000F0BCFE642003F0C9F9FEF779
:1036900093FCFDF72BFF124812F004F9114812F0C9
:1036A00001F9114812F072F91049114812F0FAF8B4
:1036B0001049114812F0F6F81049114812F0F2F8CA
:1036C000104812F063F9104812F060F90F4812F038
:1036D0005DF90DF0A7FBFEF723FD0DF0D5FBFEE72E
:1036E000689A0108709A0108789A0108949A01086A
:1036F0009C9A0108AC9A0108B89A0108C49A01087A
:10370000D09A0108DC9A0108109B01082C9B010843
:1037100080B592B000AF07F114033422002118469F
:1037200011F088FA3B4600221A605A609A60DA600B
:103730001A61234B1B6823F4C053214A43F40063EE
:10374000136003237B610123BB6101233B621023D0
:103750007B620223BB634FF48033FB634FF480131F
:103760003B644FF400037B6407F11403184606F032
:103770004DF80346002B02D0002000F089F80F23FB
:103780003B6003237B600023BB600023FB600023BE
:103790003B613B460121184606F068FB0346002BBF
:1037A00002D0002000F074F84FF080424FF080719A
:1037B000002006F08FFC00BF4837BD4680BD00BF2B
:1037C0000070004080B582B000AF78607B681B68F5
:1037D0000C4A934202D10C4B00221A807B681B6872
:1037E0000A4A934201D103F0FFF87B681B68084A3C
:1037F000934203D12021074804F0A7FB00BF0837FC
:10380000BD4680BD00080040208900200014004013
:10381000001000400004024080B483B000AF786024
:103820007B681B68084A934209D1084B1B685B6A96
:103830009AB2074B1A80054B1B6800225A6200BFE0
:103840000C37BD4680BC704700080040E08C00206B
:103850002089002080B485B000AF78600A4B1B68D7
:103860000A4AA2FB03235B0B7A6802FB03F3FB60AB
:1038700002E0FB68013BFB60FB68002BF9D100BF55
:103880001437BD4680BC7047000000205917B7D1DF
:1038900080B584B000AF0346FB71012210211748A8
:1038A00004F03BFB4FF4FA70FFF7D4FF0022102125
:1038B000124804F032FB4FF4FA70FFF7CBFF0023FD
:1038C000FB7312E0012210210C4804F026FB822039
:1038D000FFF7C0FF00221021084804F01EFB8220E1
:1038E000FFF7B8FFFB7B0133FB73FA7BFB799A424E
:1038F000E8D34FF47A70FFF7ADFFCEE7000802403F
:1039000080B582B000AF4FF48061244804F0EEFA35
:103910000346FB714FF40061204804F0E7FA0346C8
:10392000BB71FB79012B0CBF01230023DAB2BB79F9
:10393000012B0CBF01230023DBB21340DBB2002BB1
:1039400002D0174B00221A70FB79012B0CBF012308
:103950000023DAB2BB79002B0CBF01230023DBB2BA
:103960001340DBB2002B02D00D4B01221A70FB7901
:10397000002B0CBF01230023DAB2BB79012B0CBF53
:1039800001230023DBB21340DBB2002B02D0044B37
:1039900002221A7000BF0837BD4680BD000C0240ED
:1039A000948A002080B582B000AF0346FB71FB799A
:1039B000012B0FD0022B18D0002B00D020E00022CA
:1039C0004021114804F0A9FA002280210E4804F099
:1039D000A4FA15E0012240210B4804F09EFA0022CF
:1039E0008021094804F099FA0AE0002240210648A3
:1039F00004F093FA01228021034804F08EFA00BFFC
:103A000000BF0837BD4680BD0010024080B500AF42
:103A1000FFF71CFA00F006F8642000F00DF800BF74
:103A200080BD000080B500AF0021024807F00CF90E
:103A300000BF80BDA08D002080B483B000AF0346DE
:103A4000FB71044B1B68FA795A6300BF0C37BD4603
:103A500080BC7047A08D002080B485B000AF144BAF
:103A60005B6A134A43F000435362114B5B6A03F0F5
:103A70000043FB60FB680E4B1B6A0D4A43F00103D9
:103A800013620B4B1B6A03F00103BB60BB68084B5E
:103A90005B6A074A43F080535362054B5B6A03F04D
:103AA00080537B607B6800BF1437BD4680BC704785
:103AB0000038024080B58CB000AF78600023FB6214
:103AC0000023BB62002279682C2003F008FE2C2022
:103AD00003F021FE1E4B5B6A1D4A43F02003536234
:103AE0001B4B5B6A03F02003FB60FB6807F11002CD
:103AF00007F114031146184606F01EFC06F0F4FB0D
:103B0000F862FB6A134AA2FB03239B0C013BBB62D6
:103B1000114B124A1A60104B40F2E732DA600E4A3B
:103B2000BB6A53600C4B00221A610B4B00229A6057
:103B3000094806F021FF0346002B04D1064806F091
:103B4000C3FF034600E0012318463037BD4680BD61
:103B50000038024083DE1B43A08F00200014004089
:103B600080B400AF00BFBD4680BC704780B400AFDA
:103B7000FEE780B400AFFEE780B400AFFEE780B49C
:103B800000AFFEE780B400AF00BFBD4680BC704709
:103B900080B500AF024803F06CFF00BF80BD00BFDE
:103BA0009C8C002080B500AF024803F0C2F900BF32
:103BB00080BD00BF3C8A002080B500AF024804F001
:103BC00019FC00BF80BD00BF149B002080B500AF72
:103BD000024808F04BFA00BF80BD00BFE08E002015
:103BE00080B500AF024808F041FA00BF80BD00BFB9
:103BF000608F002080B500AF024808F037FA00BFA0
:103C000080BD00BF608E002080B500AF024808F084
:103C10002DFA00BF80BD00BF208F002080B500AF0F
:103C2000024808F023FA00BF80BD00BFA08E00202C
:103C300080B500AF024807F04DFA00BF80BD00BF5D
:103C4000608D002080B500AF024807F043FA00BF46
:103C500080BD00BFE08C002080B500AF024807F0B7
:103C600039FA00BF80BD00BFE08D002080B500AFF5
:103C7000024807F02FFA00BF80BD00BFA08F0020D0
:103C800080B586B000AFF860B9607A6000237B61D0
:103C90000AE0AFF300800146BB685A1CBA60CAB2A2
:103CA0001A707B6901337B617A697B689A42F0DB29
:103CB0007B6818461837BD4680BD80B586B000AF1A
:103CC000F860B9607A6000237B6109E0BB685A1C28
:103CD000BA601B781846FFF75FFA7B6901337B6196
:103CE0007A697B689A42F1DB7B6818461837BD46D3
:103CF00080BD80B483B000AF78604FF0FF331846CA
:103D00000C37BD4680BC704780B483B000AF78608C
:103D100039603B684FF400525A60002318460C3754
:103D2000BD4680BC704780B483B000AF786001238B
:103D300018460C37BD4680BC704780B485B000AFD4
:103D4000F860B9607A60002318461437BD4680BC1D
:103D50007047000080B400AF034B4FF000629A60E0
:103D600000BFBD4680BC704700ED00E080B58AB062
:103D700000AF07F1140300221A605A609A60DA60FB
:103D80001A61404BDB693F4A43F00103D3613D4B6D
:103D9000DB6903F001033B613B693A4BDB69394A5C
:103DA00043F00203D361374BDB6903F00203FB608E
:103DB000FB68344BDB69334A43F00403D361314B76
:103DC000DB6903F00403BB60BB682E4BDB692D4A43
:103DD00043F00803D3612B4BDB6903F008037B60DE
:103DE0007B6800220121284804F097F80022042172
:103DF000254804F092F800220221234804F08DF8AF
:103E000000220821204804F088F801237B61012367
:103E1000BB610023FB6102233B6207F114031946D7
:103E2000194803F0D5FE04237B610123BB61002305
:103E3000FB6102233B6207F114031946124803F0A9
:103E4000C7FE02237B610123BB610023FB610223C8
:103E50003B6207F1140319460B4803F0B9FE08232F
:103E60007B610123BB610023FB6102233B6207F1FD
:103E700014031946044803F0ABFE00BF2837BD46C3
:103E800080BD00BF003802400008024080B500AF8E
:103E9000FEF78EFD642002F0C3FDFFF767FF0122ED
:103EA0000821704804F039F8642002F0B9FD00F0F0
:103EB0003DFA642002F0B4FDF72000F0EDF8A920EF
:103EC00000F010F9512000F00DF92C2000F00AF953
:103ED000822000F007F9C02000F0DEF8112000F089
:103EE00001F9092000F0FEF8C12000F0D5F84120CA
:103EF00000F0F8F8C52000F0CFF8002000F0F2F84C
:103F00000A2000F0EFF8802000F0ECF8B12000F07B
:103F1000C3F8B02000F0E6F8112000F0E3F8B42078
:103F200000F0BAF8022000F0DDF8B62000F0B4F896
:103F3000022000F0D7F8422000F0D4F8B72000F0BB
:103F4000ABF8C62000F0CEF8BE2000F0A5F80020A7
:103F500000F0C8F8042000F0C5F8E92000F09CF853
:103F6000002000F0BFF8362000F096F8682000F03E
:103F7000B9F83A2000F090F8662000F0B3F8E0209D
:103F800000F08AF8002000F0ADF8072000F0AAF851
:103F9000102000F0A7F8092000F0A4F8172000F086
:103FA000A1F80B2000F09EF8412000F09BF889203A
:103FB00000F098F84B2000F095F80A2000F092F8F5
:103FC0000C2000F08FF80E2000F08CF8182000F084
:103FD00089F81B2000F086F80F2000F083F8E1201C
:103FE00000F05AF8002000F07DF8172000F07AF871
:103FF0001A2000F077F8042000F074F80E2000F08A
:1040000071F8062000F06EF82F2000F06BF84520C4
:1040100000F068F8432000F065F8022000F062F834
:104020000A2000F05FF8092000F05CF8322000F070
:1040300059F8362000F056F80F2000F053F8112000
:1040400000F02AF8782002F0EBFC292000F024F898
:10405000002000F0D5F94FF6FF7000F0F7F800BF30
:1040600080BD00BF0008024080B483B000AF0346AB
:10407000FB7100BF074B1B689B6803F00203002B1A
:10408000F8D0044B1B68FA79DA6000BF0C37BD46E4
:1040900080BC7047EC8B002080B582B000AF034637
:1040A000FB71002204210D4803F037FF002201219B
:1040B0000A4803F032FFFB791846FFF7D5FFF91DD8
:1040C0000A230122064806F050FA0122042103487F
:1040D00003F023FF00BF0837BD4680BD0008024043
:1040E000EC8B002080B582B000AF0346FB7100224C
:1040F00004210A4803F011FF01220121074803F0BF
:104100000CFFFB791846FFF7AFFF0122042103489B
:1041100003F003FF00BF0837BD4680BD0008024022
:1041200080B582B000AF03460A46FB711346BB80E0
:10413000FB791846FFF7B0FFBB88DBB21846FFF7E4
:10414000D1FF00BF0837BD4680BD000080B500AF7D
:10415000034B1B89DBB21846FFF79EFF00BF80BDF3
:10416000E48F002080B584B000AF0346FB80FB885D
:104170001B0A9BB2DBB223F00703FB73FB88DB084F
:104180009BB2DBB223F00303BB73FB88DBB2DB0023
:104190007B73002204211E4803F0BFFE012201218F
:1041A0001B4803F0BAFE00BF1A4B1B689B6803F064
:1041B0000203002BF8D0174B1B68FA7BDA6000BFB4
:1041C000144B1B689B6803F00203002BF8D0114BC3
:1041D0001B68BA7BDA6000BF0E4B1B689B6803F05C
:1041E0000203002BF8D00B4B1B687A7BDA6000BF10
:1041F000084B1B689B6803F00203002BF8D00122D8
:104200000421034803F089FE00BF1037BD4680BD7E
:1042100000080240EC8B002080B582B000AF03465E
:104220000A46FB801346BB80BA88FB8811461846B5
:1042300000F03EF9044B1B881846FFF793FF00BFC0
:104240000837BD4680BD00BF3803002080B584B06C
:1042500000AF0346FB80324B1B88013B9AB2304BC8
:104260005B88013B9BB20021002000F075F8002222
:1042700004212C4803F051FE01220121294803F0BA
:104280004CFE274B5B881A46254B1B8803FB02F329
:10429000FB60FB881B0A9BB2DBB223F00703FB72B7
:1042A000FB88DB089BB2DBB223F00303BB72FB8805
:1042B000DBB2DB007B7226E000BF1B4B1B689B68F8
:1042C00003F00203002BF8D0174B1B68FA7ADA6070
:1042D00000BF154B1B689B6803F00203002BF8D04E
:1042E000114B1B68BA7ADA6000BF0F4B1B689B68E2
:1042F00003F00203002BF8D00B4B1B687A7ADA60CC
:10430000FB68013BFB60FB68002BD5D10122042137
:10431000044803F002FE00BF1037BD4680BD00BF59
:10432000E48F002000080240EC8B002080B500AF35
:1043300000220221074803F0F0FD642002F070FB28
:1043400001220221034803F0E8FD322002F068FB5D
:1043500000BF80BD0008024090B583B000AF0446A6
:10436000084611461A462346FB800346BB800B468F
:104370007B8013463B80214B5B89DBB21846FFF7FD
:104380008BFEFB881B0A9BB2DBB21846FFF7AAFE26
:10439000FB88DBB21846FFF7A5FE7B881B0A9BB2A1
:1043A000DBB21846FFF79EFE7B88DBB21846FFF7AC
:1043B00099FE124B9B89DBB21846FFF76DFEBB8856
:1043C0001B0A9BB2DBB21846FFF78CFEBB88DBB240
:1043D0001846FFF787FE3B881B0A9BB2DBB21846E4
:1043E000FFF780FE3B88DBB21846FFF77BFEFFF746
:1043F000ADFE00BF0C37BD4690BD00BFE48F00206E
:1044000080B582B000AF0346FB71284B2A225A8147
:10441000264B2B229A81254B2C221A81FB79032BC8
:104420003ED801A252F823F0394400085344000852
:104430006D440008874400081C4B4FF4A0721A809A
:104440001A4B4FF4F0725A8008213620FFF768FEAD
:1044500027E0164B4FF4F0721A80144B4FF4A07201
:104460005A8068213620FFF75BFE1AE00F4B4FF4AD
:10447000A0721A800D4B4FF4F0725A80C82136207A
:10448000FFF74EFE0DE0094B4FF4F0721A80074B18
:104490004FF4A0725A80A8213620FFF741FE00E0B9
:1044A00000BF00BF0837BD4680BD00BFE48F0020BD
:1044B00080B582B000AF03460A46FB801346BB803E
:1044C000BB88FA88B988F888FFF746FF00BF08372D
:1044D000BD4680BD80B483B000AF78600B467B8062
:1044E00013463B80154A7B681360154A7B8813800E
:1044F000144A3B881380114B1B681A78124B1A70B0
:104500000E4B1B685A78114B1A700C4B1B689A782B
:104510000F4B1A70094B1B68DA780E4B1A70074B59
:104520001B681A790C4B1A70044B1B685A790B4B99
:104530001A7000BF0C37BD4680BC704768880020E9
:104540003803002004000020A0890020F488002007
:10455000068900200589002004890020A189002007
:1045600080B483B000AF03460A46FB801346BB808D
:10457000FB88054A1360BB88044A136000BF0C37F0
:10458000BD4680BC704700BF00890020388A0020EB
:1045900090B589B000AF0446084611461A46234636
:1045A000FB800346BB800B46FB701346BB70744B0D
:1045B0001B78FA789A42C0F07B81724B1B78FA78AC
:1045C0009A4200F275816E4B1B78FA78D31AFB7011
:1045D0006D4B1B781A466D4B1B6813446C4A12884E
:1045E000934218D9694B00221A606A4B1B781A460D
:1045F000694B1B681344684A1360654B5B881A4615
:10460000644B1B78D31A1A46634B1B689A4202D834
:10461000614B00221A60614B1A68FB786049097887
:1046200001FB03F3063313447B617B691B78FB7446
:10463000BB78012B50D10023FB773CE00023BB77F4
:1046400031E0584B1B781A46BB7F03FB02F3FA7F1D
:10465000D208D2B2134401337A6913441B78BB7475
:10466000FB7F03F00703012202FA03F3FB60BA7C2D
:10467000FB681340002B13D04B4AFB881380BB7F91
:104680009AB2424B1B689BB2134498B2FB7F9AB21A
:10469000414B1B689BB213449BB21946FFF7BCFD0C
:1046A000BB7F0133BB77384B1B78BA7F9A42C8D3A4
:1046B000FB7F0133FB77374B1B78FA7F9A42BDD3E0
:1046C000334B1B88013B9AB2314B5B88013B9BB259
:1046D00000210020FFF740FEBB78002B40F0D18086
:1046E0002A4B1B6898B22C4B1B6899B2264B1B783F
:1046F0009AB2264B1B689BB213449BB2013B9CB2FF
:10470000244B1B789AB2244B1B689BB213449BB278
:104710002246FFF721FE0023BB76A0E000237B7634
:1047200094E0204B1B781A467B7E03FB02F3BA7E93
:10473000D208D2B2134401337A6913441B78BB7494
:10474000BB7E03F00703012202FA03F3FB60BA7C8D
:10475000FB681340002B29D1BB881B0A9BB2DBB23C
:1047600023F007037B77BB88DB089BB2DBB223F027
:1047700003033B77BB88DBB2DB00FB7628E000BF9E
:10478000A0890020F48800200589002000890020ED
:10479000E48F002004890020388A002068880020E7
:1047A00006890020A189002038030020FB881B0A0D
:1047B0009BB2DBB223F007037B77FB88DB089BB25D
:1047C000DBB223F003033B77FB88DBB2DB00FB7635
:1047D00000220421384803F0A0FB012201213648C1
:1047E00003F09BFB00BF354B1B689B6803F0020383
:1047F000002BF8D0314B1B687A7FDA6000BF2F4B5B
:104800001B689B6803F00203002BF8D02B4B1B683E
:104810003A7FDA6000BF294B1B689B6803F00203F4
:10482000002BF8D0254B1B68FA7EDA6000BF234BC3
:104830001B689B6803F00203002BF8D001220421BF
:104840001D4803F06AFB7B7E01337B761C4B1B7893
:104850007A7E9A42FFF465AFBB7E0133BB76194B7B
:104860001B78BA7E9A42FFF459AF174B1B88013B65
:104870009AB2154B5B88013B9BB200210020FFF7E9
:104880006BFDFB7C02330E4A1278934207DAFA7C06
:104890000E4B1B68134402330C4A136009E0084BAB
:1048A0001B781A46094B1B681344084A136000E042
:1048B00000BF2437BD4690BD00080240EC8B0020AD
:1048C0000589002004890020E48F00200089002051
:1048D00080B586B000AFBA607B600346FB810B46B3
:1048E000BB81FB89FB82BA8C3B8C19467868FFF749
:1048F000F1FDBA89FB8911461846FFF731FE30E019
:10490000FA891C4B1B8819461B4B1B785B08DBB2D2
:10491000CB1A9A422ADCBA89164B5B881946174B88
:104920001B78CB1A9A4221DCBB681B780D2B0BD16C
:10493000124B1B789AB2BB891344BB81FB8AFB8163
:10494000BB680133BB6009E00D4B18880D4B19881B
:10495000BB681A7897F82830FFF71AFEBB68013356
:10496000BB60BB681B78002BCAD100E000BF1837C2
:10497000BD4680BDE48F0020058900200489002009
:10498000380300200400002080B485B000AF7860B8
:104990007B681B6C7A68126C79688A5C13440133FB
:1049A000FB60FB683F2B02DDFB68403BFB607B68E4
:1049B000FA681A6400BF1437BD4680BC704780B4E3
:1049C00083B000AF786039607B681B6C7A68D35C19
:1049D000002B01D101231EE07B685A6C7B681B6CA5
:1049E0009A420CDB7B685B6CC3F140027B681B6CFA
:1049F0001344013B3A689A420CDA01230BE07B68CE
:104A00001A6C7B685B6CD31A013B3A689A4201DAF4
:104A1000012300E0002318460C37BD4680BC7047D8
:104A200080B586B000AFF860B9607A607B683E2BD5
:104A300061DC02E0F868FFF7A7FF7968F868FFF724
:104A4000BEFF0346002BF5D0FB681B6CFA68D35CF5
:104A5000002B05D1FB681B6C7A68D1B2FA68D1547F
:104A6000FB685B6CC3F13F037A689A420ADAFA6822
:104A7000FB685B6C013313447A68B968184610F020
:104A8000B5F818E0FB685B6CC3F13F037B61FA6823
:104A9000FB685B6C013313447A69B968184610F0FF
:104AA000A5F8F8687B69BA68D1187A687B69D31A67
:104AB0001A4610F09BF8FB685B6C7A68D1B2FA6812
:104AC000D154FB685A6C7B6813445A1CFB685A64C7
:104AD000FB685B6C3F2B05DDFB685B6CA3F1400260
:104AE000FB685A64FB685B6CFA680021D154FB6870
:104AF00000229A6400E000BF1837BD4680BD80B533
:104B00008CB000AFF860B9607A600023FB62FB688C
:104B10001B6CBB6210E0FA68BB6A13441B7801335C
:104B2000BA6A1344BB62BB6A3F2B02DDBB6A403BDF
:104B3000BB62FB6A0133FB62FA68BB6A13441B78F1
:104B4000002BE8D17B68002B76D1FB689B6CFA6A5E
:104B50009A42C0F2D680FB681B6C7B6200233B62EA
:104B600010E0FA687B6A13441B7801337A6A1344B5
:104B70007B627B6A3F2B02DD7B6A403B7B623B6A48
:104B800001333B62FA687B6A13441B78002B07D021
:104B9000FA6A3B6AD31A5A1EFB689B6C9A42E0D1B0
:104BA000FA687B6A13441B78002B00F0AA80FB682C
:104BB0009B6C5A1CFB689A64FA687B6A13441B78E6
:104BC0001A467B6A13443F2B11DC65220021B8682A
:104BD00010F030F8FA687B6A0133D118FA687B6A02
:104BE00013441B781A46B86810F000F81FE07B6A7F
:104BF000C3F13F033B6165220021B86810F01AF849
:104C0000FA687B6A013313443A691946B8680FF0B1
:104C1000EDFF3B69BA68D018F968FA687B6A1344FB
:104C20001B781A463B69D31A1A460FF0DFFFFA6861
:104C30007B6A13441B7866E0FB689B6C002B5EDD8F
:104C4000FB689B6C5A1EFB689A64FB681B6CFB61DB
:104C50000023BB6110E0FA68FB6913441B78013341
:104C6000FA691344FB61FB693F2B02DDFB69403BA2
:104C7000FB61BB690133BB61FA68FB6913441B78B4
:104C8000002B06D0FA6ABB69D21AFB689B6C9A4269
:104C9000E1D1FA68FB6913441B781A46FB69134497
:104CA0003F2B0CDCFA68FB690133D118FA68FB6909
:104CB00013441B781A46B8680FF098FF1AE0FB6996
:104CC000C3F13F037B61FA68FB69013313447A69DE
:104CD0001946B8680FF08AFF7B69BA68D018F9687E
:104CE000FA68FB6913441B781A467B69D31A1A4683
:104CF0000FF07CFFFA68FB6913441B7803E0002384
:104D000001E04FF0FF3318463037BD4680BD80B418
:104D100087B000AFF860B9607A6000237B61002340
:104D20003B6102E03B6901333B61FA683B69134434
:104D300054331B78002B03D13A69BB689A42F1DBEC
:104D40003A69BB689A4201DB7B6924E0FB6803F1A6
:104D500054013A697B69581C78619B007868034468
:104D60000A441A607B69072B05DD4FF0FF3312E020
:104D70003B6901333B61FA683B69134454331B7848
:104D8000002B03D03A69BB689A42F1DB3A69BB68F1
:104D90009A42CADB7B6918461C37BD4680BC704707
:104DA00080B582B000AF78607B68D3F8CC307A6889
:104DB000126D1046984700BF0837BD4680BD000001
:104DC00080B582B000AF7860094B5B7A002B05D0CC
:104DD0007B68D3F8CC300748984704E07B68D3F869
:104DE000CC300548984700BF0837BD4680BD00BF9E
:104DF000108900203C9B0108409B010880B582B0CF
:104E000000AF78607B68D3F8CC300348984700BF88
:104E10000837BD4680BD00BF3C9B010880B487B009
:104E200000AF7860396007F1080300221A609A80A9
:104E300000237B617B68B3F5803F35D21AE0796847
:104E40001E4BA3FB0123DA0813469B0013445B00AF
:104E5000CA1AD2B27B69591C79613032D2B207F1D9
:104E600018010B4403F8102C7B68144AA2FB03239F
:104E7000DB087B607B68002BE1D100233B610FE006
:104E80007A693B69D31A5A1E3B68591C396007F18D
:104E900018010A4412F8102C1A703B6901333B6167
:104EA0003A697B699A42EBDB3B6800221A703B68E7
:104EB00018461C37BD4680BC704700BFCDCCCCCC5B
:104EC00080B588B000AF78603960264B5B7A002BE4
:104ED00005D07B68D3F8CC30234898473FE007F1F2
:104EE0000C0300221A605A609A60DA6007F10C0322
:104EF0001E4A1268114619800233120C1A703B6860
:104F0000002B0FDD3A6807F10C03023319461046F7
:104F1000FFF784FFF861FB6915491A460B461B88A9
:104F2000138013E03B68002B18DA3B685B421A469B
:104F300007F10C03023319461046FFF76FFFF861C3
:104F4000FB690C491A460B461B8813807B68D3F813
:104F5000CC3007F10C021046984700E000BF203724
:104F6000BD4680BD108900203C9B0108489B01087C
:104F70004C9B0108509B010880B588B000AF786059
:104F80001B4B5B7A002B05D07B68D3F8CC301948DB
:104F9000984729E007F10C03174A12681146198057
:104FA0000233120C1A7007F10C03023319466C20FD
:104FB000FFF734FFF861FB69104A10681860FB695D
:104FC0000333FB61F9690520FFF728FFF861FB69EE
:104FD0000B491A460B461B8813807B68D3F8CC30EC
:104FE00007F10C021046984700BF2037BD4680BD30
:104FF000108900203C9B0108489B0108549B010834
:105000004C9B010880B586B000AFF860B9607A604B
:10501000224B5B7A002B05D0FB68D3F8CC302048BC
:10502000984704E0FB68D3F8CC301E48984700232B
:105030003B7400237B74BB687B6114E0FA687B6976
:10504000134454331B783B743B7C002B01D1202349
:105050003B74FB68D3F8CC3007F110021046984738
:105060007B6901337B61FB68D3F8BC307A699A4273
:10507000E4DB0A4B5B7A002B05D0FB68D3F8CC301D
:105080000748984706E0F868FFF776FF7968F86800
:10509000FFF716FF00BF1837BD4680BD10890020FE
:1050A0003C9B0108589B010880B582B000AF786036
:1050B00039607B6854336522002118460FF0BAFD31
:1050C0007B6804334022002118460FF0B3FD7B6853
:1050D00000225A647B6800229A647B680022DA64AA
:1050E0007B680022C3F8BC207B680022C3F8C02084
:1050F0007B680022C3F8C4207B680022C3F8C82064
:105100007B680022C3F8D020094B1A687B681A65B7
:105110007B683A68C3F8CC207B68D3F8CC3005486C
:1051200098477868FFF73CFE00BF0837BD4680BD52
:10513000080000203C9B010880B483B000AF786079
:1051400039607B683A68C3F8C82000BF0C37BD4699
:1051500080BC704780B483B000AF786039607B68F2
:105160003A68C3F8C42000BF0C37BD4680BC704706
:1051700080B483B000AF786039607B683A68C3F868
:10518000D02000BF0C37BD4680BC704780B584B0CE
:1051900000AF786039607B68181D7B6854333A68CB
:1051A0001946FFF7ACFCF860FB68002B14DB7B684A
:1051B000FA68C3F8BC207B68D3F8BC207B68C3F8CE
:1051C000C0207868FFF7D8FE7B68D3F8C0301A4655
:1051D00000217868FFF716FF00BF1037BD4680BD7D
:1051E00080B582B000AF78600B46FB70FB785B2B1C
:1051F00004D17B6801221A7000237BE07B681B7856
:10520000012B4FD1FB78412B05D100217868FFF7A6
:10521000BDFF01236EE0FB78422B05D101217868A8
:10522000FFF7B4FF012365E0FB78432B14D17B68C3
:10523000D3F8C0207B68D3F8BC309A420ADA012147
:105240007868FFF73DFE7B68D3F8C0305A1C7B6856
:10525000C3F8C02001234DE0FB78442B12D17B68BA
:10526000D3F8C030002B0BDD4FF0FF317868FFF72B
:1052700027FE7B68D3F8C0305A1E7B68C3F8C02075
:10528000012337E0FB78372B04D17B6802221A70A8
:1052900000232FE0FB78382B2BD17B6803221A7078
:1052A000002327E0FB787E2B23D17B681B78022B21
:1052B00008D17868FFF760FE7B680022C3F8C02041
:1052C000012317E07B681B78032B12D17B68D3F88E
:1052D000BC207B68D3F8C030D31A19467868FFF732
:1052E000EFFD7B68D3F8BC207B68C3F8C0200123A6
:1052F00000E0012318460837BD4680BD80B586B062
:1053000000AFF860B9607A60FB68D3F8BC207B68B6
:105310001344642B60DCFB6803F15402FB68D3F890
:10532000C03019467B680B44D018FB685433FA68C8
:10533000D2F8C0209918FB68D3F8BC20FB68D3F8DA
:10534000C030D31A1A460FF05CFC00237B6125E0C5
:105350007B69BA681A44FB68D3F8C0107B690B44B8
:105360001178FA6813440A4683F85420FB68D3F88E
:10537000C0207B691344FA68134493F85430202BFF
:1053800009D1FB68D3F8C0207B691344FA68134441
:10539000002283F854207B6901337B617A697B6842
:1053A0009A42D5DBFB68D3F8C0207B681A44FB68BF
:1053B000C3F8C020FB68D3F8BC207B681A44FB68A4
:1053C000C3F8BC20FB68D3F8BC30FA681344002251
:1053D00083F85420012300E0002318461837BD4607
:1053E00080BD80B582B000AF78607B68D3F8C030F4
:1053F000002B31DD7868FFF7E3FC7B6803F1540292
:105400007B68D3F8C030013BD0187B6854337A688E
:10541000D2F8C02099187B68D3F8BC207B68D3F8F9
:10542000C030D31A01331A460FF0EBFB7B68D3F878
:10543000C0305A1E7B68C3F8C0207B68D3F8BC30EC
:105440007A681344002283F854207B68D3F8BC3078
:105450005A1E7B68C3F8BC2000BF0837BD4680BD1C
:1054600080B485B000AF78600023FB600123BB608F
:1054700030E0BB689B007A6813441A68FB681344E9
:105480001A78BB6803F18043013B9B0079680B44A9
:105490001968FB680B441B789A4216D1BB689B00C5
:1054A0007A6813441A68FB6813441B78002B0CD0ED
:1054B000BB6803F18043013B9B007A6813441A6880
:1054C000FB6813441B78002B01D1FB680DE0FB68DF
:1054D0000133FB60BB689B007A6813441B68002B98
:1054E000C7D1BB680133BB60F4E718461437BD462B
:1054F00080BC7047B0B58EB000AF78607B68D3F8E1
:10550000C830002B00F09C807B68D3F8C03007F1D6
:10551000080219467868FFF7FAFB78637B68D3F8CE
:10552000C030013B7A68134493F85430002B09D102
:105530007B6B5A1C7A639B0007F138021344424A82
:1055400043F8302C7B68D3F8C83007F108021146C5
:10555000786B9847B862BB6A1B68002B71D0002338
:105560003B63BB6A04331B68002B07D1BB6A1B6813
:105570001846FAF70FFE0346FB6226E0B86AFFF70B
:105580006FFFF8627868FFF739FC11E07B68D3F8A9
:10559000CC303A6B9200B96A0A44126810469847B8
:1055A0007B68D3F8CC30294898473B6B01333B6389
:1055B0003B6B9B00BA6A13441B68002BE6D17868EA
:1055C000FFF71CFC7868FFF7EBFBFB6A002B2BD086
:1055D000BB6A1C687B6B013B9B0007F138021344DC
:1055E00053F8303C1846FAF7D5FD0346E518FC6A37
:1055F0007B6B013B9B0007F13802134453F8303CAE
:105600001846FAF7C7FD0346E31A1A462946786892
:10561000FFF774FEBB6A04331B68002B04D1012220
:105620000A497868FFF76AFE7868FFF7A5FC7B688F
:10563000D3F8C0301A4600217868FFF7E3FC00E099
:1056400000BF3837BD46B0BD5C9B0108609B0108B8
:1056500080B58CB000AF78607868FFF7CFFB7B68CF
:10566000D3F8BC30002B0ADD7B68181D7B6803F182
:1056700054017B68D3F8BC301A46FFF7D1F97B6838
:10568000D3F8BC3007F10C0219467868FFF73FFBEE
:10569000F862FB6AB3F1FF3F09D17B68D3F8CC30E5
:1056A000174898477B68D3F8CC3016489847FB6A70
:1056B000002B0CDD7B68D3F8C430002B07D07B684F
:1056C000D3F8C43007F10C021146F86A984778689D
:1056D000FFF766FB7B680022C3F8BC207B680022D2
:1056E000C3F8C0207B6854336522002118460FF0B0
:1056F000A1FA7B680022DA6400BF3037BD4680BD66
:10570000649B01083C9B010880B582B000AF7860C3
:1057100039607B685B78002B0DD03B68DBB21946A3
:105720007868FFF75DFD0346002B00F0C1817B68C0
:1057300000225A70BCE13B68013B7E2B00F28D8158
:1057400001A252F823F000BFBB590008F35900082A
:10575000475A00085B5A000897590008CB590008BF
:105760005B5A00082B5A00084D5900089B5A000844
:105770007F5900085B5A000845590008215A000863
:105780005B5A0008175A00085B5A00085B5A000869
:105790005B5A00085B5A0008635900085B5A00080E
:1057A0005B5A00085B5A00085B5A00085B5A000805
:1057B000555900085B5A00085B5A00085B5A0008FC
:1057C0005B5A00085B5A00085B5A00085B5A0008E5
:1057D0005B5A00085B5A00085B5A00085B5A0008D5
:1057E0005B5A00085B5A00085B5A00085B5A0008C5
:1057F0005B5A00085B5A00085B5A00085B5A0008B5
:105800005B5A00085B5A00085B5A00085B5A0008A4
:105810005B5A00085B5A00085B5A00085B5A000894
:105820005B5A00085B5A00085B5A00085B5A000884
:105830005B5A00085B5A00085B5A00085B5A000874
:105840005B5A00085B5A00085B5A00085B5A000864
:105850005B5A00085B5A00085B5A00085B5A000854
:105860005B5A00085B5A00085B5A00085B5A000844
:105870005B5A00085B5A00085B5A00085B5A000834
:105880005B5A00085B5A00085B5A00085B5A000824
:105890005B5A00085B5A00085B5A00085B5A000814
:1058A0005B5A00085B5A00085B5A00085B5A000804
:1058B0005B5A00085B5A00085B5A00085B5A0008F4
:1058C0005B5A00085B5A00085B5A00085B5A0008E4
:1058D0005B5A00085B5A00085B5A00085B5A0008D4
:1058E0005B5A00085B5A00085B5A00085B5A0008C4
:1058F0005B5A00085B5A00085B5A00085B5A0008B4
:105900005B5A00085B5A00085B5A00085B5A0008A3
:105910005B5A00085B5A00085B5A00085B5A000893
:105920005B5A00085B5A00085B5A00085B5A000883
:105930005B5A00085B5A00085B5A00085B5A000873
:105940002B5A00087868FFF783FEB1E07868FFF70C
:10595000D1FDADE07B6801225A70A9E07868FFF7BD
:1059600040FD7B68D3F8C030002BF7DC7B68D3F8B0
:10597000C0301A4600217868FFF744FB98E07B6846
:10598000D3F8CC304C4898477B68D3F8C0207B686C
:10599000C3F8BC208CE07B68D3F8BC207B68D3F8CC
:1059A000C030D31A19467868FFF78AFA7B68D3F8B3
:1059B000BC207B68C3F8C0207AE07868FFF7DCFA87
:1059C0007B680022C3F8C02072E07B68D3F8C02057
:1059D0007B68D3F8BC309A4261DA01217868FFF71E
:1059E0006FFA7B68D3F8C0305A1C7B68C3F8C020BC
:1059F00055E07B68D3F8C030002B52D04FF0FF3118
:105A00007868FFF75DFA7B68D3F8C0305A1E7B6870
:105A1000C3F8C02045E000217868FFF7B7FB47E0F6
:105A200001217868FFF7B2FB42E07868FFF7D9FC04
:105A30007B68D3F8C0107B68D3F8C0301A4678680A
:105A4000FFF7E0FA34E07B68D3F8D030002B2AD09F
:105A50007B68D3F8D030984725E03B68202B04D1F1
:105A60007B68D3F8BC30002B1FD03B681F2B1CDD9C
:105A70003B46012219467868FFF740FC0346002B9D
:105A800015D07B68D3F8C030591E7B68D3F8C0307E
:105A90001A467868FFF7B6FA09E000BF08E000BFD1
:105AA00006E000BF04E000BF02E000BF00E000BF6E
:105AB00000BF0837BD4680BD589B010880B400AFC9
:105AC000BFF34F8F054BDB6803F4E0620349044BDF
:105AD0001343CB60BFF34F8F00BFFDE700ED00E045
